{
  "contractName": "Middleware",
  "abi": [
    {
      "anonymous": false,
      "inputs": [
        {
          "indexed": false,
          "internalType": "address",
          "name": "_from",
          "type": "address"
        },
        {
          "indexed": false,
          "internalType": "address",
          "name": "_to",
          "type": "address"
        },
        {
          "indexed": false,
          "internalType": "uint256",
          "name": "_amount",
          "type": "uint256"
        }
      ],
      "name": "_e_deposit_existence",
      "type": "event"
    },
    {
      "anonymous": false,
      "inputs": [
        {
          "indexed": false,
          "internalType": "address",
          "name": "_from",
          "type": "address"
        },
        {
          "indexed": false,
          "internalType": "address",
          "name": "_to",
          "type": "address"
        },
        {
          "indexed": false,
          "internalType": "uint256",
          "name": "_amount",
          "type": "uint256"
        }
      ],
      "name": "_e_deposit_register",
      "type": "event"
    },
    {
      "anonymous": false,
      "inputs": [
        {
          "indexed": false,
          "internalType": "bytes32",
          "name": "value",
          "type": "bytes32"
        }
      ],
      "name": "_e_get_deposit_existence_root",
      "type": "event"
    },
    {
      "anonymous": false,
      "inputs": [
        {
          "indexed": false,
          "internalType": "bytes32",
          "name": "value",
          "type": "bytes32"
        }
      ],
      "name": "_e_get_deposit_register_root",
      "type": "event"
    },
    {
      "anonymous": false,
      "inputs": [],
      "name": "_e_invalid_proof_existence",
      "type": "event"
    },
    {
      "anonymous": false,
      "inputs": [],
      "name": "_e_invalid_proof_register",
      "type": "event"
    },
    {
      "anonymous": false,
      "inputs": [
        {
          "indexed": false,
          "internalType": "bytes32",
          "name": "root",
          "type": "bytes32"
        }
      ],
      "name": "_e_process_deposit_existence",
      "type": "event"
    },
    {
      "anonymous": false,
      "inputs": [
        {
          "indexed": false,
          "internalType": "bytes32",
          "name": "root",
          "type": "bytes32"
        }
      ],
      "name": "_e_process_deposit_register",
      "type": "event"
    },
    {
      "anonymous": false,
      "inputs": [
        {
          "indexed": false,
          "internalType": "address",
          "name": "_from",
          "type": "address"
        },
        {
          "indexed": false,
          "internalType": "address",
          "name": "_to",
          "type": "address"
        },
        {
          "indexed": false,
          "internalType": "uint256",
          "name": "_amount",
          "type": "uint256"
        }
      ],
      "name": "_e_transfer",
      "type": "event"
    },
    {
      "anonymous": false,
      "inputs": [],
      "name": "_e_valid_proof_existence",
      "type": "event"
    },
    {
      "anonymous": false,
      "inputs": [],
      "name": "_e_valid_proof_register",
      "type": "event"
    },
    {
      "anonymous": false,
      "inputs": [],
      "name": "_e_withdraw",
      "type": "event"
    },
    {
      "inputs": [],
      "name": "_process_deposit_register",
      "outputs": [],
      "stateMutability": "nonpayable",
      "type": "function"
    },
    {
      "inputs": [],
      "name": "_process_deposit_existence",
      "outputs": [],
      "stateMutability": "nonpayable",
      "type": "function"
    },
    {
      "inputs": [],
      "name": "_get_deposit_register_root",
      "outputs": [],
      "stateMutability": "nonpayable",
      "type": "function"
    },
    {
      "inputs": [],
      "name": "_get_deposit_existence_root",
      "outputs": [],
      "stateMutability": "nonpayable",
      "type": "function"
    },
    {
      "inputs": [
        {
          "internalType": "bytes32[]",
          "name": "DR_Proofs",
          "type": "bytes32[]"
        },
        {
          "internalType": "int32[]",
          "name": "DR_Path",
          "type": "int32[]"
        },
        {
          "internalType": "bytes32",
          "name": "DR_intermediate_acc_root",
          "type": "bytes32"
        }
      ],
      "name": "_verify_process_deposit_register",
      "outputs": [],
      "stateMutability": "nonpayable",
      "type": "function"
    },
    {
      "inputs": [
        {
          "internalType": "address[]",
          "name": "from",
          "type": "address[]"
        },
        {
          "internalType": "address[]",
          "name": "to",
          "type": "address[]"
        },
        {
          "internalType": "uint256[]",
          "name": "current_balance",
          "type": "uint256[]"
        },
        {
          "internalType": "uint256[]",
          "name": "deposit_amount",
          "type": "uint256[]"
        },
        {
          "internalType": "bytes32[][]",
          "name": "DE_Proofs_TX",
          "type": "bytes32[][]"
        },
        {
          "internalType": "int32[][]",
          "name": "DE_Path_TX",
          "type": "int32[][]"
        },
        {
          "internalType": "bytes32[][]",
          "name": "DE_Proofs",
          "type": "bytes32[][]"
        },
        {
          "internalType": "int32[][]",
          "name": "DE_Path",
          "type": "int32[][]"
        },
        {
          "internalType": "bytes32[]",
          "name": "DE_intermediate_acc_root",
          "type": "bytes32[]"
        }
      ],
      "name": "_verify_process_deposit_existence",
      "outputs": [],
      "stateMutability": "nonpayable",
      "type": "function"
    },
    {
      "inputs": [
        {
          "internalType": "address",
          "name": "layer2_address",
          "type": "address"
        },
        {
          "internalType": "uint256",
          "name": "amount",
          "type": "uint256"
        }
      ],
      "name": "_deposit",
      "outputs": [],
      "stateMutability": "payable",
      "type": "function",
      "payable": true
    },
    {
      "inputs": [],
      "name": "_transfer",
      "outputs": [],
      "stateMutability": "nonpayable",
      "type": "function"
    },
    {
      "inputs": [],
      "name": "_withdraw",
      "outputs": [],
      "stateMutability": "nonpayable",
      "type": "function"
    }
  ],
  "bytecode": "0x60806040526040518061014001604052807f3cac317908c699fe873a7f6ee4e8cd63fbe9918b2315c97be91585590168e30160001b81526020017fd6a4144868703d1474cd7c5b4b1697b412eece270b7a4428b750c7458f73d16360001b81526020017f70620458a6db5a8631a8cdc160462b1c0c2535bc813757ffc9374638c3999b0a60001b81526020017fba78901e710fee2f40d93e4a43888f008ce586f8ac2f6c493110334e925bab3d60001b81526020017fb3071dfe86f33fe4b792b764c02bf1846e60309294bbc955eecec20de535e79b60001b81526020017fd5f4d4f3a12a96670788488191268eba24edef266e8daf351cc58de6ba070cc860001b81526020017f4383b8a05505a19df40ad49486feca659270f2e61b8cea10def78ca226f4fa6b60001b81526020017f2235dd0e52d5fd51624a4297f90019372475057a149fcf333478b639c6c6a70160001b81526020017f3f196d31b8b97caa45a187e1ecfb14eb76468fb95cee57b1862213861a59337760001b81526020017f9d952dab4bf3d73556437c642f74335230419daf1d9f88bb6096e1a8a027bf4160001b815250600090600a620001ba929190620001fc565b506000600c556000600e556003600f556000600f54600a8110620001e357620001e262000260565b5b0154601055348015620001f557600080fd5b506200028f565b82600a81019282156200022e579160200282015b828111156200022d57825182559160200191906001019062000210565b5b5090506200023d919062000241565b5090565b5b808211156200025c57600081600090555060010162000242565b5090565b7f4e487b7100000000000000000000000000000000000000000000000000000000600052603260045260246000fd5b611bc4806200029f6000396000f3fe6080604052600436106100865760003560e01c8063bdcdaa0b11610059578063bdcdaa0b146100fe578063c10eb14d14610115578063ca9e19931461012c578063e15545e414610143578063f280b4041461015a57610086565b806315f153381461008b5780634c34f2cb146100a257806361b3b73e146100b95780636da1339c146100e2575b600080fd5b34801561009757600080fd5b506100a0610183565b005b3480156100ae57600080fd5b506100b76101db565b005b3480156100c557600080fd5b506100e060048036038101906100db9190611587565b61028f565b005b6100fc60048036038101906100f7919061174d565b610782565b005b34801561010a57600080fd5b5061011361084c565b005b34801561012157600080fd5b5061012a610900565b005b34801561013857600080fd5b5061014161092e565b005b34801561014f57600080fd5b50610158610930565b005b34801561016657600080fd5b50610181600480360381019061017c919061178d565b610988565b005b7fd58c1ccc371dd5bbb84a67781a98176032d05c095dd78d06a8d56476a8ca20f7600d6000815481106101b9576101b8611818565b5b90600052602060002001546040516101d19190611856565b60405180910390a1565b6000600e5414610240577f07594c53251eed301a88d39b4099c809ff427b3ed2f5831374da88e3324469e6600d60008154811061021b5761021a611818565b5b90600052602060002001546040516102339190611856565b60405180910390a161028d565b7f07594c53251eed301a88d39b4099c809ff427b3ed2f5831374da88e3324469e6600080600a811061027557610274611818565b5b01546040516102849190611856565b60405180910390a15b565b6000601054905060005b86518110156106935760008782815181106102b7576102b6611818565b5b60200260200101515114801561036357508a81815181106102db576102da611818565b5b60200260200101518a82815181106102f6576102f5611818565b5b602002602001015189838151811061031157610310611818565b5b602002602001015160405160200161032b939291906118da565b60405160208183030381529060405280519060200120600d60008154811061035657610355611818565b5b9060005260206000200154145b806104695750600087828151811061037e5761037d611818565b5b6020026020010151511415801561046857506104678b82815181106103a6576103a5611818565b5b60200260200101518b83815181106103c1576103c0611818565b5b60200260200101518a84815181106103dc576103db611818565b5b60200260200101516040516020016103f6939291906118da565b6040516020818303038152906040528051906020012088838151811061041f5761041e611818565b5b602002602001015188848151811061043a57610439611818565b5b6020026020010151600d60008154811061045757610456611818565b5b9060005260206000200154610b0c565b5b5b801561052957506105288b828151811061048657610485611818565b5b60200260200101518b83815181106104a1576104a0611818565b5b60200260200101518b84815181106104bc576104bb611818565b5b60200260200101516040516020016104d6939291906118da565b604051602081830303815290604052805190602001208683815181106104ff576104fe611818565b5b602002602001015186848151811061051a57610519611818565b5b602002602001015185610b0c565b5b801561062857506106278b828151811061054657610545611818565b5b60200260200101518b838151811061056157610560611818565b5b60200260200101518b848151811061057c5761057b611818565b5b60200260200101518b858151811061059757610596611818565b5b60200260200101516105a99190611946565b6040516020016105bb939291906118da565b604051602081830303815290604052805190602001208683815181106105e4576105e3611818565b5b60200260200101518684815181106105ff576105fe611818565b5b602002602001015186858151811061061a57610619611818565b5b6020026020010151610b0c565b5b1561064f578281815181106106405761063f611818565b5b60200260200101519150610682565b7fdf74dd05cb931e8911aa51449cd90b9ed1043ec80079b31ad1bb27dfe9ac7bd860405160405180910390a15050610777565b8061068c9061197a565b9050610299565b506004600e60008282546106a791906119c2565b925050819055506000600190505b600d8054905081101561072057600d81815481106106d6576106d5611818565b5b9060005260206000200154600d6001836106f091906119c2565b8154811061070157610700611818565b5b9060005260206000200181905550806107199061197a565b90506106b5565b50600d805480610733576107326119f6565b5b600190038181906000526020600020016000905590557f6519f0a188200bdc900e9e51e4444ca29e89556b72313bb6ad06a30d64ee979f60405160405180910390a1505b505050505050505050565b600a60008373ffffffffffffffffffffffffffffffffffffffff1673ffffffffffffffffffffffffffffffffffffffff16815260200190815260200160002060009054906101000a900460ff16156107e4576107df338383610bff565b610848565b6001600a60008473ffffffffffffffffffffffffffffffffffffffff1673ffffffffffffffffffffffffffffffffffffffff16815260200190815260200160002060006101000a81548160ff021916908315150217905550610847338383610d67565b5b5050565b6000600c54146108b1577f1baf45bd9517c0a3ddbcf3f78b4df0f22efc96db9add508b3822318166a8b1fc600b60008154811061088c5761088b611818565b5b90600052602060002001546040516108a49190611856565b60405180910390a16108fe565b7f1baf45bd9517c0a3ddbcf3f78b4df0f22efc96db9add508b3822318166a8b1fc600080600a81106108e6576108e5611818565b5b01546040516108f59190611856565b60405180910390a15b565b7fd5542f730a37533c5de3502ac66ec84a5cfbd6b09019c2a4d949ceb39fa081df60405160405180910390a1565b565b7fe00b941c20c4a65e5e5d7466063a377367517fc1622e2d6f4bba2f7e875b87ee600b60008154811061096657610965611818565b5b906000526020600020015460405161097e9190611856565b60405180910390a1565b6109b56000610998600c54610ecf565b600a81106109a9576109a8611818565b5b01548484601054610b0c565b80156109e857506109e7600b6000815481106109d4576109d3611818565b5b9060005260206000200154848484610b0c565b5b15610ada57806010819055506004600c6000828254610a0791906119c2565b925050819055506000600190505b600b80549050811015610a8057600b8181548110610a3657610a35611818565b5b9060005260206000200154600b600183610a5091906119c2565b81548110610a6157610a60611818565b5b906000526020600020018190555080610a799061197a565b9050610a15565b50600b805480610a9357610a926119f6565b5b600190038181906000526020600020016000905590557ffa2eb09c8b0d61c80e8ba0a6789acb48bc9c72e5a5f71da9a0b3c8cb147c5da460405160405180910390a1610b07565b7f0e95a41a1cee9f1f3b72ecb4601a732d29b387e8f1bec5c06a4e7799714a68c160405160405180910390a15b505050565b60008085905060005b84518160ff161015610bf0576000858260ff1681518110610b3957610b38611818565b5b602002602001015160030b03610b965781868260ff1681518110610b6057610b5f611818565b5b6020026020010151604051602001610b79929190611a46565b604051602081830303815290604052805190602001209150610bdf565b858160ff1681518110610bac57610bab611818565b5b602002602001015182604051602001610bc6929190611a46565b6040516020818303038152906040528051906020012091505b80610be990611a7f565b9050610b15565b50828114915050949350505050565b7f80a525842e1d01e57f9a343b2f0038923c31f54c61c6bf032d8bcbc8674a4f9c838383604051610c3293929190611ac6565b60405180910390a1600e60008154610c499061197a565b919050819055506000600e5490506000848484604051602001610c6e939291906118da565b60405160208183030381529060405280519060200120905060005b6000600284610c989190611b2c565b03610d3657600283610caa9190611b5d565b9250600d6001600d80549050610cc091906119c2565b81548110610cd157610cd0611818565b5b90600052602060002001549050600d805480610cf057610cef6119f6565b5b600190038181906000526020600020016000905590558082604051602001610d19929190611a46565b604051602081830303815290604052805190602001209150610c89565b600d829080600181540180825580915050600190039060005260206000200160009091909190915055505050505050565b7f8d724741b8f05c839dbfcd51d541b3fe27cfdca2e6db569d86498bb303f0db6a838383604051610d9a93929190611ac6565b60405180910390a1600c60008154610db19061197a565b919050819055506000600c5490506000848484604051602001610dd6939291906118da565b60405160208183030381529060405280519060200120905060005b6000600284610e009190611b2c565b03610e9e57600283610e129190611b5d565b9250600b6001600b80549050610e2891906119c2565b81548110610e3957610e38611818565b5b90600052602060002001549050600b805480610e5857610e576119f6565b5b600190038181906000526020600020016000905590558082604051602001610e81929190611a46565b604051602081830303815290604052805190602001209150610df1565b600b829080600181540180825580915050600190039060005260206000200160009091909190915055505050505050565b600080600090505b6001831115610f0357600283610eed9190611b5d565b9250600181610efc9190611946565b9050610ed7565b80915050919050565b6000604051905090565b600080fd5b600080fd5b600080fd5b6000601f19601f8301169050919050565b7f4e487b7100000000000000000000000000000000000000000000000000000000600052604160045260246000fd5b610f6e82610f25565b810181811067ffffffffffffffff82111715610f8d57610f8c610f36565b5b80604052505050565b6000610fa0610f0c565b9050610fac8282610f65565b919050565b600067ffffffffffffffff821115610fcc57610fcb610f36565b5b602082029050602081019050919050565b600080fd5b600073ffffffffffffffffffffffffffffffffffffffff82169050919050565b600061100d82610fe2565b9050919050565b61101d81611002565b811461102857600080fd5b50565b60008135905061103a81611014565b92915050565b600061105361104e84610fb1565b610f96565b9050808382526020820190506020840283018581111561107657611075610fdd565b5b835b8181101561109f578061108b888261102b565b845260208401935050602081019050611078565b5050509392505050565b600082601f8301126110be576110bd610f20565b5b81356110ce848260208601611040565b91505092915050565b600067ffffffffffffffff8211156110f2576110f1610f36565b5b602082029050602081019050919050565b6000819050919050565b61111681611103565b811461112157600080fd5b50565b6000813590506111338161110d565b92915050565b600061114c611147846110d7565b610f96565b9050808382526020820190506020840283018581111561116f5761116e610fdd565b5b835b8181101561119857806111848882611124565b845260208401935050602081019050611171565b5050509392505050565b600082601f8301126111b7576111b6610f20565b5b81356111c7848260208601611139565b91505092915050565b600067ffffffffffffffff8211156111eb576111ea610f36565b5b602082029050602081019050919050565b600067ffffffffffffffff82111561121757611216610f36565b5b602082029050602081019050919050565b6000819050919050565b61123b81611228565b811461124657600080fd5b50565b60008135905061125881611232565b92915050565b600061127161126c846111fc565b610f96565b9050808382526020820190506020840283018581111561129457611293610fdd565b5b835b818110156112bd57806112a98882611249565b845260208401935050602081019050611296565b5050509392505050565b600082601f8301126112dc576112db610f20565b5b81356112ec84826020860161125e565b91505092915050565b6000611308611303846111d0565b610f96565b9050808382526020820190506020840283018581111561132b5761132a610fdd565b5b835b8181101561137257803567ffffffffffffffff8111156113505761134f610f20565b5b80860161135d89826112c7565b8552602085019450505060208101905061132d565b5050509392505050565b600082601f83011261139157611390610f20565b5b81356113a18482602086016112f5565b91505092915050565b600067ffffffffffffffff8211156113c5576113c4610f36565b5b602082029050602081019050919050565b600067ffffffffffffffff8211156113f1576113f0610f36565b5b602082029050602081019050919050565b60008160030b9050919050565b61141881611402565b811461142357600080fd5b50565b6000813590506114358161140f565b92915050565b600061144e611449846113d6565b610f96565b9050808382526020820190506020840283018581111561147157611470610fdd565b5b835b8181101561149a57806114868882611426565b845260208401935050602081019050611473565b5050509392505050565b600082601f8301126114b9576114b8610f20565b5b81356114c984826020860161143b565b91505092915050565b60006114e56114e0846113aa565b610f96565b9050808382526020820190506020840283018581111561150857611507610fdd565b5b835b8181101561154f57803567ffffffffffffffff81111561152d5761152c610f20565b5b80860161153a89826114a4565b8552602085019450505060208101905061150a565b5050509392505050565b600082601f83011261156e5761156d610f20565b5b813561157e8482602086016114d2565b91505092915050565b60008060008060008060008060006101208a8c0312156115aa576115a9610f16565b5b60008a013567ffffffffffffffff8111156115c8576115c7610f1b565b5b6115d48c828d016110a9565b99505060208a013567ffffffffffffffff8111156115f5576115f4610f1b565b5b6116018c828d016110a9565b98505060408a013567ffffffffffffffff81111561162257611621610f1b565b5b61162e8c828d016111a2565b97505060608a013567ffffffffffffffff81111561164f5761164e610f1b565b5b61165b8c828d016111a2565b96505060808a013567ffffffffffffffff81111561167c5761167b610f1b565b5b6116888c828d0161137c565b95505060a08a013567ffffffffffffffff8111156116a9576116a8610f1b565b5b6116b58c828d01611559565b94505060c08a013567ffffffffffffffff8111156116d6576116d5610f1b565b5b6116e28c828d0161137c565b93505060e08a013567ffffffffffffffff81111561170357611702610f1b565b5b61170f8c828d01611559565b9250506101008a013567ffffffffffffffff81111561173157611730610f1b565b5b61173d8c828d016112c7565b9150509295985092959850929598565b6000806040838503121561176457611763610f16565b5b60006117728582860161102b565b925050602061178385828601611124565b9150509250929050565b6000806000606084860312156117a6576117a5610f16565b5b600084013567ffffffffffffffff8111156117c4576117c3610f1b565b5b6117d0868287016112c7565b935050602084013567ffffffffffffffff8111156117f1576117f0610f1b565b5b6117fd868287016114a4565b925050604061180e86828701611249565b9150509250925092565b7f4e487b7100000000000000000000000000000000000000000000000000000000600052603260045260246000fd5b61185081611228565b82525050565b600060208201905061186b6000830184611847565b92915050565b60008160601b9050919050565b600061188982611871565b9050919050565b600061189b8261187e565b9050919050565b6118b36118ae82611002565b611890565b82525050565b6000819050919050565b6118d46118cf82611103565b6118b9565b82525050565b60006118e682866118a2565b6014820191506118f682856118a2565b60148201915061190682846118c3565b602082019150819050949350505050565b7f4e487b7100000000000000000000000000000000000000000000000000000000600052601160045260246000fd5b600061195182611103565b915061195c83611103565b925082820190508082111561197457611973611917565b5b92915050565b600061198582611103565b91507fffffffffffffffffffffffffffffffffffffffffffffffffffffffffffffffff82036119b7576119b6611917565b5b600182019050919050565b60006119cd82611103565b91506119d883611103565b92508282039050818111156119f0576119ef611917565b5b92915050565b7f4e487b7100000000000000000000000000000000000000000000000000000000600052603160045260246000fd5b6000819050919050565b611a40611a3b82611228565b611a25565b82525050565b6000611a528285611a2f565b602082019150611a628284611a2f565b6020820191508190509392505050565b600060ff82169050919050565b6000611a8a82611a72565b915060ff8203611a9d57611a9c611917565b5b600182019050919050565b611ab181611002565b82525050565b611ac081611103565b82525050565b6000606082019050611adb6000830186611aa8565b611ae86020830185611aa8565b611af56040830184611ab7565b949350505050565b7f4e487b7100000000000000000000000000000000000000000000000000000000600052601260045260246000fd5b6000611b3782611103565b9150611b4283611103565b925082611b5257611b51611afd565b5b828206905092915050565b6000611b6882611103565b9150611b7383611103565b925082611b8357611b82611afd565b5b82820490509291505056fea2646970667358221220e82257c4587634d7e03d77cda1c5d55b561d429ddafeff9c25cc8c4d967cc12964736f6c63430008130033",
  "immutableReferences": {},
  "source": "pragma solidity >=0.7.0 <0.9.0;\r\n\r\ncontract Middleware {\r\n    /* DATA STRUCURE SECTION */\r\n    bytes32[10] hash0 = [\r\n        bytes32(\r\n            0x3cac317908c699fe873a7f6ee4e8cd63fbe9918b2315c97be91585590168e301\r\n        ),\r\n        bytes32(\r\n            0xd6a4144868703d1474cd7c5b4b1697b412eece270b7a4428b750c7458f73d163\r\n        ),\r\n        bytes32(\r\n            0x70620458a6db5a8631a8cdc160462b1c0c2535bc813757ffc9374638c3999b0a\r\n        ),\r\n        bytes32(\r\n            0xba78901e710fee2f40d93e4a43888f008ce586f8ac2f6c493110334e925bab3d\r\n        ),\r\n        bytes32(\r\n            0xb3071dfe86f33fe4b792b764c02bf1846e60309294bbc955eecec20de535e79b\r\n        ),\r\n        bytes32(\r\n            0xd5f4d4f3a12a96670788488191268eba24edef266e8daf351cc58de6ba070cc8\r\n        ),\r\n        bytes32(\r\n            0x4383b8a05505a19df40ad49486feca659270f2e61b8cea10def78ca226f4fa6b\r\n        ),\r\n        bytes32(\r\n            0x2235dd0e52d5fd51624a4297f90019372475057a149fcf333478b639c6c6a701\r\n        ),\r\n        bytes32(\r\n            0x3f196d31b8b97caa45a187e1ecfb14eb76468fb95cee57b1862213861a593377\r\n        ),\r\n        bytes32(\r\n            0x9d952dab4bf3d73556437c642f74335230419daf1d9f88bb6096e1a8a027bf41\r\n        )\r\n    ];\r\n    mapping(address => bool) exists;\r\n    bytes32[] deposit_register_root;\r\n    uint deposit_register_count = 0;\r\n    bytes32[] deposit_existence_root;\r\n    uint deposit_existence_count = 0;\r\n    uint height_acc_tree = 3;\r\n    bytes32 account_root = hash0[height_acc_tree];\r\n\r\n    // EVENTS\r\n    event _e_deposit_register(address _from, address _to, uint _amount);\r\n    event _e_deposit_existence(address _from, address _to, uint _amount);\r\n    event _e_process_deposit_register(bytes32 root);\r\n    event _e_process_deposit_existence(bytes32 root);\r\n    event _e_transfer(address _from, address _to, uint _amount);\r\n    event _e_withdraw();\r\n    event _e_valid_proof_register();\r\n    event _e_invalid_proof_register();\r\n    event _e_valid_proof_existence();\r\n    event _e_invalid_proof_existence();\r\n    event _e_get_deposit_register_root(bytes32 value);\r\n    event _e_get_deposit_existence_root(bytes32 value);\r\n\r\n    /* END-DATA STRUCURE SECTION */\r\n\r\n    function _process_deposit_register() public {\r\n        emit _e_process_deposit_register(deposit_register_root[0]);\r\n    }\r\n\r\n    function _process_deposit_existence() public {\r\n        emit _e_process_deposit_existence(deposit_existence_root[0]);\r\n    }\r\n\r\n    function _get_deposit_register_root() public {\r\n        if (deposit_register_count != 0)\r\n            emit _e_get_deposit_register_root(deposit_register_root[0]);\r\n        else emit _e_get_deposit_register_root(hash0[0]);\r\n    }\r\n\r\n    function _get_deposit_existence_root() public {\r\n        if (deposit_existence_count != 0)\r\n            emit _e_get_deposit_existence_root(deposit_existence_root[0]);\r\n        else emit _e_get_deposit_existence_root(hash0[0]);\r\n    }\r\n\r\n    function __log2(uint i) private pure returns (uint) {\r\n        uint res = 0;\r\n        while (i > 1) {\r\n            i /= 2;\r\n            res += 1;\r\n        }\r\n        return res;\r\n    }\r\n\r\n    function __is_valid_merkle_proof(\r\n        bytes32 node,\r\n        bytes32[] memory proofs,\r\n        int32[] memory path,\r\n        bytes32 root\r\n    ) private pure returns (bool) {\r\n        bytes32 _root = node;\r\n        for (uint8 i = 0; i < path.length; ++i) {\r\n            if (path[i] == 0)\r\n                _root = keccak256(abi.encodePacked(_root, proofs[i]));\r\n            else _root = keccak256(abi.encodePacked(proofs[i], _root));\r\n        }\r\n        return (_root == root);\r\n    }\r\n\r\n    function _verify_process_deposit_register(\r\n        bytes32[] memory DR_Proofs,\r\n        int32[] memory DR_Path,\r\n        bytes32 DR_intermediate_acc_root\r\n    ) public {\r\n        if (\r\n            __is_valid_merkle_proof(\r\n                hash0[__log2(deposit_register_count)],\r\n                DR_Proofs,\r\n                DR_Path,\r\n                account_root\r\n            ) &&\r\n            __is_valid_merkle_proof(\r\n                deposit_register_root[0],\r\n                DR_Proofs,\r\n                DR_Path,\r\n                DR_intermediate_acc_root\r\n            )\r\n        ) {\r\n            account_root = DR_intermediate_acc_root;\r\n            deposit_register_count -= 4;\r\n            for (uint i = 1; i < deposit_register_root.length; ++i)\r\n                deposit_register_root[i - 1] = deposit_register_root[i];\r\n            deposit_register_root.pop();\r\n            emit _e_valid_proof_register();\r\n        } else emit _e_invalid_proof_register();\r\n    }\r\n\r\n    // DR: Deposit Register\r\n    // DE: Deposit Existence\r\n    function _verify_process_deposit_existence(\r\n        address[] memory from,\r\n        address[] memory to,\r\n        uint[] memory current_balance,\r\n        uint[] memory deposit_amount,\r\n        bytes32[][] memory DE_Proofs_TX,\r\n        int32[][] memory DE_Path_TX,\r\n        bytes32[][] memory DE_Proofs,\r\n        int32[][] memory DE_Path,\r\n        bytes32[] memory DE_intermediate_acc_root\r\n    ) public {\r\n        bytes32 intermediate_acc_root = account_root;\r\n        for (uint i = 0; i < DE_Proofs_TX.length; ++i) {\r\n            if (\r\n                (((DE_Proofs_TX[i].length == 0) &&\r\n                    (deposit_existence_root[0] ==\r\n                        keccak256(\r\n                            abi.encodePacked(from[i], to[i], deposit_amount[i])\r\n                        ))) ||\r\n                    ((DE_Proofs_TX[i].length != 0) &&\r\n                        __is_valid_merkle_proof(\r\n                            keccak256(\r\n                                abi.encodePacked(\r\n                                    from[i],\r\n                                    to[i],\r\n                                    deposit_amount[i]\r\n                                )\r\n                            ),\r\n                            DE_Proofs_TX[i],\r\n                            DE_Path_TX[i],\r\n                            deposit_existence_root[0]\r\n                        ))) &&\r\n                __is_valid_merkle_proof(\r\n                    keccak256(\r\n                        abi.encodePacked(from[i], to[i], current_balance[i])\r\n                    ),\r\n                    DE_Proofs[i],\r\n                    DE_Path[i],\r\n                    intermediate_acc_root\r\n                ) &&\r\n                __is_valid_merkle_proof(\r\n                    keccak256(\r\n                        abi.encodePacked(\r\n                            from[i],\r\n                            to[i],\r\n                            uint(deposit_amount[i] + current_balance[i])\r\n                        )\r\n                    ),\r\n                    DE_Proofs[i],\r\n                    DE_Path[i],\r\n                    DE_intermediate_acc_root[i]\r\n                )\r\n            ) {\r\n                intermediate_acc_root = DE_intermediate_acc_root[i];\r\n            } else {\r\n                emit _e_invalid_proof_existence();\r\n                return;\r\n            }\r\n        }\r\n        deposit_existence_count -= 4;\r\n        for (uint i = 1; i < deposit_existence_root.length; ++i)\r\n            deposit_existence_root[i - 1] = deposit_existence_root[i];\r\n        deposit_existence_root.pop();\r\n        emit _e_valid_proof_existence();\r\n    }\r\n\r\n    function _deposit(address layer2_address, uint amount) public payable {\r\n        if (exists[layer2_address]) {\r\n            _deposit_existence(msg.sender, layer2_address, amount);\r\n        } else {\r\n            exists[layer2_address] = true;\r\n            _deposit_register(msg.sender, layer2_address, amount);\r\n        }\r\n    }\r\n\r\n    function _deposit_register(\r\n        address l1_addr,\r\n        address l2_addr,\r\n        uint amount\r\n    ) private {\r\n        emit _e_deposit_register(l1_addr, l2_addr, amount);\r\n        ++deposit_register_count;\r\n\r\n        uint cnt = deposit_register_count;\r\n        bytes32 tmp = keccak256(abi.encodePacked(l1_addr, l2_addr, amount));\r\n        bytes32 tmp2;\r\n\r\n        while (cnt % 2 == 0) {\r\n            cnt /= 2;\r\n            tmp2 = deposit_register_root[deposit_register_root.length - 1];\r\n            deposit_register_root.pop();\r\n            tmp = keccak256(abi.encodePacked(tmp2, tmp));\r\n        }\r\n        deposit_register_root.push(tmp);\r\n    }\r\n\r\n    function _deposit_existence(\r\n        address l1_addr,\r\n        address l2_addr,\r\n        uint amount\r\n    ) private {\r\n        emit _e_deposit_existence(l1_addr, l2_addr, amount);\r\n        ++deposit_existence_count;\r\n\r\n        uint cnt = deposit_existence_count;\r\n        bytes32 tmp = keccak256(abi.encodePacked(l1_addr, l2_addr, amount));\r\n        bytes32 tmp2;\r\n\r\n        while (cnt % 2 == 0) {\r\n            cnt /= 2;\r\n            tmp2 = deposit_existence_root[deposit_existence_root.length - 1];\r\n            deposit_existence_root.pop();\r\n            tmp = keccak256(abi.encodePacked(tmp2, tmp));\r\n        }\r\n        deposit_existence_root.push(tmp);\r\n    }\r\n\r\n    function _transfer() public {\r\n        // emit _e_transfer();\r\n    }\r\n\r\n    function _withdraw() public {\r\n        emit _e_withdraw();\r\n    }\r\n}\r\n",
  "sourcePath": "C:\\Users\\Public\\code-area\\Solidity\\truffle_project\\contracts\\Middleware.sol",
  "compiler": {
    "name": "solc",
    "version": "0.8.19+commit.7dd6d404.Emscripten.clang"
  },
  "schemaVersion": "3.4.13",
  "updatedAt": "2023-06-18T11:00:57.124Z",
  "networkType": "ethereum",
  "devdoc": {
    "kind": "dev",
    "methods": {},
    "version": 1
  },
  "userdoc": {
    "kind": "user",
    "methods": {},
    "version": 1
  }
}