{
  "contractName": "Middleware",
  "abi": [
    {
      "anonymous": false,
      "inputs": [
        {
          "indexed": false,
          "internalType": "address",
          "name": "_from",
          "type": "address"
        },
        {
          "indexed": false,
          "internalType": "address",
          "name": "_to",
          "type": "address"
        },
        {
          "indexed": false,
          "internalType": "uint256",
          "name": "_amount",
          "type": "uint256"
        }
      ],
      "name": "_e_deposit_existence",
      "type": "event"
    },
    {
      "anonymous": false,
      "inputs": [
        {
          "indexed": false,
          "internalType": "address",
          "name": "_from",
          "type": "address"
        },
        {
          "indexed": false,
          "internalType": "address",
          "name": "_to",
          "type": "address"
        },
        {
          "indexed": false,
          "internalType": "uint256",
          "name": "_amount",
          "type": "uint256"
        }
      ],
      "name": "_e_deposit_register",
      "type": "event"
    },
    {
      "anonymous": false,
      "inputs": [
        {
          "indexed": false,
          "internalType": "bytes32",
          "name": "value",
          "type": "bytes32"
        }
      ],
      "name": "_e_get_deposit_existence_root",
      "type": "event"
    },
    {
      "anonymous": false,
      "inputs": [
        {
          "indexed": false,
          "internalType": "bytes32",
          "name": "value",
          "type": "bytes32"
        }
      ],
      "name": "_e_get_deposit_register_root",
      "type": "event"
    },
    {
      "anonymous": false,
      "inputs": [],
      "name": "_e_invalid_proof_existence",
      "type": "event"
    },
    {
      "anonymous": false,
      "inputs": [],
      "name": "_e_invalid_proof_register",
      "type": "event"
    },
    {
      "anonymous": false,
      "inputs": [
        {
          "indexed": false,
          "internalType": "bytes32",
          "name": "root",
          "type": "bytes32"
        }
      ],
      "name": "_e_process_deposit_existence",
      "type": "event"
    },
    {
      "anonymous": false,
      "inputs": [
        {
          "indexed": false,
          "internalType": "bytes32",
          "name": "root",
          "type": "bytes32"
        }
      ],
      "name": "_e_process_deposit_register",
      "type": "event"
    },
    {
      "anonymous": false,
      "inputs": [
        {
          "indexed": false,
          "internalType": "address",
          "name": "_from",
          "type": "address"
        },
        {
          "indexed": false,
          "internalType": "address",
          "name": "_to",
          "type": "address"
        },
        {
          "indexed": false,
          "internalType": "uint256",
          "name": "_amount",
          "type": "uint256"
        }
      ],
      "name": "_e_transfer",
      "type": "event"
    },
    {
      "anonymous": false,
      "inputs": [],
      "name": "_e_valid_proof_existence",
      "type": "event"
    },
    {
      "anonymous": false,
      "inputs": [],
      "name": "_e_valid_proof_register",
      "type": "event"
    },
    {
      "anonymous": false,
      "inputs": [],
      "name": "_e_withdraw",
      "type": "event"
    },
    {
      "inputs": [],
      "name": "_process_deposit_register",
      "outputs": [],
      "stateMutability": "nonpayable",
      "type": "function"
    },
    {
      "inputs": [],
      "name": "_process_deposit_existence",
      "outputs": [],
      "stateMutability": "nonpayable",
      "type": "function"
    },
    {
      "inputs": [],
      "name": "_get_deposit_register_root",
      "outputs": [],
      "stateMutability": "nonpayable",
      "type": "function"
    },
    {
      "inputs": [],
      "name": "_get_deposit_existence_root",
      "outputs": [],
      "stateMutability": "nonpayable",
      "type": "function"
    },
    {
      "inputs": [
        {
          "internalType": "bytes32[]",
          "name": "DR_Proofs",
          "type": "bytes32[]"
        },
        {
          "internalType": "int32[]",
          "name": "DR_Path",
          "type": "int32[]"
        },
        {
          "internalType": "bytes32",
          "name": "DR_intermediate_acc_root",
          "type": "bytes32"
        }
      ],
      "name": "_verify_process_deposit_register",
      "outputs": [],
      "stateMutability": "nonpayable",
      "type": "function"
    },
    {
      "inputs": [
        {
          "internalType": "address[]",
          "name": "from",
          "type": "address[]"
        },
        {
          "internalType": "address[]",
          "name": "to",
          "type": "address[]"
        },
        {
          "internalType": "uint256[]",
          "name": "current_balance",
          "type": "uint256[]"
        },
        {
          "internalType": "uint256[]",
          "name": "deposit_amount",
          "type": "uint256[]"
        },
        {
          "internalType": "bytes32[][]",
          "name": "DE_Proofs_TX",
          "type": "bytes32[][]"
        },
        {
          "internalType": "int32[][]",
          "name": "DE_Path_TX",
          "type": "int32[][]"
        },
        {
          "internalType": "bytes32[][]",
          "name": "DE_Proofs",
          "type": "bytes32[][]"
        },
        {
          "internalType": "int32[][]",
          "name": "DE_Path",
          "type": "int32[][]"
        },
        {
          "internalType": "bytes32[]",
          "name": "DE_intermediate_acc_root",
          "type": "bytes32[]"
        }
      ],
      "name": "_verify_process_deposit_existence",
      "outputs": [],
      "stateMutability": "nonpayable",
      "type": "function"
    },
    {
      "inputs": [
        {
          "internalType": "address",
          "name": "layer2_address",
          "type": "address"
        },
        {
          "internalType": "uint256",
          "name": "amount",
          "type": "uint256"
        }
      ],
      "name": "_deposit",
      "outputs": [],
      "stateMutability": "payable",
      "type": "function",
      "payable": true
    },
    {
      "inputs": [],
      "name": "_transfer",
      "outputs": [],
      "stateMutability": "nonpayable",
      "type": "function"
    },
    {
      "inputs": [],
      "name": "_withdraw",
      "outputs": [],
      "stateMutability": "nonpayable",
      "type": "function"
    }
  ],
  "bytecode": "0x60806040526040518061014001604052807f3cac317908c699fe873a7f6ee4e8cd63fbe9918b2315c97be91585590168e30160001b81526020017fd6a4144868703d1474cd7c5b4b1697b412eece270b7a4428b750c7458f73d16360001b81526020017f70620458a6db5a8631a8cdc160462b1c0c2535bc813757ffc9374638c3999b0a60001b81526020017fba78901e710fee2f40d93e4a43888f008ce586f8ac2f6c493110334e925bab3d60001b81526020017fb3071dfe86f33fe4b792b764c02bf1846e60309294bbc955eecec20de535e79b60001b81526020017fd5f4d4f3a12a96670788488191268eba24edef266e8daf351cc58de6ba070cc860001b81526020017f4383b8a05505a19df40ad49486feca659270f2e61b8cea10def78ca226f4fa6b60001b81526020017f2235dd0e52d5fd51624a4297f90019372475057a149fcf333478b639c6c6a70160001b81526020017f3f196d31b8b97caa45a187e1ecfb14eb76468fb95cee57b1862213861a59337760001b81526020017f9d952dab4bf3d73556437c642f74335230419daf1d9f88bb6096e1a8a027bf4160001b815250600090600a620001ba929190620001fc565b506000600c556000600e556003600f556000600f54600a8110620001e357620001e262000260565b5b0154601055348015620001f557600080fd5b506200028f565b82600a81019282156200022e579160200282015b828111156200022d57825182559160200191906001019062000210565b5b5090506200023d919062000241565b5090565b5b808211156200025c57600081600090555060010162000242565b5090565b7f4e487b7100000000000000000000000000000000000000000000000000000000600052603260045260246000fd5b611a5a806200029f6000396000f3fe6080604052600436106100865760003560e01c8063bdcdaa0b11610059578063bdcdaa0b146100fe578063c10eb14d14610115578063ca9e19931461012c578063e15545e414610143578063f280b4041461015a57610086565b806315f153381461008b5780634c34f2cb146100a257806361b3b73e146100b95780636da1339c146100e2575b600080fd5b34801561009757600080fd5b506100a0610183565b005b3480156100ae57600080fd5b506100b76101db565b005b3480156100c557600080fd5b506100e060048036038101906100db919061141d565b61028f565b005b6100fc60048036038101906100f791906115e3565b6106cd565b005b34801561010a57600080fd5b50610113610797565b005b34801561012157600080fd5b5061012a61084b565b005b34801561013857600080fd5b50610141610879565b005b34801561014f57600080fd5b5061015861087b565b005b34801561016657600080fd5b50610181600480360381019061017c9190611623565b6108d3565b005b7fd58c1ccc371dd5bbb84a67781a98176032d05c095dd78d06a8d56476a8ca20f7600d6000815481106101b9576101b86116ae565b5b90600052602060002001546040516101d191906116ec565b60405180910390a1565b6000600e5414610240577f07594c53251eed301a88d39b4099c809ff427b3ed2f5831374da88e3324469e6600d60008154811061021b5761021a6116ae565b5b906000526020600020015460405161023391906116ec565b60405180910390a161028d565b7f07594c53251eed301a88d39b4099c809ff427b3ed2f5831374da88e3324469e6600080600a8110610275576102746116ae565b5b015460405161028491906116ec565b60405180910390a15b565b6000601054905060005b86518110156106935760008782815181106102b7576102b66116ae565b5b60200260200101515114801561036357508a81815181106102db576102da6116ae565b5b60200260200101518a82815181106102f6576102f56116ae565b5b6020026020010151898381518110610311576103106116ae565b5b602002602001015160405160200161032b93929190611770565b60405160208183030381529060405280519060200120600d600081548110610356576103556116ae565b5b9060005260206000200154145b806104695750600087828151811061037e5761037d6116ae565b5b6020026020010151511415801561046857506104678b82815181106103a6576103a56116ae565b5b60200260200101518b83815181106103c1576103c06116ae565b5b60200260200101518a84815181106103dc576103db6116ae565b5b60200260200101516040516020016103f693929190611770565b6040516020818303038152906040528051906020012088838151811061041f5761041e6116ae565b5b602002602001015188848151811061043a576104396116ae565b5b6020026020010151600d600081548110610457576104566116ae565b5b90600052602060002001546109a2565b5b5b801561052957506105288b8281518110610486576104856116ae565b5b60200260200101518b83815181106104a1576104a06116ae565b5b60200260200101518b84815181106104bc576104bb6116ae565b5b60200260200101516040516020016104d693929190611770565b604051602081830303815290604052805190602001208683815181106104ff576104fe6116ae565b5b602002602001015186848151811061051a576105196116ae565b5b6020026020010151856109a2565b5b801561062857506106278b8281518110610546576105456116ae565b5b60200260200101518b8381518110610561576105606116ae565b5b60200260200101518b848151811061057c5761057b6116ae565b5b60200260200101518b8581518110610597576105966116ae565b5b60200260200101516105a991906117dc565b6040516020016105bb93929190611770565b604051602081830303815290604052805190602001208683815181106105e4576105e36116ae565b5b60200260200101518684815181106105ff576105fe6116ae565b5b602002602001015186858151811061061a576106196116ae565b5b60200260200101516109a2565b5b1561064f578281815181106106405761063f6116ae565b5b60200260200101519150610682565b7fdf74dd05cb931e8911aa51449cd90b9ed1043ec80079b31ad1bb27dfe9ac7bd860405160405180910390a150506106c2565b8061068c90611810565b9050610299565b507f6519f0a188200bdc900e9e51e4444ca29e89556b72313bb6ad06a30d64ee979f60405160405180910390a1505b505050505050505050565b600a60008373ffffffffffffffffffffffffffffffffffffffff1673ffffffffffffffffffffffffffffffffffffffff16815260200190815260200160002060009054906101000a900460ff161561072f5761072a338383610a95565b610793565b6001600a60008473ffffffffffffffffffffffffffffffffffffffff1673ffffffffffffffffffffffffffffffffffffffff16815260200190815260200160002060006101000a81548160ff021916908315150217905550610792338383610bfd565b5b5050565b6000600c54146107fc577f1baf45bd9517c0a3ddbcf3f78b4df0f22efc96db9add508b3822318166a8b1fc600b6000815481106107d7576107d66116ae565b5b90600052602060002001546040516107ef91906116ec565b60405180910390a1610849565b7f1baf45bd9517c0a3ddbcf3f78b4df0f22efc96db9add508b3822318166a8b1fc600080600a8110610831576108306116ae565b5b015460405161084091906116ec565b60405180910390a15b565b7fd5542f730a37533c5de3502ac66ec84a5cfbd6b09019c2a4d949ceb39fa081df60405160405180910390a1565b565b7fe00b941c20c4a65e5e5d7466063a377367517fc1622e2d6f4bba2f7e875b87ee600b6000815481106108b1576108b06116ae565b5b90600052602060002001546040516108c991906116ec565b60405180910390a1565b61090060006108e3600c54610d65565b600a81106108f4576108f36116ae565b5b015484846010546109a2565b80156109335750610932600b60008154811061091f5761091e6116ae565b5b90600052602060002001548484846109a2565b5b1561097057806010819055507ffa2eb09c8b0d61c80e8ba0a6789acb48bc9c72e5a5f71da9a0b3c8cb147c5da460405160405180910390a161099d565b7f0e95a41a1cee9f1f3b72ecb4601a732d29b387e8f1bec5c06a4e7799714a68c160405160405180910390a15b505050565b60008085905060005b84518160ff161015610a86576000858260ff16815181106109cf576109ce6116ae565b5b602002602001015160030b03610a2c5781868260ff16815181106109f6576109f56116ae565b5b6020026020010151604051602001610a0f929190611879565b604051602081830303815290604052805190602001209150610a75565b858160ff1681518110610a4257610a416116ae565b5b602002602001015182604051602001610a5c929190611879565b6040516020818303038152906040528051906020012091505b80610a7f906118b2565b90506109ab565b50828114915050949350505050565b7f80a525842e1d01e57f9a343b2f0038923c31f54c61c6bf032d8bcbc8674a4f9c838383604051610ac8939291906118f9565b60405180910390a1600e60008154610adf90611810565b919050819055506000600e5490506000848484604051602001610b0493929190611770565b60405160208183030381529060405280519060200120905060005b6000600284610b2e919061195f565b03610bcc57600283610b409190611990565b9250600d6001600d80549050610b5691906119c1565b81548110610b6757610b666116ae565b5b90600052602060002001549050600d805480610b8657610b856119f5565b5b600190038181906000526020600020016000905590558082604051602001610baf929190611879565b604051602081830303815290604052805190602001209150610b1f565b600d829080600181540180825580915050600190039060005260206000200160009091909190915055505050505050565b7f8d724741b8f05c839dbfcd51d541b3fe27cfdca2e6db569d86498bb303f0db6a838383604051610c30939291906118f9565b60405180910390a1600c60008154610c4790611810565b919050819055506000600c5490506000848484604051602001610c6c93929190611770565b60405160208183030381529060405280519060200120905060005b6000600284610c96919061195f565b03610d3457600283610ca89190611990565b9250600b6001600b80549050610cbe91906119c1565b81548110610ccf57610cce6116ae565b5b90600052602060002001549050600b805480610cee57610ced6119f5565b5b600190038181906000526020600020016000905590558082604051602001610d17929190611879565b604051602081830303815290604052805190602001209150610c87565b600b829080600181540180825580915050600190039060005260206000200160009091909190915055505050505050565b600080600090505b6001831115610d9957600283610d839190611990565b9250600181610d9291906117dc565b9050610d6d565b80915050919050565b6000604051905090565b600080fd5b600080fd5b600080fd5b6000601f19601f8301169050919050565b7f4e487b7100000000000000000000000000000000000000000000000000000000600052604160045260246000fd5b610e0482610dbb565b810181811067ffffffffffffffff82111715610e2357610e22610dcc565b5b80604052505050565b6000610e36610da2565b9050610e428282610dfb565b919050565b600067ffffffffffffffff821115610e6257610e61610dcc565b5b602082029050602081019050919050565b600080fd5b600073ffffffffffffffffffffffffffffffffffffffff82169050919050565b6000610ea382610e78565b9050919050565b610eb381610e98565b8114610ebe57600080fd5b50565b600081359050610ed081610eaa565b92915050565b6000610ee9610ee484610e47565b610e2c565b90508083825260208201905060208402830185811115610f0c57610f0b610e73565b5b835b81811015610f355780610f218882610ec1565b845260208401935050602081019050610f0e565b5050509392505050565b600082601f830112610f5457610f53610db6565b5b8135610f64848260208601610ed6565b91505092915050565b600067ffffffffffffffff821115610f8857610f87610dcc565b5b602082029050602081019050919050565b6000819050919050565b610fac81610f99565b8114610fb757600080fd5b50565b600081359050610fc981610fa3565b92915050565b6000610fe2610fdd84610f6d565b610e2c565b9050808382526020820190506020840283018581111561100557611004610e73565b5b835b8181101561102e578061101a8882610fba565b845260208401935050602081019050611007565b5050509392505050565b600082601f83011261104d5761104c610db6565b5b813561105d848260208601610fcf565b91505092915050565b600067ffffffffffffffff82111561108157611080610dcc565b5b602082029050602081019050919050565b600067ffffffffffffffff8211156110ad576110ac610dcc565b5b602082029050602081019050919050565b6000819050919050565b6110d1816110be565b81146110dc57600080fd5b50565b6000813590506110ee816110c8565b92915050565b600061110761110284611092565b610e2c565b9050808382526020820190506020840283018581111561112a57611129610e73565b5b835b81811015611153578061113f88826110df565b84526020840193505060208101905061112c565b5050509392505050565b600082601f83011261117257611171610db6565b5b81356111828482602086016110f4565b91505092915050565b600061119e61119984611066565b610e2c565b905080838252602082019050602084028301858111156111c1576111c0610e73565b5b835b8181101561120857803567ffffffffffffffff8111156111e6576111e5610db6565b5b8086016111f3898261115d565b855260208501945050506020810190506111c3565b5050509392505050565b600082601f83011261122757611226610db6565b5b813561123784826020860161118b565b91505092915050565b600067ffffffffffffffff82111561125b5761125a610dcc565b5b602082029050602081019050919050565b600067ffffffffffffffff82111561128757611286610dcc565b5b602082029050602081019050919050565b60008160030b9050919050565b6112ae81611298565b81146112b957600080fd5b50565b6000813590506112cb816112a5565b92915050565b60006112e46112df8461126c565b610e2c565b9050808382526020820190506020840283018581111561130757611306610e73565b5b835b81811015611330578061131c88826112bc565b845260208401935050602081019050611309565b5050509392505050565b600082601f83011261134f5761134e610db6565b5b813561135f8482602086016112d1565b91505092915050565b600061137b61137684611240565b610e2c565b9050808382526020820190506020840283018581111561139e5761139d610e73565b5b835b818110156113e557803567ffffffffffffffff8111156113c3576113c2610db6565b5b8086016113d0898261133a565b855260208501945050506020810190506113a0565b5050509392505050565b600082601f83011261140457611403610db6565b5b8135611414848260208601611368565b91505092915050565b60008060008060008060008060006101208a8c0312156114405761143f610dac565b5b60008a013567ffffffffffffffff81111561145e5761145d610db1565b5b61146a8c828d01610f3f565b99505060208a013567ffffffffffffffff81111561148b5761148a610db1565b5b6114978c828d01610f3f565b98505060408a013567ffffffffffffffff8111156114b8576114b7610db1565b5b6114c48c828d01611038565b97505060608a013567ffffffffffffffff8111156114e5576114e4610db1565b5b6114f18c828d01611038565b96505060808a013567ffffffffffffffff81111561151257611511610db1565b5b61151e8c828d01611212565b95505060a08a013567ffffffffffffffff81111561153f5761153e610db1565b5b61154b8c828d016113ef565b94505060c08a013567ffffffffffffffff81111561156c5761156b610db1565b5b6115788c828d01611212565b93505060e08a013567ffffffffffffffff81111561159957611598610db1565b5b6115a58c828d016113ef565b9250506101008a013567ffffffffffffffff8111156115c7576115c6610db1565b5b6115d38c828d0161115d565b9150509295985092959850929598565b600080604083850312156115fa576115f9610dac565b5b600061160885828601610ec1565b925050602061161985828601610fba565b9150509250929050565b60008060006060848603121561163c5761163b610dac565b5b600084013567ffffffffffffffff81111561165a57611659610db1565b5b6116668682870161115d565b935050602084013567ffffffffffffffff81111561168757611686610db1565b5b6116938682870161133a565b92505060406116a4868287016110df565b9150509250925092565b7f4e487b7100000000000000000000000000000000000000000000000000000000600052603260045260246000fd5b6116e6816110be565b82525050565b600060208201905061170160008301846116dd565b92915050565b60008160601b9050919050565b600061171f82611707565b9050919050565b600061173182611714565b9050919050565b61174961174482610e98565b611726565b82525050565b6000819050919050565b61176a61176582610f99565b61174f565b82525050565b600061177c8286611738565b60148201915061178c8285611738565b60148201915061179c8284611759565b602082019150819050949350505050565b7f4e487b7100000000000000000000000000000000000000000000000000000000600052601160045260246000fd5b60006117e782610f99565b91506117f283610f99565b925082820190508082111561180a576118096117ad565b5b92915050565b600061181b82610f99565b91507fffffffffffffffffffffffffffffffffffffffffffffffffffffffffffffffff820361184d5761184c6117ad565b5b600182019050919050565b6000819050919050565b61187361186e826110be565b611858565b82525050565b60006118858285611862565b6020820191506118958284611862565b6020820191508190509392505050565b600060ff82169050919050565b60006118bd826118a5565b915060ff82036118d0576118cf6117ad565b5b600182019050919050565b6118e481610e98565b82525050565b6118f381610f99565b82525050565b600060608201905061190e60008301866118db565b61191b60208301856118db565b61192860408301846118ea565b949350505050565b7f4e487b7100000000000000000000000000000000000000000000000000000000600052601260045260246000fd5b600061196a82610f99565b915061197583610f99565b92508261198557611984611930565b5b828206905092915050565b600061199b82610f99565b91506119a683610f99565b9250826119b6576119b5611930565b5b828204905092915050565b60006119cc82610f99565b91506119d783610f99565b92508282039050818111156119ef576119ee6117ad565b5b92915050565b7f4e487b7100000000000000000000000000000000000000000000000000000000600052603160045260246000fdfea264697066735822122086a301d01b47673feecc99f6b40d5c01acc93d24c4fd91fd70113c08f9d3f9ba64736f6c63430008130033",
  "immutableReferences": {},
  "source": "pragma solidity >=0.7.0 <0.9.0;\r\n\r\ncontract Middleware {\r\n    /* DATA STRUCURE SECTION */\r\n    bytes32[10] hash0 = [\r\n        bytes32(\r\n            0x3cac317908c699fe873a7f6ee4e8cd63fbe9918b2315c97be91585590168e301\r\n        ),\r\n        bytes32(\r\n            0xd6a4144868703d1474cd7c5b4b1697b412eece270b7a4428b750c7458f73d163\r\n        ),\r\n        bytes32(\r\n            0x70620458a6db5a8631a8cdc160462b1c0c2535bc813757ffc9374638c3999b0a\r\n        ),\r\n        bytes32(\r\n            0xba78901e710fee2f40d93e4a43888f008ce586f8ac2f6c493110334e925bab3d\r\n        ),\r\n        bytes32(\r\n            0xb3071dfe86f33fe4b792b764c02bf1846e60309294bbc955eecec20de535e79b\r\n        ),\r\n        bytes32(\r\n            0xd5f4d4f3a12a96670788488191268eba24edef266e8daf351cc58de6ba070cc8\r\n        ),\r\n        bytes32(\r\n            0x4383b8a05505a19df40ad49486feca659270f2e61b8cea10def78ca226f4fa6b\r\n        ),\r\n        bytes32(\r\n            0x2235dd0e52d5fd51624a4297f90019372475057a149fcf333478b639c6c6a701\r\n        ),\r\n        bytes32(\r\n            0x3f196d31b8b97caa45a187e1ecfb14eb76468fb95cee57b1862213861a593377\r\n        ),\r\n        bytes32(\r\n            0x9d952dab4bf3d73556437c642f74335230419daf1d9f88bb6096e1a8a027bf41\r\n        )\r\n    ];\r\n    mapping(address => bool) exists;\r\n    bytes32[] deposit_register_root;\r\n    uint deposit_register_count = 0;\r\n    bytes32[] deposit_existence_root;\r\n    uint deposit_existence_count = 0;\r\n    uint height_acc_tree = 3;\r\n    bytes32 account_root = hash0[height_acc_tree];\r\n\r\n    // EVENTS\r\n    event _e_deposit_register(address _from, address _to, uint _amount);\r\n    event _e_deposit_existence(address _from, address _to, uint _amount);\r\n    event _e_process_deposit_register(bytes32 root);\r\n    event _e_process_deposit_existence(bytes32 root);\r\n    event _e_transfer(address _from, address _to, uint _amount);\r\n    event _e_withdraw();\r\n    event _e_valid_proof_register();\r\n    event _e_invalid_proof_register();\r\n    event _e_valid_proof_existence();\r\n    event _e_invalid_proof_existence();\r\n    event _e_get_deposit_register_root(bytes32 value);\r\n    event _e_get_deposit_existence_root(bytes32 value);\r\n\r\n    /* END-DATA STRUCURE SECTION */\r\n\r\n    function _process_deposit_register() public {\r\n        emit _e_process_deposit_register(deposit_register_root[0]);\r\n    }\r\n\r\n    function _process_deposit_existence() public {\r\n        emit _e_process_deposit_existence(deposit_existence_root[0]);\r\n    }\r\n\r\n    function _get_deposit_register_root() public {\r\n        if (deposit_register_count != 0)\r\n            emit _e_get_deposit_register_root(deposit_register_root[0]);\r\n        else emit _e_get_deposit_register_root(hash0[0]);\r\n    }\r\n\r\n    function _get_deposit_existence_root() public {\r\n        if (deposit_existence_count != 0)\r\n            emit _e_get_deposit_existence_root(deposit_existence_root[0]);\r\n        else emit _e_get_deposit_existence_root(hash0[0]);\r\n    }\r\n\r\n    function __log2(uint i) private pure returns (uint) {\r\n        uint res = 0;\r\n        while (i > 1) {\r\n            i /= 2;\r\n            res += 1;\r\n        }\r\n        return res;\r\n    }\r\n\r\n    function __is_valid_merkle_proof(\r\n        bytes32 node,\r\n        bytes32[] memory proofs,\r\n        int32[] memory path,\r\n        bytes32 root\r\n    ) private pure returns (bool) {\r\n        bytes32 _root = node;\r\n        for (uint8 i = 0; i < path.length; ++i) {\r\n            if (path[i] == 0)\r\n                _root = keccak256(abi.encodePacked(_root, proofs[i]));\r\n            else _root = keccak256(abi.encodePacked(proofs[i], _root));\r\n        }\r\n        return (_root == root);\r\n    }\r\n\r\n    function _verify_process_deposit_register(\r\n        bytes32[] memory DR_Proofs,\r\n        int32[] memory DR_Path,\r\n        bytes32 DR_intermediate_acc_root\r\n    ) public {\r\n        if (\r\n            __is_valid_merkle_proof(\r\n                hash0[__log2(deposit_register_count)],\r\n                DR_Proofs,\r\n                DR_Path,\r\n                account_root\r\n            ) &&\r\n            __is_valid_merkle_proof(\r\n                deposit_register_root[0],\r\n                DR_Proofs,\r\n                DR_Path,\r\n                DR_intermediate_acc_root\r\n            )\r\n        ) {\r\n            account_root = DR_intermediate_acc_root;\r\n            emit _e_valid_proof_register();\r\n        } else emit _e_invalid_proof_register();\r\n    }\r\n\r\n    // DR: Deposit Register\r\n    // DE: Deposit Existence\r\n    function _verify_process_deposit_existence(\r\n        address[] memory from,\r\n        address[] memory to,\r\n        uint[] memory current_balance,\r\n        uint[] memory deposit_amount,\r\n        bytes32[][] memory DE_Proofs_TX,\r\n        int32[][] memory DE_Path_TX,\r\n        bytes32[][] memory DE_Proofs,\r\n        int32[][] memory DE_Path,\r\n        bytes32[] memory DE_intermediate_acc_root\r\n    ) public {\r\n        bytes32 intermediate_acc_root = account_root;\r\n        for (uint i = 0; i < DE_Proofs_TX.length; ++i) {\r\n            if (\r\n                (((DE_Proofs_TX[i].length == 0) &&\r\n                    (deposit_existence_root[0] ==\r\n                        keccak256(\r\n                            abi.encodePacked(from[i], to[i], deposit_amount[i])\r\n                        ))) ||\r\n                    ((DE_Proofs_TX[i].length != 0) &&\r\n                        __is_valid_merkle_proof(\r\n                            keccak256(\r\n                                abi.encodePacked(\r\n                                    from[i],\r\n                                    to[i],\r\n                                    deposit_amount[i]\r\n                                )\r\n                            ),\r\n                            DE_Proofs_TX[i],\r\n                            DE_Path_TX[i],\r\n                            deposit_existence_root[0]\r\n                        ))) &&\r\n                __is_valid_merkle_proof(\r\n                    keccak256(\r\n                        abi.encodePacked(from[i], to[i], current_balance[i])\r\n                    ),\r\n                    DE_Proofs[i],\r\n                    DE_Path[i],\r\n                    intermediate_acc_root\r\n                ) &&\r\n                __is_valid_merkle_proof(\r\n                    keccak256(\r\n                        abi.encodePacked(\r\n                            from[i],\r\n                            to[i],\r\n                            uint(deposit_amount[i] + current_balance[i])\r\n                        )\r\n                    ),\r\n                    DE_Proofs[i],\r\n                    DE_Path[i],\r\n                    DE_intermediate_acc_root[i]\r\n                )\r\n            ) {\r\n                intermediate_acc_root = DE_intermediate_acc_root[i];\r\n            } else {\r\n                emit _e_invalid_proof_existence();\r\n                return;\r\n            }\r\n        }\r\n        emit _e_valid_proof_existence();\r\n    }\r\n\r\n    function _deposit(address layer2_address, uint amount) public payable {\r\n        if (exists[layer2_address]) {\r\n            _deposit_existence(msg.sender, layer2_address, amount);\r\n        } else {\r\n            exists[layer2_address] = true;\r\n            _deposit_register(msg.sender, layer2_address, amount);\r\n        }\r\n    }\r\n\r\n    function _deposit_register(\r\n        address l1_addr,\r\n        address l2_addr,\r\n        uint amount\r\n    ) private {\r\n        emit _e_deposit_register(l1_addr, l2_addr, amount);\r\n        ++deposit_register_count;\r\n\r\n        uint cnt = deposit_register_count;\r\n        bytes32 tmp = keccak256(abi.encodePacked(l1_addr, l2_addr, amount));\r\n        bytes32 tmp2;\r\n\r\n        while (cnt % 2 == 0) {\r\n            cnt /= 2;\r\n            tmp2 = deposit_register_root[deposit_register_root.length - 1];\r\n            deposit_register_root.pop();\r\n            tmp = keccak256(abi.encodePacked(tmp2, tmp));\r\n        }\r\n        deposit_register_root.push(tmp);\r\n    }\r\n\r\n    function _deposit_existence(\r\n        address l1_addr,\r\n        address l2_addr,\r\n        uint amount\r\n    ) private {\r\n        emit _e_deposit_existence(l1_addr, l2_addr, amount);\r\n        ++deposit_existence_count;\r\n\r\n        uint cnt = deposit_existence_count;\r\n        bytes32 tmp = keccak256(abi.encodePacked(l1_addr, l2_addr, amount));\r\n        bytes32 tmp2;\r\n\r\n        while (cnt % 2 == 0) {\r\n            cnt /= 2;\r\n            tmp2 = deposit_existence_root[deposit_existence_root.length - 1];\r\n            deposit_existence_root.pop();\r\n            tmp = keccak256(abi.encodePacked(tmp2, tmp));\r\n        }\r\n        deposit_existence_root.push(tmp);\r\n    }\r\n\r\n    function _transfer() public {\r\n        // emit _e_transfer();\r\n    }\r\n\r\n    function _withdraw() public {\r\n        emit _e_withdraw();\r\n    }\r\n}\r\n",
  "sourcePath": "C:\\Users\\Public\\code-area\\Solidity\\truffle_project\\contracts\\Middleware.sol",
  "compiler": {
    "name": "solc",
    "version": "0.8.19+commit.7dd6d404.Emscripten.clang"
  },
  "schemaVersion": "3.4.13",
  "updatedAt": "2023-06-18T10:11:36.850Z",
  "networkType": "ethereum",
  "devdoc": {
    "kind": "dev",
    "methods": {},
    "version": 1
  },
  "userdoc": {
    "kind": "user",
    "methods": {},
    "version": 1
  }
}