{
  "contractName": "Middleware",
  "abi": [
    {
      "anonymous": false,
      "inputs": [
        {
          "indexed": false,
          "internalType": "address",
          "name": "_from",
          "type": "address"
        },
        {
          "indexed": false,
          "internalType": "address",
          "name": "_to",
          "type": "address"
        },
        {
          "indexed": false,
          "internalType": "uint256",
          "name": "_amount",
          "type": "uint256"
        }
      ],
      "name": "_e_deposit_existence",
      "type": "event"
    },
    {
      "anonymous": false,
      "inputs": [
        {
          "indexed": false,
          "internalType": "address",
          "name": "_from",
          "type": "address"
        },
        {
          "indexed": false,
          "internalType": "address",
          "name": "_to",
          "type": "address"
        },
        {
          "indexed": false,
          "internalType": "uint256",
          "name": "_amount",
          "type": "uint256"
        }
      ],
      "name": "_e_deposit_register",
      "type": "event"
    },
    {
      "anonymous": false,
      "inputs": [
        {
          "indexed": false,
          "internalType": "bytes32",
          "name": "deposit_register_root",
          "type": "bytes32"
        },
        {
          "indexed": false,
          "internalType": "bytes32",
          "name": "deposit_existence_root",
          "type": "bytes32"
        }
      ],
      "name": "_e_process_deposit",
      "type": "event"
    },
    {
      "anonymous": false,
      "inputs": [
        {
          "indexed": false,
          "internalType": "bytes32",
          "name": "_value",
          "type": "bytes32"
        }
      ],
      "name": "_e_tracking",
      "type": "event"
    },
    {
      "anonymous": false,
      "inputs": [
        {
          "indexed": false,
          "internalType": "address",
          "name": "_from",
          "type": "address"
        },
        {
          "indexed": false,
          "internalType": "address",
          "name": "_to",
          "type": "address"
        },
        {
          "indexed": false,
          "internalType": "uint256",
          "name": "_amount",
          "type": "uint256"
        }
      ],
      "name": "_e_transfer",
      "type": "event"
    },
    {
      "anonymous": false,
      "inputs": [],
      "name": "_e_valid_proof",
      "type": "event"
    },
    {
      "anonymous": false,
      "inputs": [],
      "name": "_e_withdraw",
      "type": "event"
    },
    {
      "inputs": [
        {
          "internalType": "uint256",
          "name": "",
          "type": "uint256"
        }
      ],
      "name": "deposit_register_root",
      "outputs": [
        {
          "internalType": "bytes32",
          "name": "",
          "type": "bytes32"
        }
      ],
      "stateMutability": "view",
      "type": "function",
      "constant": true
    },
    {
      "inputs": [
        {
          "internalType": "bytes32",
          "name": "v1",
          "type": "bytes32"
        },
        {
          "internalType": "bytes32",
          "name": "v2",
          "type": "bytes32"
        }
      ],
      "name": "_demo",
      "outputs": [],
      "stateMutability": "nonpayable",
      "type": "function"
    },
    {
      "inputs": [],
      "name": "_process_deposit",
      "outputs": [],
      "stateMutability": "nonpayable",
      "type": "function"
    },
    {
      "inputs": [
        {
          "internalType": "bytes32[]",
          "name": "proof",
          "type": "bytes32[]"
        },
        {
          "internalType": "uint256",
          "name": "height",
          "type": "uint256"
        }
      ],
      "name": "_verify_deposit_register",
      "outputs": [],
      "stateMutability": "nonpayable",
      "type": "function"
    },
    {
      "inputs": [
        {
          "internalType": "bytes32[]",
          "name": "proof",
          "type": "bytes32[]"
        },
        {
          "internalType": "uint256",
          "name": "height",
          "type": "uint256"
        }
      ],
      "name": "_verify_deposit_existence",
      "outputs": [],
      "stateMutability": "nonpayable",
      "type": "function"
    },
    {
      "inputs": [
        {
          "internalType": "address",
          "name": "layer2_address",
          "type": "address"
        },
        {
          "internalType": "uint256",
          "name": "amount",
          "type": "uint256"
        }
      ],
      "name": "_deposit",
      "outputs": [],
      "stateMutability": "payable",
      "type": "function",
      "payable": true
    },
    {
      "inputs": [],
      "name": "_transfer",
      "outputs": [],
      "stateMutability": "nonpayable",
      "type": "function"
    },
    {
      "inputs": [],
      "name": "_withdraw",
      "outputs": [],
      "stateMutability": "nonpayable",
      "type": "function"
    }
  ],
  "bytecode": "0x60806040526000600255600060045560036006556040518061014001604052807f3cac317908c699fe873a7f6ee4e8cd63fbe9918b2315c97be91585590168e30160001b81526020017fd6a4144868703d1474cd7c5b4b1697b412eece270b7a4428b750c7458f73d16360001b81526020017f70620458a6db5a8631a8cdc160462b1c0c2535bc813757ffc9374638c3999b0a60001b81526020017fba78901e710fee2f40d93e4a43888f008ce586f8ac2f6c493110334e925bab3d60001b81526020017fb3071dfe86f33fe4b792b764c02bf1846e60309294bbc955eecec20de535e79b60001b81526020017fd5f4d4f3a12a96670788488191268eba24edef266e8daf351cc58de6ba070cc860001b81526020017f4383b8a05505a19df40ad49486feca659270f2e61b8cea10def78ca226f4fa6b60001b81526020017f2235dd0e52d5fd51624a4297f90019372475057a149fcf333478b639c6c6a70160001b81526020017f3f196d31b8b97caa45a187e1ecfb14eb76468fb95cee57b1862213861a59337760001b81526020017f9d952dab4bf3d73556437c642f74335230419daf1d9f88bb6096e1a8a027bf4160001b815250600790600a6101c79291906101da565b503480156101d457600080fd5b50610237565b82600a8101928215610209579160200282015b828111156102085782518255916020019190600101906101ed565b5b509050610216919061021a565b5090565b5b8082111561023357600081600090555060010161021b565b5090565b610e9d806102466000396000f3fe60806040526004361061007b5760003560e01c8063be5c1c761161004e578063be5c1c7614610119578063c10eb14d14610142578063ca9e199314610159578063d83a18f0146101705761007b565b80636da1339c146100805780637951ad541461009c57806382ce3da4146100b35780638d69ac8e146100f0575b600080fd5b61009a6004803603810190610095919061089a565b610199565b005b3480156100a857600080fd5b506100b1610261565b005b3480156100bf57600080fd5b506100da60048036038101906100d591906108da565b6102da565b6040516100e79190610920565b60405180910390f35b3480156100fc57600080fd5b5061011760048036038101906101129190610967565b6102fe565b005b34801561012557600080fd5b50610140600480360381019061013b9190610b00565b610418565b005b34801561014e57600080fd5b506101576104f0565b005b34801561016557600080fd5b5061016e61051e565b005b34801561017c57600080fd5b5061019760048036038101906101929190610b00565b610520565b005b6000808373ffffffffffffffffffffffffffffffffffffffff1673ffffffffffffffffffffffffffffffffffffffff16815260200190815260200160002060009054906101000a900460ff16156101fa576101f5338383610524565b61025d565b60016000808473ffffffffffffffffffffffffffffffffffffffff1673ffffffffffffffffffffffffffffffffffffffff16815260200190815260200160002060006101000a81548160ff02191690831515021790555061025c33838361068c565b5b5050565b7fa188ab215bf6041a6cc34edd7a1a4f6bc695c9ffc95d462c3c86ffec88e2bcc5600160008154811061029757610296610b5c565b5b906000526020600020015460036000815481106102b7576102b6610b5c565b5b90600052602060002001546040516102d0929190610b8b565b60405180910390a1565b600181815481106102ea57600080fd5b906000526020600020016000915090505481565b7fc6be8b3b99eef266a00e6b8ac1eec538777e578b5c29e5cf23de0dc700a212a78282604051602001610332929190610bd5565b604051602081830303815290604052805190602001206040516103559190610920565b60405180910390a160118290806001815401808255809150506001900390600052602060002001600090919091909150557fc6be8b3b99eef266a00e6b8ac1eec538777e578b5c29e5cf23de0dc700a212a7601160016011805490506103bb9190610c30565b815481106103cc576103cb610b5c565b5b9060005260206000200154826040516020016103e9929190610bd5565b6040516020818303038152906040528051906020012060405161040c9190610920565b60405180910390a15050565b6000600782600a811061042e5761042d610b5c565b5b01549050600082905060005b84518110156104a5578285828151811061045757610456610b5c565b5b6020026020010151604051602001610470929190610bd5565b6040516020818303038152906040528051906020012092508161049290610c64565b91508061049e90610c64565b905061043a565b50600654811480156104b8575060055482145b156104ea577f4b2e923e2135abac6c993892a91a2d7da9f7cf20679e2e646da5518e6ffeb8e760405160405180910390a15b50505050565b7fd5542f730a37533c5de3502ac66ec84a5cfbd6b09019c2a4d949ceb39fa081df60405160405180910390a1565b565b5050565b7f80a525842e1d01e57f9a343b2f0038923c31f54c61c6bf032d8bcbc8674a4f9c83838360405161055793929190610cca565b60405180910390a160046000815461056e90610c64565b9190508190555060006004549050600084848460405160200161059393929190610d6a565b60405160208183030381529060405280519060200120905060005b60006002846105bd9190610dd6565b0361065b576002836105cf9190610e07565b9250600360016003805490506105e59190610c30565b815481106105f6576105f5610b5c565b5b90600052602060002001549050600380548061061557610614610e38565b5b60019003818190600052602060002001600090559055818160405160200161063e929190610bd5565b6040516020818303038152906040528051906020012091506105ae565b6003829080600181540180825580915050600190039060005260206000200160009091909190915055505050505050565b7f8d724741b8f05c839dbfcd51d541b3fe27cfdca2e6db569d86498bb303f0db6a8383836040516106bf93929190610cca565b60405180910390a16002600081546106d690610c64565b919050819055506000600254905060008484846040516020016106fb93929190610d6a565b60405160208183030381529060405280519060200120905060005b60006002846107259190610dd6565b036107c1576002836107379190610e07565b9250600180808054905061074b9190610c30565b8154811061075c5761075b610b5c565b5b90600052602060002001549050600180548061077b5761077a610e38565b5b6001900381819060005260206000200160009055905580826040516020016107a4929190610bd5565b604051602081830303815290604052805190602001209150610716565b6001829080600181540180825580915050600190039060005260206000200160009091909190915055505050505050565b6000604051905090565b600080fd5b600080fd5b600073ffffffffffffffffffffffffffffffffffffffff82169050919050565b600061083182610806565b9050919050565b61084181610826565b811461084c57600080fd5b50565b60008135905061085e81610838565b92915050565b6000819050919050565b61087781610864565b811461088257600080fd5b50565b6000813590506108948161086e565b92915050565b600080604083850312156108b1576108b06107fc565b5b60006108bf8582860161084f565b92505060206108d085828601610885565b9150509250929050565b6000602082840312156108f0576108ef6107fc565b5b60006108fe84828501610885565b91505092915050565b6000819050919050565b61091a81610907565b82525050565b60006020820190506109356000830184610911565b92915050565b61094481610907565b811461094f57600080fd5b50565b6000813590506109618161093b565b92915050565b6000806040838503121561097e5761097d6107fc565b5b600061098c85828601610952565b925050602061099d85828601610952565b9150509250929050565b600080fd5b6000601f19601f8301169050919050565b7f4e487b7100000000000000000000000000000000000000000000000000000000600052604160045260246000fd5b6109f5826109ac565b810181811067ffffffffffffffff82111715610a1457610a136109bd565b5b80604052505050565b6000610a276107f2565b9050610a3382826109ec565b919050565b600067ffffffffffffffff821115610a5357610a526109bd565b5b602082029050602081019050919050565b600080fd5b6000610a7c610a7784610a38565b610a1d565b90508083825260208201905060208402830185811115610a9f57610a9e610a64565b5b835b81811015610ac85780610ab48882610952565b845260208401935050602081019050610aa1565b5050509392505050565b600082601f830112610ae757610ae66109a7565b5b8135610af7848260208601610a69565b91505092915050565b60008060408385031215610b1757610b166107fc565b5b600083013567ffffffffffffffff811115610b3557610b34610801565b5b610b4185828601610ad2565b9250506020610b5285828601610885565b9150509250929050565b7f4e487b7100000000000000000000000000000000000000000000000000000000600052603260045260246000fd5b6000604082019050610ba06000830185610911565b610bad6020830184610911565b9392505050565b6000819050919050565b610bcf610bca82610907565b610bb4565b82525050565b6000610be18285610bbe565b602082019150610bf18284610bbe565b6020820191508190509392505050565b7f4e487b7100000000000000000000000000000000000000000000000000000000600052601160045260246000fd5b6000610c3b82610864565b9150610c4683610864565b9250828203905081811115610c5e57610c5d610c01565b5b92915050565b6000610c6f82610864565b91507fffffffffffffffffffffffffffffffffffffffffffffffffffffffffffffffff8203610ca157610ca0610c01565b5b600182019050919050565b610cb581610826565b82525050565b610cc481610864565b82525050565b6000606082019050610cdf6000830186610cac565b610cec6020830185610cac565b610cf96040830184610cbb565b949350505050565b60008160601b9050919050565b6000610d1982610d01565b9050919050565b6000610d2b82610d0e565b9050919050565b610d43610d3e82610826565b610d20565b82525050565b6000819050919050565b610d64610d5f82610864565b610d49565b82525050565b6000610d768286610d32565b601482019150610d868285610d32565b601482019150610d968284610d53565b602082019150819050949350505050565b7f4e487b7100000000000000000000000000000000000000000000000000000000600052601260045260246000fd5b6000610de182610864565b9150610dec83610864565b925082610dfc57610dfb610da7565b5b828206905092915050565b6000610e1282610864565b9150610e1d83610864565b925082610e2d57610e2c610da7565b5b828204905092915050565b7f4e487b7100000000000000000000000000000000000000000000000000000000600052603160045260246000fdfea2646970667358221220a90d8f89700f760fab6480632780b10a7d5794ba09d722dc50f43a9b4cfcd9a864736f6c63430008130033",
  "immutableReferences": {},
  "source": "pragma solidity >=0.7.0 <0.9.0;\r\n\r\ncontract Middleware {\r\n    mapping(address => bool) exists;\r\n    bytes32[] public deposit_register_root;\r\n    uint deposit_register_count = 0;\r\n    bytes32[] deposit_existence_root;\r\n    uint deposit_existence_count = 0;\r\n    bytes32 account_root;\r\n    uint height_acc_tree = 3;\r\n\r\n    bytes32[10] hash0 = [bytes32(0x3cac317908c699fe873a7f6ee4e8cd63fbe9918b2315c97be91585590168e301),\r\n                        bytes32(0xd6a4144868703d1474cd7c5b4b1697b412eece270b7a4428b750c7458f73d163),\r\n                        bytes32(0x70620458a6db5a8631a8cdc160462b1c0c2535bc813757ffc9374638c3999b0a),\r\n                        bytes32(0xba78901e710fee2f40d93e4a43888f008ce586f8ac2f6c493110334e925bab3d),\r\n                        bytes32(0xb3071dfe86f33fe4b792b764c02bf1846e60309294bbc955eecec20de535e79b),\r\n                        bytes32(0xd5f4d4f3a12a96670788488191268eba24edef266e8daf351cc58de6ba070cc8),\r\n                        bytes32(0x4383b8a05505a19df40ad49486feca659270f2e61b8cea10def78ca226f4fa6b),\r\n                        bytes32(0x2235dd0e52d5fd51624a4297f90019372475057a149fcf333478b639c6c6a701),\r\n                        bytes32(0x3f196d31b8b97caa45a187e1ecfb14eb76468fb95cee57b1862213861a593377),\r\n                        bytes32(0x9d952dab4bf3d73556437c642f74335230419daf1d9f88bb6096e1a8a027bf41)]; \r\n\r\n    event _e_deposit_register(address _from, address _to, uint _amount);\r\n    event _e_deposit_existence(address _from, address _to, uint _amount);\r\n    event _e_process_deposit(bytes32 deposit_register_root, bytes32 deposit_existence_root);\r\n\r\n    event _e_transfer(address _from, address _to, uint _amount);\r\n    event _e_withdraw();\r\n\r\n    event _e_valid_proof();\r\n\r\n    event _e_tracking(bytes32 _value);\r\n\r\n    bytes32[] __demo;\r\n\r\n    function _demo(bytes32 v1, bytes32 v2) public {\r\n        emit _e_tracking(keccak256(abi.encodePacked(v1, v2)));\r\n        __demo.push(v1);\r\n        emit _e_tracking(keccak256(abi.encodePacked(__demo[__demo.length-1],v2)));\r\n    }\r\n\r\n\r\n    function _process_deposit() public {\r\n        emit _e_process_deposit(deposit_register_root[0], deposit_existence_root[0]);\r\n    }\r\n\r\n\r\n    function _verify_deposit_register(bytes32[] memory proof, uint height) public {\r\n        bytes32 val = hash0[height];\r\n        uint _height = height;\r\n        for (uint i = 0; i < proof.length; ++i) {\r\n            val = keccak256(abi.encodePacked(val, proof[i]));\r\n            ++_height;\r\n        }\r\n\r\n        if ((_height == height_acc_tree) && (val == account_root)) {\r\n            emit _e_valid_proof();\r\n        }\r\n    }\r\n\r\n\r\n    function _verify_deposit_existence(bytes32[] memory proof, uint height) public {\r\n        \r\n    }\r\n\r\n\r\n    function _deposit(address layer2_address, uint amount) payable public {\r\n        if (exists[layer2_address]) {\r\n            _deposit_existence(msg.sender, layer2_address, amount);\r\n        }\r\n        else {\r\n            exists[layer2_address] = true;\r\n            _deposit_register(msg.sender, layer2_address, amount);\r\n        }\r\n    }\r\n\r\n\r\n    function _deposit_register(address l1_addr, address l2_addr, uint amount) private {\r\n        emit _e_deposit_register(l1_addr, l2_addr, amount);\r\n        ++deposit_register_count;\r\n\r\n        uint cnt = deposit_register_count;\r\n        bytes32 tmp = keccak256(abi.encodePacked(l1_addr, l2_addr, amount));\r\n        bytes32 tmp2;\r\n\r\n        while (cnt % 2 == 0)\r\n        {\r\n            cnt /= 2;\r\n            tmp2 = deposit_register_root[deposit_register_root.length-1];\r\n            deposit_register_root.pop();\r\n            tmp = keccak256(abi.encodePacked(tmp2, tmp));\r\n        }\r\n        deposit_register_root.push(tmp);\r\n    }\r\n\r\n\r\n    function _deposit_existence(address l1_addr, address l2_addr, uint amount) private {\r\n        emit _e_deposit_existence(l1_addr, l2_addr, amount);\r\n        ++deposit_existence_count;\r\n\r\n        uint cnt = deposit_existence_count;\r\n        bytes32 tmp = keccak256(abi.encodePacked(l1_addr, l2_addr, amount));\r\n        bytes32 tmp2;\r\n\r\n        while (cnt % 2 == 0) {\r\n            cnt /= 2;\r\n            tmp2 = deposit_existence_root[deposit_existence_root.length-1];\r\n            deposit_existence_root.pop();\r\n            tmp = keccak256(abi.encodePacked(tmp, tmp2));\r\n        }\r\n        deposit_existence_root.push(tmp);\r\n    }\r\n\r\n\r\n    function _transfer() public {\r\n        // emit _e_transfer();\r\n    }\r\n\r\n\r\n    function _withdraw() public {\r\n        emit _e_withdraw();\r\n    }\r\n}",
  "sourcePath": "C:\\Users\\Public\\code-area\\Solidity\\src\\truffle_project\\contracts\\Middleware.sol",
  "compiler": {
    "name": "solc",
    "version": "0.8.19+commit.7dd6d404.Emscripten.clang"
  },
  "schemaVersion": "3.4.13",
  "updatedAt": "2023-05-03T05:13:34.157Z",
  "networkType": "ethereum",
  "devdoc": {
    "kind": "dev",
    "methods": {},
    "version": 1
  },
  "userdoc": {
    "kind": "user",
    "methods": {},
    "version": 1
  }
}