{
  "contractName": "Middleware",
  "abi": [
    {
      "anonymous": false,
      "inputs": [
        {
          "indexed": false,
          "internalType": "address",
          "name": "_from",
          "type": "address"
        },
        {
          "indexed": false,
          "internalType": "address",
          "name": "_to",
          "type": "address"
        },
        {
          "indexed": false,
          "internalType": "uint256",
          "name": "amount",
          "type": "uint256"
        }
      ],
      "name": "_e_deposit_existence",
      "type": "event"
    },
    {
      "anonymous": false,
      "inputs": [
        {
          "indexed": false,
          "internalType": "address",
          "name": "_from",
          "type": "address"
        },
        {
          "indexed": false,
          "internalType": "address",
          "name": "_to",
          "type": "address"
        },
        {
          "indexed": false,
          "internalType": "uint256",
          "name": "amount",
          "type": "uint256"
        }
      ],
      "name": "_e_deposit_register",
      "type": "event"
    },
    {
      "anonymous": false,
      "inputs": [
        {
          "indexed": false,
          "internalType": "address",
          "name": "_from",
          "type": "address"
        },
        {
          "indexed": false,
          "internalType": "address",
          "name": "_to",
          "type": "address"
        },
        {
          "indexed": false,
          "internalType": "uint256",
          "name": "amount",
          "type": "uint256"
        }
      ],
      "name": "_e_transfer",
      "type": "event"
    },
    {
      "anonymous": false,
      "inputs": [],
      "name": "_e_withdraw",
      "type": "event"
    },
    {
      "inputs": [],
      "name": "_demo",
      "outputs": [
        {
          "internalType": "uint256",
          "name": "",
          "type": "uint256"
        }
      ],
      "stateMutability": "pure",
      "type": "function",
      "constant": true
    },
    {
      "inputs": [
        {
          "internalType": "address",
          "name": "layer2_address",
          "type": "address"
        },
        {
          "internalType": "uint256",
          "name": "amount",
          "type": "uint256"
        }
      ],
      "name": "_deposit",
      "outputs": [
        {
          "internalType": "uint256",
          "name": "",
          "type": "uint256"
        }
      ],
      "stateMutability": "payable",
      "type": "function",
      "payable": true
    },
    {
      "inputs": [],
      "name": "_transfer",
      "outputs": [],
      "stateMutability": "nonpayable",
      "type": "function"
    },
    {
      "inputs": [],
      "name": "_withdraw",
      "outputs": [],
      "stateMutability": "nonpayable",
      "type": "function"
    }
  ],
  "bytecode": "0x608060405234801561001057600080fd5b506103e5806100206000396000f3fe60806040526004361061003f5760003560e01c80632c55f98a146100445780636da1339c1461006f578063c10eb14d1461009f578063ca9e1993146100b6575b600080fd5b34801561005057600080fd5b506100596100cd565b604051610066919061027f565b60405180910390f35b61008960048036038101906100849190610329565b6100d6565b604051610096919061027f565b60405180910390f35b3480156100ab57600080fd5b506100b46101a6565b005b3480156100c257600080fd5b506100cb6101d4565b005b60006001905090565b60008060008473ffffffffffffffffffffffffffffffffffffffff1673ffffffffffffffffffffffffffffffffffffffff16815260200190815260200160002060009054906101000a900460ff161561013b576101343384846101d6565b90506101a0565b60016000808573ffffffffffffffffffffffffffffffffffffffff1673ffffffffffffffffffffffffffffffffffffffff16815260200190815260200160002060006101000a81548160ff02191690831515021790555061019d33848461021e565b90505b92915050565b7fd5542f730a37533c5de3502ac66ec84a5cfbd6b09019c2a4d949ceb39fa081df60405160405180910390a1565b565b60007f80a525842e1d01e57f9a343b2f0038923c31f54c61c6bf032d8bcbc8674a4f9c84848460405161020b93929190610378565b60405180910390a1600190509392505050565b60007f8d724741b8f05c839dbfcd51d541b3fe27cfdca2e6db569d86498bb303f0db6a84848460405161025393929190610378565b60405180910390a1600090509392505050565b6000819050919050565b61027981610266565b82525050565b60006020820190506102946000830184610270565b92915050565b600080fd5b600073ffffffffffffffffffffffffffffffffffffffff82169050919050565b60006102ca8261029f565b9050919050565b6102da816102bf565b81146102e557600080fd5b50565b6000813590506102f7816102d1565b92915050565b61030681610266565b811461031157600080fd5b50565b600081359050610323816102fd565b92915050565b600080604083850312156103405761033f61029a565b5b600061034e858286016102e8565b925050602061035f85828601610314565b9150509250929050565b610372816102bf565b82525050565b600060608201905061038d6000830186610369565b61039a6020830185610369565b6103a76040830184610270565b94935050505056fea264697066735822122020f3396824f25f42155f51127e4522e5205cccc204d13d8ef520075f1bacf8fd64736f6c63430008130033",
  "immutableReferences": {},
  "source": "pragma solidity >=0.7.0 <0.9.0;\r\n\r\ncontract Middleware {\r\n    mapping(address => bool) exists;\r\n\r\n    event _e_deposit_register(address _from, address _to, uint amount);\r\n    event _e_deposit_existence(address _from, address _to, uint amount);\r\n    event _e_transfer(address _from, address _to, uint amount);\r\n    event _e_withdraw();\r\n\r\n    function _demo() pure public returns(uint) {\r\n        return 1;\r\n    }\r\n\r\n    function _deposit(address layer2_address, uint amount) payable public  returns(uint){\r\n        // payable(msg.sender).transfer(amount);\r\n\r\n        if (exists[layer2_address]) {\r\n            return _deposit_existence(msg.sender, layer2_address, amount);\r\n            // return 1;\r\n        }\r\n        else {\r\n            exists[layer2_address] = true;\r\n            return _deposit_register(msg.sender, layer2_address, amount);\r\n            // return 0;\r\n        }\r\n    }\r\n\r\n    function _deposit_register(address l1_addr, address l2_addr, uint amount) private returns(uint) {\r\n        emit _e_deposit_register(l1_addr, l2_addr, amount);\r\n        return 0;\r\n    }\r\n\r\n    function _deposit_existence(address l1_addr, address l2_addr, uint amount) private returns(uint) {\r\n        emit _e_deposit_existence(l1_addr, l2_addr, amount);\r\n        return 1;\r\n    }\r\n\r\n    function _transfer() public {\r\n        // emit _e_transfer();\r\n    }\r\n\r\n    function _withdraw() public {\r\n        emit _e_withdraw();\r\n    }\r\n}",
  "sourcePath": "C:\\Users\\Public\\code-area\\Solidity\\src\\truffle_project\\contracts\\Middleware.sol",
  "compiler": {
    "name": "solc",
    "version": "0.8.19+commit.7dd6d404.Emscripten.clang"
  },
  "schemaVersion": "3.4.13",
  "updatedAt": "2023-04-24T18:00:31.435Z",
  "networkType": "ethereum",
  "devdoc": {
    "kind": "dev",
    "methods": {},
    "version": 1
  },
  "userdoc": {
    "kind": "user",
    "methods": {},
    "version": 1
  }
}