{
  "contractName": "Middleware",
  "abi": [
    {
      "anonymous": false,
      "inputs": [
        {
          "indexed": false,
          "internalType": "address",
          "name": "_from",
          "type": "address"
        },
        {
          "indexed": false,
          "internalType": "address",
          "name": "_to",
          "type": "address"
        },
        {
          "indexed": false,
          "internalType": "uint256",
          "name": "_amount",
          "type": "uint256"
        }
      ],
      "name": "_e_deposit_existence",
      "type": "event"
    },
    {
      "anonymous": false,
      "inputs": [
        {
          "indexed": false,
          "internalType": "address",
          "name": "_from",
          "type": "address"
        },
        {
          "indexed": false,
          "internalType": "address",
          "name": "_to",
          "type": "address"
        },
        {
          "indexed": false,
          "internalType": "uint256",
          "name": "_amount",
          "type": "uint256"
        }
      ],
      "name": "_e_deposit_register",
      "type": "event"
    },
    {
      "anonymous": false,
      "inputs": [
        {
          "indexed": false,
          "internalType": "bytes32",
          "name": "deposit_register_root",
          "type": "bytes32"
        },
        {
          "indexed": false,
          "internalType": "bytes32",
          "name": "deposit_existence_root",
          "type": "bytes32"
        }
      ],
      "name": "_e_process_deposit",
      "type": "event"
    },
    {
      "anonymous": false,
      "inputs": [
        {
          "indexed": false,
          "internalType": "bytes32",
          "name": "_value",
          "type": "bytes32"
        }
      ],
      "name": "_e_tracking",
      "type": "event"
    },
    {
      "anonymous": false,
      "inputs": [
        {
          "indexed": false,
          "internalType": "address",
          "name": "_from",
          "type": "address"
        },
        {
          "indexed": false,
          "internalType": "address",
          "name": "_to",
          "type": "address"
        },
        {
          "indexed": false,
          "internalType": "uint256",
          "name": "_amount",
          "type": "uint256"
        }
      ],
      "name": "_e_transfer",
      "type": "event"
    },
    {
      "anonymous": false,
      "inputs": [],
      "name": "_e_valid_proof",
      "type": "event"
    },
    {
      "anonymous": false,
      "inputs": [],
      "name": "_e_withdraw",
      "type": "event"
    },
    {
      "inputs": [
        {
          "internalType": "bytes32",
          "name": "v1",
          "type": "bytes32"
        },
        {
          "internalType": "bytes32",
          "name": "v2",
          "type": "bytes32"
        }
      ],
      "name": "_demo",
      "outputs": [],
      "stateMutability": "nonpayable",
      "type": "function"
    },
    {
      "inputs": [],
      "name": "_process_deposit",
      "outputs": [],
      "stateMutability": "nonpayable",
      "type": "function"
    },
    {
      "inputs": [
        {
          "internalType": "bytes32[]",
          "name": "proof",
          "type": "bytes32[]"
        },
        {
          "internalType": "uint256[]",
          "name": "path",
          "type": "uint256[]"
        },
        {
          "internalType": "uint256",
          "name": "height",
          "type": "uint256"
        }
      ],
      "name": "_verify_deposit_register",
      "outputs": [],
      "stateMutability": "nonpayable",
      "type": "function"
    },
    {
      "inputs": [
        {
          "internalType": "bytes32[]",
          "name": "proof",
          "type": "bytes32[]"
        },
        {
          "internalType": "uint256",
          "name": "height",
          "type": "uint256"
        }
      ],
      "name": "_verify_deposit_existence",
      "outputs": [],
      "stateMutability": "nonpayable",
      "type": "function"
    },
    {
      "inputs": [
        {
          "internalType": "address",
          "name": "layer2_address",
          "type": "address"
        },
        {
          "internalType": "uint256",
          "name": "amount",
          "type": "uint256"
        }
      ],
      "name": "_deposit",
      "outputs": [],
      "stateMutability": "payable",
      "type": "function",
      "payable": true
    },
    {
      "inputs": [],
      "name": "_transfer",
      "outputs": [],
      "stateMutability": "nonpayable",
      "type": "function"
    },
    {
      "inputs": [],
      "name": "_withdraw",
      "outputs": [],
      "stateMutability": "nonpayable",
      "type": "function"
    }
  ],
  "bytecode": "0x60806040526040518061014001604052807f3cac317908c699fe873a7f6ee4e8cd63fbe9918b2315c97be91585590168e30160001b81526020017fd6a4144868703d1474cd7c5b4b1697b412eece270b7a4428b750c7458f73d16360001b81526020017f70620458a6db5a8631a8cdc160462b1c0c2535bc813757ffc9374638c3999b0a60001b81526020017fba78901e710fee2f40d93e4a43888f008ce586f8ac2f6c493110334e925bab3d60001b81526020017fb3071dfe86f33fe4b792b764c02bf1846e60309294bbc955eecec20de535e79b60001b81526020017fd5f4d4f3a12a96670788488191268eba24edef266e8daf351cc58de6ba070cc860001b81526020017f4383b8a05505a19df40ad49486feca659270f2e61b8cea10def78ca226f4fa6b60001b81526020017f2235dd0e52d5fd51624a4297f90019372475057a149fcf333478b639c6c6a70160001b81526020017f3f196d31b8b97caa45a187e1ecfb14eb76468fb95cee57b1862213861a59337760001b81526020017f9d952dab4bf3d73556437c642f74335230419daf1d9f88bb6096e1a8a027bf4160001b815250600090600a620001ba929190620001fc565b506000600c556000600e556003600f556000600f54600a8110620001e357620001e262000260565b5b0154601055348015620001f557600080fd5b506200028f565b82600a81019282156200022e579160200282015b828111156200022d57825182559160200191906001019062000210565b5b5090506200023d919062000241565b5090565b5b808211156200025c57600081600090555060010162000242565b5090565b7f4e487b7100000000000000000000000000000000000000000000000000000000600052603260045260246000fd5b6113d6806200029f6000396000f3fe6080604052600436106100705760003560e01c8063c10eb14d1161004e578063c10eb14d146100d1578063ca9e1993146100e8578063d7c3c7dd146100ff578063d83a18f01461012857610070565b80636da1339c146100755780637951ad54146100915780638d69ac8e146100a8575b600080fd5b61008f600480360381019061008a9190610ad1565b610151565b005b34801561009d57600080fd5b506100a661021b565b005b3480156100b457600080fd5b506100cf60048036038101906100ca9190610b47565b610294565b005b3480156100dd57600080fd5b506100e66103ae565b005b3480156100f457600080fd5b506100fd6103dc565b005b34801561010b57600080fd5b5061012660048036038101906101219190610da3565b6103de565b005b34801561013457600080fd5b5061014f600480360381019061014a9190610e2e565b610755565b005b600a60008373ffffffffffffffffffffffffffffffffffffffff1673ffffffffffffffffffffffffffffffffffffffff16815260200190815260200160002060009054906101000a900460ff16156101b3576101ae338383610759565b610217565b6001600a60008473ffffffffffffffffffffffffffffffffffffffff1673ffffffffffffffffffffffffffffffffffffffff16815260200190815260200160002060006101000a81548160ff0219169083151502179055506102163383836108c1565b5b5050565b7fa188ab215bf6041a6cc34edd7a1a4f6bc695c9ffc95d462c3c86ffec88e2bcc5600b60008154811061025157610250610e8a565b5b9060005260206000200154600d60008154811061027157610270610e8a565b5b906000526020600020015460405161028a929190610ec8565b60405180910390a1565b7fc6be8b3b99eef266a00e6b8ac1eec538777e578b5c29e5cf23de0dc700a212a782826040516020016102c8929190610f12565b604051602081830303815290604052805190602001206040516102eb9190610f3e565b60405180910390a160118290806001815401808255809150506001900390600052602060002001600090919091909150557fc6be8b3b99eef266a00e6b8ac1eec538777e578b5c29e5cf23de0dc700a212a7601160016011805490506103519190610f88565b8154811061036257610361610e8a565b5b90600052602060002001548260405160200161037f929190610f12565b604051602081830303815290604052805190602001206040516103a29190610f3e565b60405180910390a15050565b7fd5542f730a37533c5de3502ac66ec84a5cfbd6b09019c2a4d949ceb39fa081df60405160405180910390a1565b565b60008082600a81106103f3576103f2610e8a565b5b01549050600082905060005b85518110156104d757600085828151811061041d5761041c610e8a565b5b602002602001015103610474578286828151811061043e5761043d610e8a565b5b6020026020010151604051602001610457929190610f12565b6040516020818303038152906040528051906020012092506104ba565b85818151811061048757610486610e8a565b5b6020026020010151836040516020016104a1929190610f12565b6040516020818303038152906040528051906020012092505b816104c490610fbc565b9150806104d090610fbc565b90506103ff565b50600f54811480156104ea575060105482145b15610715577f4b2e923e2135abac6c993892a91a2d7da9f7cf20679e2e646da5518e6ffeb8e760405160405180910390a16000600b60008154811061053257610531610e8a565b5b9060005260206000200154905060005b865181101561060e5760008682815181106105605761055f610e8a565b5b6020026020010151036105b7578187828151811061058157610580610e8a565b5b602002602001015160405160200161059a929190610f12565b6040516020818303038152906040528051906020012091506105fd565b8681815181106105ca576105c9610e8a565b5b6020026020010151826040516020016105e4929190610f12565b6040516020818303038152906040528051906020012091505b8061060790610fbc565b9050610542565b50806010819055508360026106239190611137565b600c60008282546106349190610f88565b925050819055506000600190505b600b805490508110156106ad57600b818154811061066357610662610e8a565b5b9060005260206000200154600b60018361067d9190610f88565b8154811061068e5761068d610e8a565b5b9060005260206000200181905550806106a690610fbc565b9050610642565b50600b8054806106c0576106bf611182565b5b600190038181906000526020600020016000905590557fc6be8b3b99eef266a00e6b8ac1eec538777e578b5c29e5cf23de0dc700a212a76010546040516107079190610f3e565b60405180910390a15061074e565b7fc6be8b3b99eef266a00e6b8ac1eec538777e578b5c29e5cf23de0dc700a212a7600060405161074591906111f9565b60405180910390a15b5050505050565b5050565b7f80a525842e1d01e57f9a343b2f0038923c31f54c61c6bf032d8bcbc8674a4f9c83838360405161078c93929190611232565b60405180910390a1600e600081546107a390610fbc565b919050819055506000600e54905060008484846040516020016107c8939291906112d2565b60405160208183030381529060405280519060200120905060005b60006002846107f2919061133e565b0361089057600283610804919061136f565b9250600d6001600d8054905061081a9190610f88565b8154811061082b5761082a610e8a565b5b90600052602060002001549050600d80548061084a57610849611182565b5b600190038181906000526020600020016000905590558181604051602001610873929190610f12565b6040516020818303038152906040528051906020012091506107e3565b600d829080600181540180825580915050600190039060005260206000200160009091909190915055505050505050565b7f8d724741b8f05c839dbfcd51d541b3fe27cfdca2e6db569d86498bb303f0db6a8383836040516108f493929190611232565b60405180910390a1600c6000815461090b90610fbc565b919050819055506000600c5490506000848484604051602001610930939291906112d2565b60405160208183030381529060405280519060200120905060005b600060028461095a919061133e565b036109f85760028361096c919061136f565b9250600b6001600b805490506109829190610f88565b8154811061099357610992610e8a565b5b90600052602060002001549050600b8054806109b2576109b1611182565b5b6001900381819060005260206000200160009055905580826040516020016109db929190610f12565b60405160208183030381529060405280519060200120915061094b565b600b829080600181540180825580915050600190039060005260206000200160009091909190915055505050505050565b6000604051905090565b600080fd5b600080fd5b600073ffffffffffffffffffffffffffffffffffffffff82169050919050565b6000610a6882610a3d565b9050919050565b610a7881610a5d565b8114610a8357600080fd5b50565b600081359050610a9581610a6f565b92915050565b6000819050919050565b610aae81610a9b565b8114610ab957600080fd5b50565b600081359050610acb81610aa5565b92915050565b60008060408385031215610ae857610ae7610a33565b5b6000610af685828601610a86565b9250506020610b0785828601610abc565b9150509250929050565b6000819050919050565b610b2481610b11565b8114610b2f57600080fd5b50565b600081359050610b4181610b1b565b92915050565b60008060408385031215610b5e57610b5d610a33565b5b6000610b6c85828601610b32565b9250506020610b7d85828601610b32565b9150509250929050565b600080fd5b6000601f19601f8301169050919050565b7f4e487b7100000000000000000000000000000000000000000000000000000000600052604160045260246000fd5b610bd582610b8c565b810181811067ffffffffffffffff82111715610bf457610bf3610b9d565b5b80604052505050565b6000610c07610a29565b9050610c138282610bcc565b919050565b600067ffffffffffffffff821115610c3357610c32610b9d565b5b602082029050602081019050919050565b600080fd5b6000610c5c610c5784610c18565b610bfd565b90508083825260208201905060208402830185811115610c7f57610c7e610c44565b5b835b81811015610ca85780610c948882610b32565b845260208401935050602081019050610c81565b5050509392505050565b600082601f830112610cc757610cc6610b87565b5b8135610cd7848260208601610c49565b91505092915050565b600067ffffffffffffffff821115610cfb57610cfa610b9d565b5b602082029050602081019050919050565b6000610d1f610d1a84610ce0565b610bfd565b90508083825260208201905060208402830185811115610d4257610d41610c44565b5b835b81811015610d6b5780610d578882610abc565b845260208401935050602081019050610d44565b5050509392505050565b600082601f830112610d8a57610d89610b87565b5b8135610d9a848260208601610d0c565b91505092915050565b600080600060608486031215610dbc57610dbb610a33565b5b600084013567ffffffffffffffff811115610dda57610dd9610a38565b5b610de686828701610cb2565b935050602084013567ffffffffffffffff811115610e0757610e06610a38565b5b610e1386828701610d75565b9250506040610e2486828701610abc565b9150509250925092565b60008060408385031215610e4557610e44610a33565b5b600083013567ffffffffffffffff811115610e6357610e62610a38565b5b610e6f85828601610cb2565b9250506020610e8085828601610abc565b9150509250929050565b7f4e487b7100000000000000000000000000000000000000000000000000000000600052603260045260246000fd5b610ec281610b11565b82525050565b6000604082019050610edd6000830185610eb9565b610eea6020830184610eb9565b9392505050565b6000819050919050565b610f0c610f0782610b11565b610ef1565b82525050565b6000610f1e8285610efb565b602082019150610f2e8284610efb565b6020820191508190509392505050565b6000602082019050610f536000830184610eb9565b92915050565b7f4e487b7100000000000000000000000000000000000000000000000000000000600052601160045260246000fd5b6000610f9382610a9b565b9150610f9e83610a9b565b9250828203905081811115610fb657610fb5610f59565b5b92915050565b6000610fc782610a9b565b91507fffffffffffffffffffffffffffffffffffffffffffffffffffffffffffffffff8203610ff957610ff8610f59565b5b600182019050919050565b60008160011c9050919050565b6000808291508390505b600185111561105b5780860481111561103757611036610f59565b5b60018516156110465780820291505b808102905061105485611004565b945061101b565b94509492505050565b6000826110745760019050611130565b816110825760009050611130565b816001811461109857600281146110a2576110d1565b6001915050611130565b60ff8411156110b4576110b3610f59565b5b8360020a9150848211156110cb576110ca610f59565b5b50611130565b5060208310610133831016604e8410600b84101617156111065782820a90508381111561110157611100610f59565b5b611130565b6111138484846001611011565b9250905081840481111561112a57611129610f59565b5b81810290505b9392505050565b600061114282610a9b565b915061114d83610a9b565b925061117a7fffffffffffffffffffffffffffffffffffffffffffffffffffffffffffffffff8484611064565b905092915050565b7f4e487b7100000000000000000000000000000000000000000000000000000000600052603160045260246000fd5b6000819050919050565b60008160001b9050919050565b60006111e36111de6111d9846111b1565b6111bb565b610b11565b9050919050565b6111f3816111c8565b82525050565b600060208201905061120e60008301846111ea565b92915050565b61121d81610a5d565b82525050565b61122c81610a9b565b82525050565b60006060820190506112476000830186611214565b6112546020830185611214565b6112616040830184611223565b949350505050565b60008160601b9050919050565b600061128182611269565b9050919050565b600061129382611276565b9050919050565b6112ab6112a682610a5d565b611288565b82525050565b6000819050919050565b6112cc6112c782610a9b565b6112b1565b82525050565b60006112de828661129a565b6014820191506112ee828561129a565b6014820191506112fe82846112bb565b602082019150819050949350505050565b7f4e487b7100000000000000000000000000000000000000000000000000000000600052601260045260246000fd5b600061134982610a9b565b915061135483610a9b565b9250826113645761136361130f565b5b828206905092915050565b600061137a82610a9b565b915061138583610a9b565b9250826113955761139461130f565b5b82820490509291505056fea26469706673582212203bbdd4da6cd19ca7b960500ca433117b98424e11c19a67a2cbb0adc9a9576ca764736f6c63430008130033",
  "immutableReferences": {},
  "source": "pragma solidity >=0.7.0 <0.9.0;\r\n\r\ncontract Middleware {\r\n    bytes32[10] hash0 = [bytes32(0x3cac317908c699fe873a7f6ee4e8cd63fbe9918b2315c97be91585590168e301),\r\n                        bytes32(0xd6a4144868703d1474cd7c5b4b1697b412eece270b7a4428b750c7458f73d163),\r\n                        bytes32(0x70620458a6db5a8631a8cdc160462b1c0c2535bc813757ffc9374638c3999b0a),\r\n                        bytes32(0xba78901e710fee2f40d93e4a43888f008ce586f8ac2f6c493110334e925bab3d),\r\n                        bytes32(0xb3071dfe86f33fe4b792b764c02bf1846e60309294bbc955eecec20de535e79b),\r\n                        bytes32(0xd5f4d4f3a12a96670788488191268eba24edef266e8daf351cc58de6ba070cc8),\r\n                        bytes32(0x4383b8a05505a19df40ad49486feca659270f2e61b8cea10def78ca226f4fa6b),\r\n                        bytes32(0x2235dd0e52d5fd51624a4297f90019372475057a149fcf333478b639c6c6a701),\r\n                        bytes32(0x3f196d31b8b97caa45a187e1ecfb14eb76468fb95cee57b1862213861a593377),\r\n                        bytes32(0x9d952dab4bf3d73556437c642f74335230419daf1d9f88bb6096e1a8a027bf41)]; \r\n    mapping(address => bool) exists;\r\n    bytes32[] deposit_register_root;\r\n    uint deposit_register_count = 0;\r\n    bytes32[] deposit_existence_root;\r\n    uint deposit_existence_count = 0;\r\n    uint height_acc_tree = 3;\r\n    bytes32 account_root = hash0[height_acc_tree];\r\n\r\n    event _e_deposit_register(address _from, address _to, uint _amount);\r\n    event _e_deposit_existence(address _from, address _to, uint _amount);\r\n    event _e_process_deposit(bytes32 deposit_register_root, bytes32 deposit_existence_root);\r\n\r\n    event _e_transfer(address _from, address _to, uint _amount);\r\n    event _e_withdraw();\r\n\r\n    event _e_valid_proof();\r\n\r\n    event _e_tracking(bytes32 _value);\r\n\r\n    bytes32[] __demo;\r\n\r\n    function _demo(bytes32 v1, bytes32 v2) public {\r\n        emit _e_tracking(keccak256(abi.encodePacked(v1, v2)));\r\n        __demo.push(v1);\r\n        emit _e_tracking(keccak256(abi.encodePacked(__demo[__demo.length-1],v2)));\r\n    }\r\n\r\n\r\n    function _process_deposit() public {\r\n        emit _e_process_deposit(deposit_register_root[0], deposit_existence_root[0]);\r\n    }\r\n\r\n\r\n    function _verify_deposit_register(bytes32[] memory proof, uint[] memory path, uint height) public {\r\n        bytes32 val = hash0[height];\r\n        uint _height = height;\r\n        for (uint i = 0; i < proof.length; ++i) {\r\n            if (path[i] == 0)\r\n                val = keccak256(abi.encodePacked(val, proof[i]));\r\n            else\r\n                val = keccak256(abi.encodePacked(proof[i], val));\r\n            ++_height;\r\n        }\r\n\r\n        if ((_height == height_acc_tree) && (val == account_root)) {\r\n            emit _e_valid_proof();\r\n            // Update Account Root\r\n            // Todo: Only process Deposit Register Tree\r\n            //       Update Deposit Register Root & Count\r\n            bytes32 new_acc_root = deposit_register_root[0];\r\n            for (uint i = 0; i < proof.length; ++i) {\r\n                if (path[i] == 0)\r\n                    new_acc_root = keccak256(abi.encodePacked(new_acc_root, proof[i]));\r\n                else\r\n                    new_acc_root = keccak256(abi.encodePacked(proof[i], new_acc_root));\r\n            }\r\n            account_root = new_acc_root;\r\n            // update Count\r\n            deposit_register_count -= 2**height;\r\n            // update Root: remove first element\r\n            for (uint i = 1; i < deposit_register_root.length; ++i) {\r\n                deposit_register_root[i-1] = deposit_register_root[i];\r\n            }\r\n            deposit_register_root.pop();\r\n            emit _e_tracking(account_root);\r\n        }\r\n        else {\r\n            emit _e_tracking(0);\r\n        }\r\n    }\r\n\r\n    function _verify_deposit_existence(bytes32[] memory proof, uint height) public {\r\n        \r\n    }\r\n\r\n\r\n    function _deposit(address layer2_address, uint amount) payable public {\r\n        if (exists[layer2_address]) {\r\n            _deposit_existence(msg.sender, layer2_address, amount);\r\n        }\r\n        else {\r\n            exists[layer2_address] = true;\r\n            _deposit_register(msg.sender, layer2_address, amount);\r\n        }\r\n    }\r\n\r\n\r\n    function _deposit_register(address l1_addr, address l2_addr, uint amount) private {\r\n        emit _e_deposit_register(l1_addr, l2_addr, amount);\r\n        ++deposit_register_count;\r\n\r\n        uint cnt = deposit_register_count;\r\n        bytes32 tmp = keccak256(abi.encodePacked(l1_addr, l2_addr, amount));\r\n        bytes32 tmp2;\r\n\r\n        while (cnt % 2 == 0)\r\n        {\r\n            cnt /= 2;\r\n            tmp2 = deposit_register_root[deposit_register_root.length-1];\r\n            deposit_register_root.pop();\r\n            tmp = keccak256(abi.encodePacked(tmp2, tmp));\r\n        }\r\n        deposit_register_root.push(tmp);\r\n    }\r\n\r\n\r\n    function _deposit_existence(address l1_addr, address l2_addr, uint amount) private {\r\n        emit _e_deposit_existence(l1_addr, l2_addr, amount);\r\n        ++deposit_existence_count;\r\n\r\n        uint cnt = deposit_existence_count;\r\n        bytes32 tmp = keccak256(abi.encodePacked(l1_addr, l2_addr, amount));\r\n        bytes32 tmp2;\r\n\r\n        while (cnt % 2 == 0) {\r\n            cnt /= 2;\r\n            tmp2 = deposit_existence_root[deposit_existence_root.length-1];\r\n            deposit_existence_root.pop();\r\n            tmp = keccak256(abi.encodePacked(tmp, tmp2));\r\n        }\r\n        deposit_existence_root.push(tmp);\r\n    }\r\n\r\n\r\n    function _transfer() public {\r\n        // emit _e_transfer();\r\n    }\r\n\r\n\r\n    function _withdraw() public {\r\n        emit _e_withdraw();\r\n    }\r\n}",
  "sourcePath": "C:\\Users\\Public\\code-area\\Solidity\\src\\truffle_project\\contracts\\Middleware.sol",
  "compiler": {
    "name": "solc",
    "version": "0.8.19+commit.7dd6d404.Emscripten.clang"
  },
  "schemaVersion": "3.4.13",
  "updatedAt": "2023-05-11T18:49:19.033Z",
  "networkType": "ethereum",
  "devdoc": {
    "kind": "dev",
    "methods": {},
    "version": 1
  },
  "userdoc": {
    "kind": "user",
    "methods": {},
    "version": 1
  }
}