{
  "contractName": "Middleware",
  "abi": [
    {
      "anonymous": false,
      "inputs": [
        {
          "indexed": false,
          "internalType": "address",
          "name": "_from",
          "type": "address"
        },
        {
          "indexed": false,
          "internalType": "address",
          "name": "_to",
          "type": "address"
        },
        {
          "indexed": false,
          "internalType": "uint256",
          "name": "_amount",
          "type": "uint256"
        }
      ],
      "name": "_e_deposit_existence",
      "type": "event"
    },
    {
      "anonymous": false,
      "inputs": [
        {
          "indexed": false,
          "internalType": "address",
          "name": "_from",
          "type": "address"
        },
        {
          "indexed": false,
          "internalType": "address",
          "name": "_to",
          "type": "address"
        },
        {
          "indexed": false,
          "internalType": "uint256",
          "name": "_amount",
          "type": "uint256"
        }
      ],
      "name": "_e_deposit_register",
      "type": "event"
    },
    {
      "anonymous": false,
      "inputs": [
        {
          "indexed": false,
          "internalType": "bytes32",
          "name": "deposit_register_root",
          "type": "bytes32"
        },
        {
          "indexed": false,
          "internalType": "bytes32",
          "name": "deposit_existence_root",
          "type": "bytes32"
        }
      ],
      "name": "_e_process_deposit",
      "type": "event"
    },
    {
      "anonymous": false,
      "inputs": [
        {
          "indexed": false,
          "internalType": "bytes32",
          "name": "_value",
          "type": "bytes32"
        }
      ],
      "name": "_e_tracking",
      "type": "event"
    },
    {
      "anonymous": false,
      "inputs": [
        {
          "indexed": false,
          "internalType": "address",
          "name": "_from",
          "type": "address"
        },
        {
          "indexed": false,
          "internalType": "address",
          "name": "_to",
          "type": "address"
        },
        {
          "indexed": false,
          "internalType": "uint256",
          "name": "_amount",
          "type": "uint256"
        }
      ],
      "name": "_e_transfer",
      "type": "event"
    },
    {
      "anonymous": false,
      "inputs": [],
      "name": "_e_valid_proof",
      "type": "event"
    },
    {
      "anonymous": false,
      "inputs": [],
      "name": "_e_withdraw",
      "type": "event"
    },
    {
      "inputs": [
        {
          "internalType": "bytes32",
          "name": "v1",
          "type": "bytes32"
        },
        {
          "internalType": "bytes32",
          "name": "v2",
          "type": "bytes32"
        }
      ],
      "name": "_demo",
      "outputs": [],
      "stateMutability": "nonpayable",
      "type": "function"
    },
    {
      "inputs": [],
      "name": "_process_deposit",
      "outputs": [],
      "stateMutability": "nonpayable",
      "type": "function"
    },
    {
      "inputs": [
        {
          "internalType": "bytes32[]",
          "name": "proof",
          "type": "bytes32[]"
        },
        {
          "internalType": "uint256",
          "name": "height",
          "type": "uint256"
        }
      ],
      "name": "_verify_deposit_register",
      "outputs": [],
      "stateMutability": "nonpayable",
      "type": "function"
    },
    {
      "inputs": [
        {
          "internalType": "bytes32[]",
          "name": "proof",
          "type": "bytes32[]"
        },
        {
          "internalType": "uint256",
          "name": "height",
          "type": "uint256"
        }
      ],
      "name": "_verify_deposit_existence",
      "outputs": [],
      "stateMutability": "nonpayable",
      "type": "function"
    },
    {
      "inputs": [
        {
          "internalType": "address",
          "name": "layer2_address",
          "type": "address"
        },
        {
          "internalType": "uint256",
          "name": "amount",
          "type": "uint256"
        }
      ],
      "name": "_deposit",
      "outputs": [],
      "stateMutability": "payable",
      "type": "function",
      "payable": true
    },
    {
      "inputs": [],
      "name": "_transfer",
      "outputs": [],
      "stateMutability": "nonpayable",
      "type": "function"
    },
    {
      "inputs": [],
      "name": "_withdraw",
      "outputs": [],
      "stateMutability": "nonpayable",
      "type": "function"
    }
  ],
  "bytecode": "0x60806040526040518061014001604052807f3cac317908c699fe873a7f6ee4e8cd63fbe9918b2315c97be91585590168e30160001b81526020017fd6a4144868703d1474cd7c5b4b1697b412eece270b7a4428b750c7458f73d16360001b81526020017f70620458a6db5a8631a8cdc160462b1c0c2535bc813757ffc9374638c3999b0a60001b81526020017fba78901e710fee2f40d93e4a43888f008ce586f8ac2f6c493110334e925bab3d60001b81526020017fb3071dfe86f33fe4b792b764c02bf1846e60309294bbc955eecec20de535e79b60001b81526020017fd5f4d4f3a12a96670788488191268eba24edef266e8daf351cc58de6ba070cc860001b81526020017f4383b8a05505a19df40ad49486feca659270f2e61b8cea10def78ca226f4fa6b60001b81526020017f2235dd0e52d5fd51624a4297f90019372475057a149fcf333478b639c6c6a70160001b81526020017f3f196d31b8b97caa45a187e1ecfb14eb76468fb95cee57b1862213861a59337760001b81526020017f9d952dab4bf3d73556437c642f74335230419daf1d9f88bb6096e1a8a027bf4160001b815250600090600a6101b89291906101f5565b506000600c556000600e556003600f556000600f54600a81106101de576101dd610252565b5b01546010553480156101ef57600080fd5b50610281565b82600a8101928215610224579160200282015b82811115610223578251825591602001919060010190610208565b5b5090506102319190610235565b5090565b5b8082111561024e576000816000905550600101610236565b5090565b7f4e487b7100000000000000000000000000000000000000000000000000000000600052603260045260246000fd5b610ea7806102906000396000f3fe6080604052600436106100705760003560e01c8063be5c1c761161004e578063be5c1c76146100d1578063c10eb14d146100fa578063ca9e199314610111578063d83a18f01461012857610070565b80636da1339c146100755780637951ad54146100915780638d69ac8e146100a8575b600080fd5b61008f600480360381019061008a919061086e565b610151565b005b34801561009d57600080fd5b506100a661021b565b005b3480156100b457600080fd5b506100cf60048036038101906100ca91906108e4565b610294565b005b3480156100dd57600080fd5b506100f860048036038101906100f39190610a7d565b6103ae565b005b34801561010657600080fd5b5061010f6104c2565b005b34801561011d57600080fd5b506101266104f0565b005b34801561013457600080fd5b5061014f600480360381019061014a9190610a7d565b6104f2565b005b600a60008373ffffffffffffffffffffffffffffffffffffffff1673ffffffffffffffffffffffffffffffffffffffff16815260200190815260200160002060009054906101000a900460ff16156101b3576101ae3383836104f6565b610217565b6001600a60008473ffffffffffffffffffffffffffffffffffffffff1673ffffffffffffffffffffffffffffffffffffffff16815260200190815260200160002060006101000a81548160ff02191690831515021790555061021633838361065e565b5b5050565b7fa188ab215bf6041a6cc34edd7a1a4f6bc695c9ffc95d462c3c86ffec88e2bcc5600b60008154811061025157610250610ad9565b5b9060005260206000200154600d60008154811061027157610270610ad9565b5b906000526020600020015460405161028a929190610b17565b60405180910390a1565b7fc6be8b3b99eef266a00e6b8ac1eec538777e578b5c29e5cf23de0dc700a212a782826040516020016102c8929190610b61565b604051602081830303815290604052805190602001206040516102eb9190610b8d565b60405180910390a160118290806001815401808255809150506001900390600052602060002001600090919091909150557fc6be8b3b99eef266a00e6b8ac1eec538777e578b5c29e5cf23de0dc700a212a7601160016011805490506103519190610bd7565b8154811061036257610361610ad9565b5b90600052602060002001548260405160200161037f929190610b61565b604051602081830303815290604052805190602001206040516103a29190610b8d565b60405180910390a15050565b60008082600a81106103c3576103c2610ad9565b5b01549050600082905060005b845181101561043a57828582815181106103ec576103eb610ad9565b5b6020026020010151604051602001610405929190610b61565b6040516020818303038152906040528051906020012092508161042790610c0b565b91508061043390610c0b565b90506103cf565b50600f548114801561044d575060105482145b15610483577f4b2e923e2135abac6c993892a91a2d7da9f7cf20679e2e646da5518e6ffeb8e760405160405180910390a16104bc565b7fc6be8b3b99eef266a00e6b8ac1eec538777e578b5c29e5cf23de0dc700a212a760006040516104b39190610c9b565b60405180910390a15b50505050565b7fd5542f730a37533c5de3502ac66ec84a5cfbd6b09019c2a4d949ceb39fa081df60405160405180910390a1565b565b5050565b7f80a525842e1d01e57f9a343b2f0038923c31f54c61c6bf032d8bcbc8674a4f9c83838360405161052993929190610cd4565b60405180910390a1600e6000815461054090610c0b565b919050819055506000600e549050600084848460405160200161056593929190610d74565b60405160208183030381529060405280519060200120905060005b600060028461058f9190610de0565b0361062d576002836105a19190610e11565b9250600d6001600d805490506105b79190610bd7565b815481106105c8576105c7610ad9565b5b90600052602060002001549050600d8054806105e7576105e6610e42565b5b600190038181906000526020600020016000905590558181604051602001610610929190610b61565b604051602081830303815290604052805190602001209150610580565b600d829080600181540180825580915050600190039060005260206000200160009091909190915055505050505050565b7f8d724741b8f05c839dbfcd51d541b3fe27cfdca2e6db569d86498bb303f0db6a83838360405161069193929190610cd4565b60405180910390a1600c600081546106a890610c0b565b919050819055506000600c54905060008484846040516020016106cd93929190610d74565b60405160208183030381529060405280519060200120905060005b60006002846106f79190610de0565b03610795576002836107099190610e11565b9250600b6001600b8054905061071f9190610bd7565b815481106107305761072f610ad9565b5b90600052602060002001549050600b80548061074f5761074e610e42565b5b600190038181906000526020600020016000905590558082604051602001610778929190610b61565b6040516020818303038152906040528051906020012091506106e8565b600b829080600181540180825580915050600190039060005260206000200160009091909190915055505050505050565b6000604051905090565b600080fd5b600080fd5b600073ffffffffffffffffffffffffffffffffffffffff82169050919050565b6000610805826107da565b9050919050565b610815816107fa565b811461082057600080fd5b50565b6000813590506108328161080c565b92915050565b6000819050919050565b61084b81610838565b811461085657600080fd5b50565b60008135905061086881610842565b92915050565b60008060408385031215610885576108846107d0565b5b600061089385828601610823565b92505060206108a485828601610859565b9150509250929050565b6000819050919050565b6108c1816108ae565b81146108cc57600080fd5b50565b6000813590506108de816108b8565b92915050565b600080604083850312156108fb576108fa6107d0565b5b6000610909858286016108cf565b925050602061091a858286016108cf565b9150509250929050565b600080fd5b6000601f19601f8301169050919050565b7f4e487b7100000000000000000000000000000000000000000000000000000000600052604160045260246000fd5b61097282610929565b810181811067ffffffffffffffff821117156109915761099061093a565b5b80604052505050565b60006109a46107c6565b90506109b08282610969565b919050565b600067ffffffffffffffff8211156109d0576109cf61093a565b5b602082029050602081019050919050565b600080fd5b60006109f96109f4846109b5565b61099a565b90508083825260208201905060208402830185811115610a1c57610a1b6109e1565b5b835b81811015610a455780610a3188826108cf565b845260208401935050602081019050610a1e565b5050509392505050565b600082601f830112610a6457610a63610924565b5b8135610a748482602086016109e6565b91505092915050565b60008060408385031215610a9457610a936107d0565b5b600083013567ffffffffffffffff811115610ab257610ab16107d5565b5b610abe85828601610a4f565b9250506020610acf85828601610859565b9150509250929050565b7f4e487b7100000000000000000000000000000000000000000000000000000000600052603260045260246000fd5b610b11816108ae565b82525050565b6000604082019050610b2c6000830185610b08565b610b396020830184610b08565b9392505050565b6000819050919050565b610b5b610b56826108ae565b610b40565b82525050565b6000610b6d8285610b4a565b602082019150610b7d8284610b4a565b6020820191508190509392505050565b6000602082019050610ba26000830184610b08565b92915050565b7f4e487b7100000000000000000000000000000000000000000000000000000000600052601160045260246000fd5b6000610be282610838565b9150610bed83610838565b9250828203905081811115610c0557610c04610ba8565b5b92915050565b6000610c1682610838565b91507fffffffffffffffffffffffffffffffffffffffffffffffffffffffffffffffff8203610c4857610c47610ba8565b5b600182019050919050565b6000819050919050565b60008160001b9050919050565b6000610c85610c80610c7b84610c53565b610c5d565b6108ae565b9050919050565b610c9581610c6a565b82525050565b6000602082019050610cb06000830184610c8c565b92915050565b610cbf816107fa565b82525050565b610cce81610838565b82525050565b6000606082019050610ce96000830186610cb6565b610cf66020830185610cb6565b610d036040830184610cc5565b949350505050565b60008160601b9050919050565b6000610d2382610d0b565b9050919050565b6000610d3582610d18565b9050919050565b610d4d610d48826107fa565b610d2a565b82525050565b6000819050919050565b610d6e610d6982610838565b610d53565b82525050565b6000610d808286610d3c565b601482019150610d908285610d3c565b601482019150610da08284610d5d565b602082019150819050949350505050565b7f4e487b7100000000000000000000000000000000000000000000000000000000600052601260045260246000fd5b6000610deb82610838565b9150610df683610838565b925082610e0657610e05610db1565b5b828206905092915050565b6000610e1c82610838565b9150610e2783610838565b925082610e3757610e36610db1565b5b828204905092915050565b7f4e487b7100000000000000000000000000000000000000000000000000000000600052603160045260246000fdfea26469706673582212203f0d0630fc6e7b36c7fb9bb8b06b0538a2284739527f12db3556776aeca5e7c664736f6c63430008130033",
  "immutableReferences": {},
  "source": "pragma solidity >=0.7.0 <0.9.0;\r\n\r\ncontract Middleware {\r\n    bytes32[10] hash0 = [bytes32(0x3cac317908c699fe873a7f6ee4e8cd63fbe9918b2315c97be91585590168e301),\r\n                        bytes32(0xd6a4144868703d1474cd7c5b4b1697b412eece270b7a4428b750c7458f73d163),\r\n                        bytes32(0x70620458a6db5a8631a8cdc160462b1c0c2535bc813757ffc9374638c3999b0a),\r\n                        bytes32(0xba78901e710fee2f40d93e4a43888f008ce586f8ac2f6c493110334e925bab3d),\r\n                        bytes32(0xb3071dfe86f33fe4b792b764c02bf1846e60309294bbc955eecec20de535e79b),\r\n                        bytes32(0xd5f4d4f3a12a96670788488191268eba24edef266e8daf351cc58de6ba070cc8),\r\n                        bytes32(0x4383b8a05505a19df40ad49486feca659270f2e61b8cea10def78ca226f4fa6b),\r\n                        bytes32(0x2235dd0e52d5fd51624a4297f90019372475057a149fcf333478b639c6c6a701),\r\n                        bytes32(0x3f196d31b8b97caa45a187e1ecfb14eb76468fb95cee57b1862213861a593377),\r\n                        bytes32(0x9d952dab4bf3d73556437c642f74335230419daf1d9f88bb6096e1a8a027bf41)]; \r\n    mapping(address => bool) exists;\r\n    bytes32[] deposit_register_root;\r\n    uint deposit_register_count = 0;\r\n    bytes32[] deposit_existence_root;\r\n    uint deposit_existence_count = 0;\r\n    uint height_acc_tree = 3;\r\n    bytes32 account_root = hash0[height_acc_tree];\r\n\r\n    event _e_deposit_register(address _from, address _to, uint _amount);\r\n    event _e_deposit_existence(address _from, address _to, uint _amount);\r\n    event _e_process_deposit(bytes32 deposit_register_root, bytes32 deposit_existence_root);\r\n\r\n    event _e_transfer(address _from, address _to, uint _amount);\r\n    event _e_withdraw();\r\n\r\n    event _e_valid_proof();\r\n\r\n    event _e_tracking(bytes32 _value);\r\n\r\n    bytes32[] __demo;\r\n\r\n    function _demo(bytes32 v1, bytes32 v2) public {\r\n        emit _e_tracking(keccak256(abi.encodePacked(v1, v2)));\r\n        __demo.push(v1);\r\n        emit _e_tracking(keccak256(abi.encodePacked(__demo[__demo.length-1],v2)));\r\n    }\r\n\r\n\r\n    function _process_deposit() public {\r\n        emit _e_process_deposit(deposit_register_root[0], deposit_existence_root[0]);\r\n    }\r\n\r\n\r\n    function _verify_deposit_register(bytes32[] memory proof, uint height) public {\r\n        bytes32 val = hash0[height];\r\n        uint _height = height;\r\n        for (uint i = 0; i < proof.length; ++i) {\r\n            val = keccak256(abi.encodePacked(val, proof[i]));\r\n            ++_height;\r\n        }\r\n\r\n        if ((_height == height_acc_tree) && (val == account_root)) {\r\n            emit _e_valid_proof();\r\n            // Update Account Root\r\n            // Todo: Only process Deposit Register Tree\r\n            //       Update Deposit Register Root & Count\r\n            // bytes32 new_acc_root = deposit_register_root[0];\r\n            // for (uint i = 0; i < proof.length; ++i) {\r\n            //     new_acc_root = keccak256(abi.encodePacked(new_acc_root, proof[i]));\r\n            // }\r\n            // account_root = new_acc_root;\r\n            // // update Count\r\n            // deposit_register_count -= 2**height;\r\n            // // update Root: remove first element\r\n            // for (uint i = 1; i < deposit_register_root.length; ++i) {\r\n            //     deposit_register_root[i-1] = deposit_register_root[i];\r\n            // }\r\n            // deposit_register_root.pop();\r\n        }\r\n        else {\r\n            emit _e_tracking(0);\r\n        }\r\n    }\r\n\r\n    function _verify_deposit_existence(bytes32[] memory proof, uint height) public {\r\n        \r\n    }\r\n\r\n\r\n    function _deposit(address layer2_address, uint amount) payable public {\r\n        if (exists[layer2_address]) {\r\n            _deposit_existence(msg.sender, layer2_address, amount);\r\n        }\r\n        else {\r\n            exists[layer2_address] = true;\r\n            _deposit_register(msg.sender, layer2_address, amount);\r\n        }\r\n    }\r\n\r\n\r\n    function _deposit_register(address l1_addr, address l2_addr, uint amount) private {\r\n        emit _e_deposit_register(l1_addr, l2_addr, amount);\r\n        ++deposit_register_count;\r\n\r\n        uint cnt = deposit_register_count;\r\n        bytes32 tmp = keccak256(abi.encodePacked(l1_addr, l2_addr, amount));\r\n        bytes32 tmp2;\r\n\r\n        while (cnt % 2 == 0)\r\n        {\r\n            cnt /= 2;\r\n            tmp2 = deposit_register_root[deposit_register_root.length-1];\r\n            deposit_register_root.pop();\r\n            tmp = keccak256(abi.encodePacked(tmp2, tmp));\r\n        }\r\n        deposit_register_root.push(tmp);\r\n    }\r\n\r\n\r\n    function _deposit_existence(address l1_addr, address l2_addr, uint amount) private {\r\n        emit _e_deposit_existence(l1_addr, l2_addr, amount);\r\n        ++deposit_existence_count;\r\n\r\n        uint cnt = deposit_existence_count;\r\n        bytes32 tmp = keccak256(abi.encodePacked(l1_addr, l2_addr, amount));\r\n        bytes32 tmp2;\r\n\r\n        while (cnt % 2 == 0) {\r\n            cnt /= 2;\r\n            tmp2 = deposit_existence_root[deposit_existence_root.length-1];\r\n            deposit_existence_root.pop();\r\n            tmp = keccak256(abi.encodePacked(tmp, tmp2));\r\n        }\r\n        deposit_existence_root.push(tmp);\r\n    }\r\n\r\n\r\n    function _transfer() public {\r\n        // emit _e_transfer();\r\n    }\r\n\r\n\r\n    function _withdraw() public {\r\n        emit _e_withdraw();\r\n    }\r\n}",
  "sourcePath": "C:\\Users\\Public\\code-area\\Solidity\\src\\truffle_project\\contracts\\Middleware.sol",
  "compiler": {
    "name": "solc",
    "version": "0.8.19+commit.7dd6d404.Emscripten.clang"
  },
  "schemaVersion": "3.4.13",
  "updatedAt": "2023-05-10T16:16:29.072Z",
  "networkType": "ethereum",
  "devdoc": {
    "kind": "dev",
    "methods": {},
    "version": 1
  },
  "userdoc": {
    "kind": "user",
    "methods": {},
    "version": 1
  }
}