{
  "contractName": "Middleware",
  "abi": [
    {
      "anonymous": false,
      "inputs": [
        {
          "indexed": false,
          "internalType": "address",
          "name": "_from",
          "type": "address"
        },
        {
          "indexed": false,
          "internalType": "address",
          "name": "_to",
          "type": "address"
        },
        {
          "indexed": false,
          "internalType": "uint256",
          "name": "_amount",
          "type": "uint256"
        }
      ],
      "name": "_e_deposit_existence",
      "type": "event"
    },
    {
      "anonymous": false,
      "inputs": [
        {
          "indexed": false,
          "internalType": "address",
          "name": "_from",
          "type": "address"
        },
        {
          "indexed": false,
          "internalType": "address",
          "name": "_to",
          "type": "address"
        },
        {
          "indexed": false,
          "internalType": "uint256",
          "name": "_amount",
          "type": "uint256"
        }
      ],
      "name": "_e_deposit_register",
      "type": "event"
    },
    {
      "anonymous": false,
      "inputs": [],
      "name": "_e_invalid_proof",
      "type": "event"
    },
    {
      "anonymous": false,
      "inputs": [
        {
          "indexed": false,
          "internalType": "bytes32",
          "name": "deposit_existence_root",
          "type": "bytes32"
        }
      ],
      "name": "_e_process_deposit_existence",
      "type": "event"
    },
    {
      "anonymous": false,
      "inputs": [
        {
          "indexed": false,
          "internalType": "bytes32",
          "name": "deposit_register_root",
          "type": "bytes32"
        }
      ],
      "name": "_e_process_deposit_register",
      "type": "event"
    },
    {
      "anonymous": false,
      "inputs": [
        {
          "indexed": false,
          "internalType": "string",
          "name": "text",
          "type": "string"
        },
        {
          "indexed": false,
          "internalType": "bytes32",
          "name": "_value",
          "type": "bytes32"
        }
      ],
      "name": "_e_tracking",
      "type": "event"
    },
    {
      "anonymous": false,
      "inputs": [
        {
          "indexed": false,
          "internalType": "string",
          "name": "text",
          "type": "string"
        },
        {
          "indexed": false,
          "internalType": "address",
          "name": "addr",
          "type": "address"
        }
      ],
      "name": "_e_tracking_addr",
      "type": "event"
    },
    {
      "anonymous": false,
      "inputs": [
        {
          "indexed": false,
          "internalType": "string",
          "name": "text",
          "type": "string"
        },
        {
          "indexed": false,
          "internalType": "uint256",
          "name": "num",
          "type": "uint256"
        }
      ],
      "name": "_e_tracking_num",
      "type": "event"
    },
    {
      "anonymous": false,
      "inputs": [
        {
          "indexed": false,
          "internalType": "address",
          "name": "_from",
          "type": "address"
        },
        {
          "indexed": false,
          "internalType": "address",
          "name": "_to",
          "type": "address"
        },
        {
          "indexed": false,
          "internalType": "uint256",
          "name": "_amount",
          "type": "uint256"
        }
      ],
      "name": "_e_transfer",
      "type": "event"
    },
    {
      "anonymous": false,
      "inputs": [],
      "name": "_e_valid_proof",
      "type": "event"
    },
    {
      "anonymous": false,
      "inputs": [],
      "name": "_e_withdraw",
      "type": "event"
    },
    {
      "inputs": [],
      "name": "_process_deposit_register",
      "outputs": [],
      "stateMutability": "nonpayable",
      "type": "function"
    },
    {
      "inputs": [],
      "name": "_process_deposit_existence",
      "outputs": [],
      "stateMutability": "nonpayable",
      "type": "function"
    },
    {
      "inputs": [
        {
          "internalType": "bytes32[]",
          "name": "DR_Proofs",
          "type": "bytes32[]"
        },
        {
          "internalType": "int32[]",
          "name": "DR_Path",
          "type": "int32[]"
        },
        {
          "internalType": "bytes32",
          "name": "DR_intermediate_acc_root",
          "type": "bytes32"
        }
      ],
      "name": "_verify_process_deposit_register",
      "outputs": [],
      "stateMutability": "nonpayable",
      "type": "function"
    },
    {
      "inputs": [
        {
          "internalType": "address[]",
          "name": "from",
          "type": "address[]"
        },
        {
          "internalType": "address[]",
          "name": "to",
          "type": "address[]"
        },
        {
          "internalType": "uint256[]",
          "name": "current_balance",
          "type": "uint256[]"
        },
        {
          "internalType": "uint256[]",
          "name": "deposit_amount",
          "type": "uint256[]"
        },
        {
          "internalType": "bytes32[][]",
          "name": "DE_Proofs_TX",
          "type": "bytes32[][]"
        },
        {
          "internalType": "int32[][]",
          "name": "DE_Path_TX",
          "type": "int32[][]"
        },
        {
          "internalType": "bytes32[][]",
          "name": "DE_Proofs",
          "type": "bytes32[][]"
        },
        {
          "internalType": "int32[][]",
          "name": "DE_Path",
          "type": "int32[][]"
        },
        {
          "internalType": "bytes32[]",
          "name": "DE_intermediate_acc_root",
          "type": "bytes32[]"
        }
      ],
      "name": "_verify_process_deposit_existence",
      "outputs": [],
      "stateMutability": "nonpayable",
      "type": "function"
    },
    {
      "inputs": [
        {
          "internalType": "address",
          "name": "layer2_address",
          "type": "address"
        },
        {
          "internalType": "uint256",
          "name": "amount",
          "type": "uint256"
        }
      ],
      "name": "_deposit",
      "outputs": [],
      "stateMutability": "payable",
      "type": "function",
      "payable": true
    },
    {
      "inputs": [],
      "name": "_transfer",
      "outputs": [],
      "stateMutability": "nonpayable",
      "type": "function"
    },
    {
      "inputs": [],
      "name": "_withdraw",
      "outputs": [],
      "stateMutability": "nonpayable",
      "type": "function"
    }
  ],
  "bytecode": "0x60806040526040518061014001604052807f3cac317908c699fe873a7f6ee4e8cd63fbe9918b2315c97be91585590168e30160001b81526020017fd6a4144868703d1474cd7c5b4b1697b412eece270b7a4428b750c7458f73d16360001b81526020017f70620458a6db5a8631a8cdc160462b1c0c2535bc813757ffc9374638c3999b0a60001b81526020017fba78901e710fee2f40d93e4a43888f008ce586f8ac2f6c493110334e925bab3d60001b81526020017fb3071dfe86f33fe4b792b764c02bf1846e60309294bbc955eecec20de535e79b60001b81526020017fd5f4d4f3a12a96670788488191268eba24edef266e8daf351cc58de6ba070cc860001b81526020017f4383b8a05505a19df40ad49486feca659270f2e61b8cea10def78ca226f4fa6b60001b81526020017f2235dd0e52d5fd51624a4297f90019372475057a149fcf333478b639c6c6a70160001b81526020017f3f196d31b8b97caa45a187e1ecfb14eb76468fb95cee57b1862213861a59337760001b81526020017f9d952dab4bf3d73556437c642f74335230419daf1d9f88bb6096e1a8a027bf4160001b815250600090600a620001ba929190620001fc565b506000600c556000600e556003600f556000600f54600a8110620001e357620001e262000260565b5b0154601055348015620001f557600080fd5b506200028f565b82600a81019282156200022e579160200282015b828111156200022d57825182559160200191906001019062000210565b5b5090506200023d919062000241565b5090565b5b808211156200025c57600081600090555060010162000242565b5090565b7f4e487b7100000000000000000000000000000000000000000000000000000000600052603260045260246000fd5b61198d806200029f6000396000f3fe6080604052600436106100705760003560e01c8063c10eb14d1161004e578063c10eb14d146100d1578063ca9e1993146100e8578063e15545e4146100ff578063f280b4041461011657610070565b806315f153381461007557806361b3b73e1461008c5780636da1339c146100b5575b600080fd5b34801561008157600080fd5b5061008a61013f565b005b34801561009857600080fd5b506100b360048036038101906100ae91906112c5565b610197565b005b6100cf60048036038101906100ca919061148b565b6105d4565b005b3480156100dd57600080fd5b506100e661069e565b005b3480156100f457600080fd5b506100fd6106cc565b005b34801561010b57600080fd5b506101146106ce565b005b34801561012257600080fd5b5061013d600480360381019061013891906114cb565b610726565b005b7fd58c1ccc371dd5bbb84a67781a98176032d05c095dd78d06a8d56476a8ca20f7600d60008154811061017557610174611556565b5b906000526020600020015460405161018d9190611594565b60405180910390a1565b6000601054905060005b86518110156105c65760008782815181106101bf576101be611556565b5b60200260200101515114801561026b57508a81815181106101e3576101e2611556565b5b60200260200101518a82815181106101fe576101fd611556565b5b602002602001015189838151811061021957610218611556565b5b602002602001015160405160200161023393929190611618565b60405160208183030381529060405280519060200120600d60008154811061025e5761025d611556565b5b9060005260206000200154145b806103715750600087828151811061028657610285611556565b5b60200260200101515114158015610370575061036f8b82815181106102ae576102ad611556565b5b60200260200101518b83815181106102c9576102c8611556565b5b60200260200101518a84815181106102e4576102e3611556565b5b60200260200101516040516020016102fe93929190611618565b6040516020818303038152906040528051906020012088838151811061032757610326611556565b5b602002602001015188848151811061034257610341611556565b5b6020026020010151600d60008154811061035f5761035e611556565b5b90600052602060002001546107f4565b5b5b801561043157506104308b828151811061038e5761038d611556565b5b60200260200101518b83815181106103a9576103a8611556565b5b60200260200101518b84815181106103c4576103c3611556565b5b60200260200101516040516020016103de93929190611618565b6040516020818303038152906040528051906020012086838151811061040757610406611556565b5b602002602001015186848151811061042257610421611556565b5b6020026020010151856107f4565b5b8015610530575061052f8b828151811061044e5761044d611556565b5b60200260200101518b838151811061046957610468611556565b5b60200260200101518b848151811061048457610483611556565b5b60200260200101518b858151811061049f5761049e611556565b5b60200260200101516104b19190611684565b6040516020016104c393929190611618565b604051602081830303815290604052805190602001208683815181106104ec576104eb611556565b5b602002602001015186848151811061050757610506611556565b5b602002602001015186858151811061052257610521611556565b5b60200260200101516107f4565b5b156105835782818151811061054857610547611556565b5b602002602001015191507f4b2e923e2135abac6c993892a91a2d7da9f7cf20679e2e646da5518e6ffeb8e760405160405180910390a16105b5565b7eef8f3a585336a810fc25cb8bb4250d76a628e2bc2d13f194b7be5aeb49bcd260405160405180910390a150506105c9565b806105bf906116b8565b90506101a1565b50505b505050505050505050565b600a60008373ffffffffffffffffffffffffffffffffffffffff1673ffffffffffffffffffffffffffffffffffffffff16815260200190815260200160002060009054906101000a900460ff1615610636576106313383836108e7565b61069a565b6001600a60008473ffffffffffffffffffffffffffffffffffffffff1673ffffffffffffffffffffffffffffffffffffffff16815260200190815260200160002060006101000a81548160ff021916908315150217905550610699338383610aa5565b5b5050565b7fd5542f730a37533c5de3502ac66ec84a5cfbd6b09019c2a4d949ceb39fa081df60405160405180910390a1565b565b7fe00b941c20c4a65e5e5d7466063a377367517fc1622e2d6f4bba2f7e875b87ee600b60008154811061070457610703611556565b5b906000526020600020015460405161071c9190611594565b60405180910390a1565b6107536000610736600c54610c0d565b600a811061074757610746611556565b5b015484846010546107f4565b80156107865750610785600b60008154811061077257610771611556565b5b90600052602060002001548484846107f4565b5b156107c357806010819055507f4b2e923e2135abac6c993892a91a2d7da9f7cf20679e2e646da5518e6ffeb8e760405160405180910390a16107ef565b7eef8f3a585336a810fc25cb8bb4250d76a628e2bc2d13f194b7be5aeb49bcd260405160405180910390a15b505050565b60008085905060005b84518160ff1610156108d8576000858260ff168151811061082157610820611556565b5b602002602001015160030b0361087e5781868260ff168151811061084857610847611556565b5b6020026020010151604051602001610861929190611721565b6040516020818303038152906040528051906020012091506108c7565b858160ff168151811061089457610893611556565b5b6020026020010151826040516020016108ae929190611721565b6040516020818303038152906040528051906020012091505b806108d19061175a565b90506107fd565b50828114915050949350505050565b7f80a525842e1d01e57f9a343b2f0038923c31f54c61c6bf032d8bcbc8674a4f9c83838360405161091a939291906117a1565b60405180910390a1600e60008154610931906116b8565b919050819055506000600e549050600084848460405160200161095693929190611618565b60405160208183030381529060405280519060200120905060005b60006002846109809190611807565b03610a1e576002836109929190611838565b9250600d6001600d805490506109a89190611869565b815481106109b9576109b8611556565b5b90600052602060002001549050600d8054806109d8576109d761189d565b5b600190038181906000526020600020016000905590558082604051602001610a01929190611721565b604051602081830303815290604052805190602001209150610971565b600d8290806001815401808255809150506001900390600052602060002001600090919091909150557fbb702eabe00405732c441774f66f61ae35a4c0d78082248c142f2aee7770fd38600d600081548110610a7d57610a7c611556565b5b9060005260206000200154604051610a959190611929565b60405180910390a1505050505050565b7f8d724741b8f05c839dbfcd51d541b3fe27cfdca2e6db569d86498bb303f0db6a838383604051610ad8939291906117a1565b60405180910390a1600c60008154610aef906116b8565b919050819055506000600c5490506000848484604051602001610b1493929190611618565b60405160208183030381529060405280519060200120905060005b6000600284610b3e9190611807565b03610bdc57600283610b509190611838565b9250600b6001600b80549050610b669190611869565b81548110610b7757610b76611556565b5b90600052602060002001549050600b805480610b9657610b9561189d565b5b600190038181906000526020600020016000905590558082604051602001610bbf929190611721565b604051602081830303815290604052805190602001209150610b2f565b600b829080600181540180825580915050600190039060005260206000200160009091909190915055505050505050565b600080600090505b6001831115610c4157600283610c2b9190611838565b9250600181610c3a9190611684565b9050610c15565b80915050919050565b6000604051905090565b600080fd5b600080fd5b600080fd5b6000601f19601f8301169050919050565b7f4e487b7100000000000000000000000000000000000000000000000000000000600052604160045260246000fd5b610cac82610c63565b810181811067ffffffffffffffff82111715610ccb57610cca610c74565b5b80604052505050565b6000610cde610c4a565b9050610cea8282610ca3565b919050565b600067ffffffffffffffff821115610d0a57610d09610c74565b5b602082029050602081019050919050565b600080fd5b600073ffffffffffffffffffffffffffffffffffffffff82169050919050565b6000610d4b82610d20565b9050919050565b610d5b81610d40565b8114610d6657600080fd5b50565b600081359050610d7881610d52565b92915050565b6000610d91610d8c84610cef565b610cd4565b90508083825260208201905060208402830185811115610db457610db3610d1b565b5b835b81811015610ddd5780610dc98882610d69565b845260208401935050602081019050610db6565b5050509392505050565b600082601f830112610dfc57610dfb610c5e565b5b8135610e0c848260208601610d7e565b91505092915050565b600067ffffffffffffffff821115610e3057610e2f610c74565b5b602082029050602081019050919050565b6000819050919050565b610e5481610e41565b8114610e5f57600080fd5b50565b600081359050610e7181610e4b565b92915050565b6000610e8a610e8584610e15565b610cd4565b90508083825260208201905060208402830185811115610ead57610eac610d1b565b5b835b81811015610ed65780610ec28882610e62565b845260208401935050602081019050610eaf565b5050509392505050565b600082601f830112610ef557610ef4610c5e565b5b8135610f05848260208601610e77565b91505092915050565b600067ffffffffffffffff821115610f2957610f28610c74565b5b602082029050602081019050919050565b600067ffffffffffffffff821115610f5557610f54610c74565b5b602082029050602081019050919050565b6000819050919050565b610f7981610f66565b8114610f8457600080fd5b50565b600081359050610f9681610f70565b92915050565b6000610faf610faa84610f3a565b610cd4565b90508083825260208201905060208402830185811115610fd257610fd1610d1b565b5b835b81811015610ffb5780610fe78882610f87565b845260208401935050602081019050610fd4565b5050509392505050565b600082601f83011261101a57611019610c5e565b5b813561102a848260208601610f9c565b91505092915050565b600061104661104184610f0e565b610cd4565b9050808382526020820190506020840283018581111561106957611068610d1b565b5b835b818110156110b057803567ffffffffffffffff81111561108e5761108d610c5e565b5b80860161109b8982611005565b8552602085019450505060208101905061106b565b5050509392505050565b600082601f8301126110cf576110ce610c5e565b5b81356110df848260208601611033565b91505092915050565b600067ffffffffffffffff82111561110357611102610c74565b5b602082029050602081019050919050565b600067ffffffffffffffff82111561112f5761112e610c74565b5b602082029050602081019050919050565b60008160030b9050919050565b61115681611140565b811461116157600080fd5b50565b6000813590506111738161114d565b92915050565b600061118c61118784611114565b610cd4565b905080838252602082019050602084028301858111156111af576111ae610d1b565b5b835b818110156111d857806111c48882611164565b8452602084019350506020810190506111b1565b5050509392505050565b600082601f8301126111f7576111f6610c5e565b5b8135611207848260208601611179565b91505092915050565b600061122361121e846110e8565b610cd4565b9050808382526020820190506020840283018581111561124657611245610d1b565b5b835b8181101561128d57803567ffffffffffffffff81111561126b5761126a610c5e565b5b80860161127889826111e2565b85526020850194505050602081019050611248565b5050509392505050565b600082601f8301126112ac576112ab610c5e565b5b81356112bc848260208601611210565b91505092915050565b60008060008060008060008060006101208a8c0312156112e8576112e7610c54565b5b60008a013567ffffffffffffffff81111561130657611305610c59565b5b6113128c828d01610de7565b99505060208a013567ffffffffffffffff81111561133357611332610c59565b5b61133f8c828d01610de7565b98505060408a013567ffffffffffffffff8111156113605761135f610c59565b5b61136c8c828d01610ee0565b97505060608a013567ffffffffffffffff81111561138d5761138c610c59565b5b6113998c828d01610ee0565b96505060808a013567ffffffffffffffff8111156113ba576113b9610c59565b5b6113c68c828d016110ba565b95505060a08a013567ffffffffffffffff8111156113e7576113e6610c59565b5b6113f38c828d01611297565b94505060c08a013567ffffffffffffffff81111561141457611413610c59565b5b6114208c828d016110ba565b93505060e08a013567ffffffffffffffff81111561144157611440610c59565b5b61144d8c828d01611297565b9250506101008a013567ffffffffffffffff81111561146f5761146e610c59565b5b61147b8c828d01611005565b9150509295985092959850929598565b600080604083850312156114a2576114a1610c54565b5b60006114b085828601610d69565b92505060206114c185828601610e62565b9150509250929050565b6000806000606084860312156114e4576114e3610c54565b5b600084013567ffffffffffffffff81111561150257611501610c59565b5b61150e86828701611005565b935050602084013567ffffffffffffffff81111561152f5761152e610c59565b5b61153b868287016111e2565b925050604061154c86828701610f87565b9150509250925092565b7f4e487b7100000000000000000000000000000000000000000000000000000000600052603260045260246000fd5b61158e81610f66565b82525050565b60006020820190506115a96000830184611585565b92915050565b60008160601b9050919050565b60006115c7826115af565b9050919050565b60006115d9826115bc565b9050919050565b6115f16115ec82610d40565b6115ce565b82525050565b6000819050919050565b61161261160d82610e41565b6115f7565b82525050565b600061162482866115e0565b60148201915061163482856115e0565b6014820191506116448284611601565b602082019150819050949350505050565b7f4e487b7100000000000000000000000000000000000000000000000000000000600052601160045260246000fd5b600061168f82610e41565b915061169a83610e41565b92508282019050808211156116b2576116b1611655565b5b92915050565b60006116c382610e41565b91507fffffffffffffffffffffffffffffffffffffffffffffffffffffffffffffffff82036116f5576116f4611655565b5b600182019050919050565b6000819050919050565b61171b61171682610f66565b611700565b82525050565b600061172d828561170a565b60208201915061173d828461170a565b6020820191508190509392505050565b600060ff82169050919050565b60006117658261174d565b915060ff820361177857611777611655565b5b600182019050919050565b61178c81610d40565b82525050565b61179b81610e41565b82525050565b60006060820190506117b66000830186611783565b6117c36020830185611783565b6117d06040830184611792565b949350505050565b7f4e487b7100000000000000000000000000000000000000000000000000000000600052601260045260246000fd5b600061181282610e41565b915061181d83610e41565b92508261182d5761182c6117d8565b5b828206905092915050565b600061184382610e41565b915061184e83610e41565b92508261185e5761185d6117d8565b5b828204905092915050565b600061187482610e41565b915061187f83610e41565b925082820390508181111561189757611896611655565b5b92915050565b7f4e487b7100000000000000000000000000000000000000000000000000000000600052603160045260246000fd5b600082825260208201905092915050565b7f6465706f7369745f6578697374656e63655f726f6f745b305d00000000000000600082015250565b60006119136019836118cc565b915061191e826118dd565b602082019050919050565b6000604082019050818103600083015261194281611906565b90506119516020830184611585565b9291505056fea26469706673582212205d37e8b99756d539a9ed748d35ca92ebee3de4b925270576600323c2f16bc82c64736f6c63430008130033",
  "immutableReferences": {},
  "source": "pragma solidity >=0.7.0 <0.9.0;\r\n\r\ncontract Middleware {\r\n    /* DATA STRUCURE SECTION */\r\n    bytes32[10] hash0 = [\r\n        bytes32(\r\n            0x3cac317908c699fe873a7f6ee4e8cd63fbe9918b2315c97be91585590168e301\r\n        ),\r\n        bytes32(\r\n            0xd6a4144868703d1474cd7c5b4b1697b412eece270b7a4428b750c7458f73d163\r\n        ),\r\n        bytes32(\r\n            0x70620458a6db5a8631a8cdc160462b1c0c2535bc813757ffc9374638c3999b0a\r\n        ),\r\n        bytes32(\r\n            0xba78901e710fee2f40d93e4a43888f008ce586f8ac2f6c493110334e925bab3d\r\n        ),\r\n        bytes32(\r\n            0xb3071dfe86f33fe4b792b764c02bf1846e60309294bbc955eecec20de535e79b\r\n        ),\r\n        bytes32(\r\n            0xd5f4d4f3a12a96670788488191268eba24edef266e8daf351cc58de6ba070cc8\r\n        ),\r\n        bytes32(\r\n            0x4383b8a05505a19df40ad49486feca659270f2e61b8cea10def78ca226f4fa6b\r\n        ),\r\n        bytes32(\r\n            0x2235dd0e52d5fd51624a4297f90019372475057a149fcf333478b639c6c6a701\r\n        ),\r\n        bytes32(\r\n            0x3f196d31b8b97caa45a187e1ecfb14eb76468fb95cee57b1862213861a593377\r\n        ),\r\n        bytes32(\r\n            0x9d952dab4bf3d73556437c642f74335230419daf1d9f88bb6096e1a8a027bf41\r\n        )\r\n    ];\r\n    mapping(address => bool) exists;\r\n    bytes32[] deposit_register_root;\r\n    uint deposit_register_count = 0;\r\n    bytes32[] deposit_existence_root;\r\n    uint deposit_existence_count = 0;\r\n    uint height_acc_tree = 3;\r\n    bytes32 account_root = hash0[height_acc_tree];\r\n\r\n    // EVENTS\r\n    event _e_deposit_register(address _from, address _to, uint _amount);\r\n    event _e_deposit_existence(address _from, address _to, uint _amount);\r\n    event _e_process_deposit_register(bytes32 deposit_register_root);\r\n    event _e_process_deposit_existence(bytes32 deposit_existence_root);\r\n    event _e_transfer(address _from, address _to, uint _amount);\r\n    event _e_withdraw();\r\n    event _e_valid_proof();\r\n    event _e_invalid_proof();\r\n    event _e_tracking(string text, bytes32 _value);\r\n    event _e_tracking_num(string text, uint num);\r\n    event _e_tracking_addr(string text, address addr);\r\n\r\n    /* END-DATA STRUCURE SECTION */\r\n\r\n    function _process_deposit_register() public {\r\n        emit _e_process_deposit_register(deposit_register_root[0]);\r\n    }\r\n\r\n    function _process_deposit_existence() public {\r\n        emit _e_process_deposit_existence(deposit_existence_root[0]);\r\n    }\r\n\r\n    function __log2(uint i) private pure returns (uint) {\r\n        uint res = 0;\r\n        while (i > 1) {\r\n            i /= 2;\r\n            res += 1;\r\n        }\r\n        return res;\r\n    }\r\n\r\n    function __is_valid_merkle_proof(\r\n        bytes32 node,\r\n        bytes32[] memory proofs,\r\n        int32[] memory path,\r\n        bytes32 root\r\n    ) private pure returns (bool) {\r\n        bytes32 _root = node;\r\n        for (uint8 i = 0; i < path.length; ++i) {\r\n            if (path[i] == 0)\r\n                _root = keccak256(abi.encodePacked(_root, proofs[i]));\r\n            else _root = keccak256(abi.encodePacked(proofs[i], _root));\r\n        }\r\n        return (_root == root);\r\n    }\r\n\r\n    function _verify_process_deposit_register(\r\n        bytes32[] memory DR_Proofs,\r\n        int32[] memory DR_Path,\r\n        bytes32 DR_intermediate_acc_root\r\n    ) public {\r\n        if (\r\n            __is_valid_merkle_proof(\r\n                hash0[__log2(deposit_register_count)],\r\n                DR_Proofs,\r\n                DR_Path,\r\n                account_root\r\n            ) &&\r\n            __is_valid_merkle_proof(\r\n                deposit_register_root[0],\r\n                DR_Proofs,\r\n                DR_Path,\r\n                DR_intermediate_acc_root\r\n            )\r\n        ) {\r\n            account_root = DR_intermediate_acc_root;\r\n            emit _e_valid_proof();\r\n        } else emit _e_invalid_proof();\r\n    }\r\n\r\n    // DR: Deposit Register\r\n    // DE: Deposit Existence\r\n    function _verify_process_deposit_existence(\r\n        address[] memory from,\r\n        address[] memory to,\r\n        uint[] memory current_balance,\r\n        uint[] memory deposit_amount,\r\n        bytes32[][] memory DE_Proofs_TX,\r\n        int32[][] memory DE_Path_TX,\r\n        bytes32[][] memory DE_Proofs,\r\n        int32[][] memory DE_Path,\r\n        bytes32[] memory DE_intermediate_acc_root\r\n    ) public {\r\n        bytes32 intermediate_acc_root = account_root;\r\n        for (uint i = 0; i < DE_Proofs_TX.length; ++i) {\r\n            if (\r\n                (((DE_Proofs_TX[i].length == 0) &&\r\n                    (deposit_existence_root[0] ==\r\n                        keccak256(\r\n                            abi.encodePacked(from[i], to[i], deposit_amount[i])\r\n                        ))) ||\r\n                    ((DE_Proofs_TX[i].length != 0) &&\r\n                        __is_valid_merkle_proof(\r\n                            keccak256(\r\n                                abi.encodePacked(\r\n                                    from[i],\r\n                                    to[i],\r\n                                    deposit_amount[i]\r\n                                )\r\n                            ),\r\n                            DE_Proofs_TX[i],\r\n                            DE_Path_TX[i],\r\n                            deposit_existence_root[0]\r\n                        ))) &&\r\n                __is_valid_merkle_proof(\r\n                    keccak256(\r\n                        abi.encodePacked(from[i], to[i], current_balance[i])\r\n                    ),\r\n                    DE_Proofs[i],\r\n                    DE_Path[i],\r\n                    intermediate_acc_root\r\n                ) &&\r\n                __is_valid_merkle_proof(\r\n                    keccak256(\r\n                        abi.encodePacked(\r\n                            from[i],\r\n                            to[i],\r\n                            uint(deposit_amount[i] + current_balance[i])\r\n                        )\r\n                    ),\r\n                    DE_Proofs[i],\r\n                    DE_Path[i],\r\n                    DE_intermediate_acc_root[i]\r\n                )\r\n            ) {\r\n                intermediate_acc_root = DE_intermediate_acc_root[i];\r\n                emit _e_valid_proof();\r\n            } else {\r\n                emit _e_invalid_proof();\r\n                return;\r\n            }\r\n        }\r\n    }\r\n\r\n    function _deposit(address layer2_address, uint amount) public payable {\r\n        if (exists[layer2_address]) {\r\n            _deposit_existence(msg.sender, layer2_address, amount);\r\n        } else {\r\n            exists[layer2_address] = true;\r\n            _deposit_register(msg.sender, layer2_address, amount);\r\n        }\r\n    }\r\n\r\n    function _deposit_register(\r\n        address l1_addr,\r\n        address l2_addr,\r\n        uint amount\r\n    ) private {\r\n        emit _e_deposit_register(l1_addr, l2_addr, amount);\r\n        ++deposit_register_count;\r\n\r\n        uint cnt = deposit_register_count;\r\n        bytes32 tmp = keccak256(abi.encodePacked(l1_addr, l2_addr, amount));\r\n        bytes32 tmp2;\r\n\r\n        while (cnt % 2 == 0) {\r\n            cnt /= 2;\r\n            tmp2 = deposit_register_root[deposit_register_root.length - 1];\r\n            deposit_register_root.pop();\r\n            tmp = keccak256(abi.encodePacked(tmp2, tmp));\r\n        }\r\n        deposit_register_root.push(tmp);\r\n    }\r\n\r\n    function _deposit_existence(\r\n        address l1_addr,\r\n        address l2_addr,\r\n        uint amount\r\n    ) private {\r\n        emit _e_deposit_existence(l1_addr, l2_addr, amount);\r\n        ++deposit_existence_count;\r\n\r\n        uint cnt = deposit_existence_count;\r\n        bytes32 tmp = keccak256(abi.encodePacked(l1_addr, l2_addr, amount));\r\n        bytes32 tmp2;\r\n\r\n        while (cnt % 2 == 0) {\r\n            cnt /= 2;\r\n            tmp2 = deposit_existence_root[deposit_existence_root.length - 1];\r\n            deposit_existence_root.pop();\r\n            tmp = keccak256(abi.encodePacked(tmp2, tmp));\r\n        }\r\n        deposit_existence_root.push(tmp);\r\n        emit _e_tracking(\r\n            \"deposit_existence_root[0]\",\r\n            deposit_existence_root[0]\r\n        );\r\n    }\r\n\r\n    function _transfer() public {\r\n        // emit _e_transfer();\r\n    }\r\n\r\n    function _withdraw() public {\r\n        emit _e_withdraw();\r\n    }\r\n}\r\n",
  "sourcePath": "C:\\Users\\Public\\code-area\\Solidity\\src\\truffle_project\\contracts\\Middleware.sol",
  "compiler": {
    "name": "solc",
    "version": "0.8.19+commit.7dd6d404.Emscripten.clang"
  },
  "schemaVersion": "3.4.13",
  "updatedAt": "2023-06-17T09:13:15.916Z",
  "networkType": "ethereum",
  "devdoc": {
    "kind": "dev",
    "methods": {},
    "version": 1
  },
  "userdoc": {
    "kind": "user",
    "methods": {},
    "version": 1
  }
}