{
  "contractName": "Middleware",
  "abi": [
    {
      "anonymous": false,
      "inputs": [
        {
          "indexed": false,
          "internalType": "address",
          "name": "_from",
          "type": "address"
        },
        {
          "indexed": false,
          "internalType": "address",
          "name": "_to",
          "type": "address"
        },
        {
          "indexed": false,
          "internalType": "uint256",
          "name": "amount",
          "type": "uint256"
        }
      ],
      "name": "_e_deposit_existence",
      "type": "event"
    },
    {
      "anonymous": false,
      "inputs": [
        {
          "indexed": false,
          "internalType": "bytes32",
          "name": "new_root",
          "type": "bytes32"
        }
      ],
      "name": "_e_deposit_existence_root_change",
      "type": "event"
    },
    {
      "anonymous": false,
      "inputs": [
        {
          "indexed": false,
          "internalType": "address",
          "name": "_from",
          "type": "address"
        },
        {
          "indexed": false,
          "internalType": "address",
          "name": "_to",
          "type": "address"
        },
        {
          "indexed": false,
          "internalType": "uint256",
          "name": "amount",
          "type": "uint256"
        }
      ],
      "name": "_e_deposit_register",
      "type": "event"
    },
    {
      "anonymous": false,
      "inputs": [
        {
          "indexed": false,
          "internalType": "bytes32",
          "name": "new_root",
          "type": "bytes32"
        }
      ],
      "name": "_e_deposit_register_root_change",
      "type": "event"
    },
    {
      "anonymous": false,
      "inputs": [],
      "name": "_e_process_deposit_tx",
      "type": "event"
    },
    {
      "anonymous": false,
      "inputs": [
        {
          "indexed": false,
          "internalType": "address",
          "name": "_from",
          "type": "address"
        },
        {
          "indexed": false,
          "internalType": "address",
          "name": "_to",
          "type": "address"
        },
        {
          "indexed": false,
          "internalType": "uint256",
          "name": "amount",
          "type": "uint256"
        }
      ],
      "name": "_e_transfer",
      "type": "event"
    },
    {
      "anonymous": false,
      "inputs": [],
      "name": "_e_withdraw",
      "type": "event"
    },
    {
      "inputs": [],
      "name": "_demo",
      "outputs": [
        {
          "internalType": "uint256",
          "name": "",
          "type": "uint256"
        }
      ],
      "stateMutability": "pure",
      "type": "function",
      "constant": true
    },
    {
      "inputs": [],
      "name": "_process_deposit",
      "outputs": [],
      "stateMutability": "nonpayable",
      "type": "function"
    },
    {
      "inputs": [
        {
          "internalType": "address",
          "name": "layer2_address",
          "type": "address"
        },
        {
          "internalType": "uint256",
          "name": "amount",
          "type": "uint256"
        }
      ],
      "name": "_deposit",
      "outputs": [
        {
          "internalType": "uint256",
          "name": "",
          "type": "uint256"
        }
      ],
      "stateMutability": "payable",
      "type": "function",
      "payable": true
    },
    {
      "inputs": [],
      "name": "_transfer",
      "outputs": [],
      "stateMutability": "nonpayable",
      "type": "function"
    },
    {
      "inputs": [],
      "name": "_withdraw",
      "outputs": [],
      "stateMutability": "nonpayable",
      "type": "function"
    }
  ],
  "bytecode": "0x60806040526000600255600060045534801561001a57600080fd5b50610a048061002a6000396000f3fe60806040526004361061004a5760003560e01c80632c55f98a1461004f5780636da1339c1461007a5780637951ad54146100aa578063c10eb14d146100c1578063ca9e1993146100d8575b600080fd5b34801561005b57600080fd5b506100646100ef565b60405161007191906105dd565b60405180910390f35b610094600480360381019061008f9190610687565b6100f8565b6040516100a191906105dd565b60405180910390f35b3480156100b657600080fd5b506100bf6101c8565b005b3480156100cd57600080fd5b506100d66101f6565b005b3480156100e457600080fd5b506100ed610224565b005b60006001905090565b60008060008473ffffffffffffffffffffffffffffffffffffffff1673ffffffffffffffffffffffffffffffffffffffff16815260200190815260200160002060009054906101000a900460ff161561015d57610156338484610226565b90506101c2565b60016000808573ffffffffffffffffffffffffffffffffffffffff1673ffffffffffffffffffffffffffffffffffffffff16815260200190815260200160002060006101000a81548160ff0219169083151502179055506101bf3384846103f6565b90505b92915050565b7f2ba4f31a691fd349487f17c518902e84bc1cf301c068d25fd9d0ede314ca215260405160405180910390a1565b7fd5542f730a37533c5de3502ac66ec84a5cfbd6b09019c2a4d949ceb39fa081df60405160405180910390a1565b565b60007f80a525842e1d01e57f9a343b2f0038923c31f54c61c6bf032d8bcbc8674a4f9c84848460405161025b939291906106d6565b60405180910390a16004600081546102729061073c565b91905081905550600060045490506000858585604051602001610297939291906107ed565b60405160208183030381529060405280519060200120905060005b60006002846102c19190610859565b0361035f576002836102d3919061088a565b9250600360016003805490506102e991906108bb565b815481106102fa576102f96108ef565b5b9060005260206000200154905060038054806103195761031861091e565b5b600190038181906000526020600020016000905590558181604051602001610342929190610978565b6040516020818303038152906040528051906020012091506102b2565b600382908060018154018082558091505060019003906000526020600020016000909190919091505560045483146103e8577f9ec86dbb3c0f5948851da575b6d3a31fa3ac2a968bd6f9640ee26d0720f38d5760036000815481106103c7576103c66108ef565b5b90600052602060002001546040516103df91906109b3565b60405180910390a15b600193505050509392505050565b60007f8d724741b8f05c839dbfcd51d541b3fe27cfdca2e6db569d86498bb303f0db6a84848460405161042b939291906106d6565b60405180910390a16002600081546104429061073c565b91905081905550600060025490506000858585604051602001610467939291906107ed565b60405160208183030381529060405280519060200120905060005b60006002846104919190610859565b0361052d576002836104a3919061088a565b925060018080805490506104b791906108bb565b815481106104c8576104c76108ef565b5b9060005260206000200154905060018054806104e7576104e661091e565b5b600190038181906000526020600020016000905590558181604051602001610510929190610978565b604051602081830303815290604052805190602001209150610482565b600182908060018154018082558091505060019003906000526020600020016000909190919091505560025483146105b6577f219fcaba2c8b762fe7ba0da8deaf3e8b65f497a5756ab1c60d9489ec83f9c2066001600081548110610595576105946108ef565b5b90600052602060002001546040516105ad91906109b3565b60405180910390a15b600093505050509392505050565b6000819050919050565b6105d7816105c4565b82525050565b60006020820190506105f260008301846105ce565b92915050565b600080fd5b600073ffffffffffffffffffffffffffffffffffffffff82169050919050565b6000610628826105fd565b9050919050565b6106388161061d565b811461064357600080fd5b50565b6000813590506106558161062f565b92915050565b610664816105c4565b811461066f57600080fd5b50565b6000813590506106818161065b565b92915050565b6000806040838503121561069e5761069d6105f8565b5b60006106ac85828601610646565b92505060206106bd85828601610672565b9150509250929050565b6106d08161061d565b82525050565b60006060820190506106eb60008301866106c7565b6106f860208301856106c7565b61070560408301846105ce565b949350505050565b7f4e487b7100000000000000000000000000000000000000000000000000000000600052601160045260246000fd5b6000610747826105c4565b91507fffffffffffffffffffffffffffffffffffffffffffffffffffffffffffffffff82036107795761077861070d565b5b600182019050919050565b60008160601b9050919050565b600061079c82610784565b9050919050565b60006107ae82610791565b9050919050565b6107c66107c18261061d565b6107a3565b82525050565b6000819050919050565b6107e76107e2826105c4565b6107cc565b82525050565b60006107f982866107b5565b60148201915061080982856107b5565b60148201915061081982846107d6565b602082019150819050949350505050565b7f4e487b7100000000000000000000000000000000000000000000000000000000600052601260045260246000fd5b6000610864826105c4565b915061086f836105c4565b92508261087f5761087e61082a565b5b828206905092915050565b6000610895826105c4565b91506108a0836105c4565b9250826108b0576108af61082a565b5b828204905092915050565b60006108c6826105c4565b91506108d1836105c4565b92508282039050818111156108e9576108e861070d565b5b92915050565b7f4e487b7100000000000000000000000000000000000000000000000000000000600052603260045260246000fd5b7f4e487b7100000000000000000000000000000000000000000000000000000000600052603160045260246000fd5b6000819050919050565b6000819050919050565b61097261096d8261094d565b610957565b82525050565b60006109848285610961565b6020820191506109948284610961565b6020820191508190509392505050565b6109ad8161094d565b82525050565b60006020820190506109c860008301846109a4565b9291505056fea26469706673582212204934165bef1da6b885844ce2b0b615dc22a027b62a832a67fccafd50f78c88d064736f6c63430008130033",
  "immutableReferences": {},
  "source": "pragma solidity >=0.7.0 <0.9.0;\r\n\r\ncontract Middleware {\r\n    mapping(address => bool) exists;\r\n    bytes32[] deposit_register_root;\r\n    uint deposit_register_count = 0;\r\n    bytes32[] deposit_existence_root;\r\n    uint deposit_existence_count = 0;\r\n    bytes32 account_root;\r\n\r\n    event _e_deposit_register(address _from, address _to, uint amount);\r\n    event _e_deposit_existence(address _from, address _to, uint amount);\r\n    event _e_transfer(address _from, address _to, uint amount);\r\n    event _e_withdraw();\r\n    event _e_deposit_register_root_change(bytes32 new_root);\r\n    event _e_deposit_existence_root_change(bytes32 new_root);\r\n    event _e_process_deposit_tx();\r\n\r\n    function _demo() pure public returns(uint) {\r\n        return 1;\r\n    }\r\n\r\n    function _process_deposit() public {\r\n        emit _e_process_deposit_tx();\r\n    }\r\n\r\n    function _deposit(address layer2_address, uint amount) payable public  returns(uint){\r\n        \r\n        if (exists[layer2_address]) {\r\n            return _deposit_existence(msg.sender, layer2_address, amount);\r\n            // return 1;\r\n        }\r\n        else {\r\n            exists[layer2_address] = true;\r\n            return _deposit_register(msg.sender, layer2_address, amount);\r\n            // return 0;\r\n        }\r\n    }\r\n\r\n\r\n    function _deposit_register(address l1_addr, address l2_addr, uint amount) private returns(uint) {\r\n        emit _e_deposit_register(l1_addr, l2_addr, amount);\r\n        ++deposit_register_count;\r\n\r\n        uint cnt = deposit_register_count;\r\n        bytes32 tmp = keccak256(abi.encodePacked(l1_addr, l2_addr, amount));\r\n        bytes32 tmp2;\r\n\r\n        while (cnt % 2 == 0) {\r\n            cnt /= 2;\r\n            tmp2 = deposit_register_root[deposit_register_root.length-1];\r\n            deposit_register_root.pop();\r\n            tmp = keccak256(abi.encodePacked(tmp, tmp2));\r\n        }\r\n        deposit_register_root.push(tmp);\r\n\r\n        if (cnt != deposit_register_count)\r\n            emit _e_deposit_register_root_change(deposit_register_root[0]);\r\n        return 0;\r\n    }\r\n\r\n\r\n    function _deposit_existence(address l1_addr, address l2_addr, uint amount) private returns(uint) {\r\n        emit _e_deposit_existence(l1_addr, l2_addr, amount);\r\n        ++deposit_existence_count;\r\n\r\n        uint cnt = deposit_existence_count;\r\n        bytes32 tmp = keccak256(abi.encodePacked(l1_addr, l2_addr, amount));\r\n        bytes32 tmp2;\r\n\r\n        while (cnt % 2 == 0) {\r\n            cnt /= 2;\r\n            tmp2 = deposit_existence_root[deposit_existence_root.length-1];\r\n            deposit_existence_root.pop();\r\n            tmp = keccak256(abi.encodePacked(tmp, tmp2));\r\n        }\r\n        deposit_existence_root.push(tmp);\r\n\r\n        if (cnt != deposit_existence_count)\r\n            emit _e_deposit_existence_root_change(deposit_existence_root[0]);\r\n        return 1;\r\n    }\r\n\r\n\r\n    function _transfer() public {\r\n        // emit _e_transfer();\r\n    }\r\n\r\n\r\n    function _withdraw() public {\r\n        emit _e_withdraw();\r\n    }\r\n}",
  "sourcePath": "C:\\Users\\Public\\code-area\\Solidity\\src\\truffle_project\\contracts\\Middleware.sol",
  "compiler": {
    "name": "solc",
    "version": "0.8.19+commit.7dd6d404.Emscripten.clang"
  },
  "schemaVersion": "3.4.13",
  "updatedAt": "2023-04-27T19:15:45.607Z",
  "networkType": "ethereum",
  "devdoc": {
    "kind": "dev",
    "methods": {},
    "version": 1
  },
  "userdoc": {
    "kind": "user",
    "methods": {},
    "version": 1
  }
}