{
  "contractName": "Middleware",
  "abi": [
    {
      "anonymous": false,
      "inputs": [
        {
          "indexed": false,
          "internalType": "address",
          "name": "_from",
          "type": "address"
        },
        {
          "indexed": false,
          "internalType": "address",
          "name": "_to",
          "type": "address"
        },
        {
          "indexed": false,
          "internalType": "uint256",
          "name": "amount",
          "type": "uint256"
        }
      ],
      "name": "_e_deposit_existence",
      "type": "event"
    },
    {
      "anonymous": false,
      "inputs": [
        {
          "indexed": false,
          "internalType": "bytes32",
          "name": "new_root",
          "type": "bytes32"
        }
      ],
      "name": "_e_deposit_existence_root_change",
      "type": "event"
    },
    {
      "anonymous": false,
      "inputs": [
        {
          "indexed": false,
          "internalType": "address",
          "name": "_from",
          "type": "address"
        },
        {
          "indexed": false,
          "internalType": "address",
          "name": "_to",
          "type": "address"
        },
        {
          "indexed": false,
          "internalType": "uint256",
          "name": "amount",
          "type": "uint256"
        }
      ],
      "name": "_e_deposit_register",
      "type": "event"
    },
    {
      "anonymous": false,
      "inputs": [
        {
          "indexed": false,
          "internalType": "bytes32",
          "name": "new_root",
          "type": "bytes32"
        }
      ],
      "name": "_e_deposit_register_root_change",
      "type": "event"
    },
    {
      "anonymous": false,
      "inputs": [
        {
          "indexed": false,
          "internalType": "address",
          "name": "_from",
          "type": "address"
        },
        {
          "indexed": false,
          "internalType": "address",
          "name": "_to",
          "type": "address"
        },
        {
          "indexed": false,
          "internalType": "uint256",
          "name": "amount",
          "type": "uint256"
        }
      ],
      "name": "_e_transfer",
      "type": "event"
    },
    {
      "anonymous": false,
      "inputs": [],
      "name": "_e_withdraw",
      "type": "event"
    },
    {
      "inputs": [],
      "name": "_demo",
      "outputs": [
        {
          "internalType": "uint256",
          "name": "",
          "type": "uint256"
        }
      ],
      "stateMutability": "pure",
      "type": "function",
      "constant": true
    },
    {
      "inputs": [
        {
          "internalType": "address",
          "name": "layer2_address",
          "type": "address"
        },
        {
          "internalType": "uint256",
          "name": "amount",
          "type": "uint256"
        }
      ],
      "name": "_deposit",
      "outputs": [
        {
          "internalType": "uint256",
          "name": "",
          "type": "uint256"
        }
      ],
      "stateMutability": "payable",
      "type": "function",
      "payable": true
    },
    {
      "inputs": [],
      "name": "_transfer",
      "outputs": [],
      "stateMutability": "nonpayable",
      "type": "function"
    },
    {
      "inputs": [],
      "name": "_withdraw",
      "outputs": [],
      "stateMutability": "nonpayable",
      "type": "function"
    }
  ],
  "bytecode": "0x60806040526000600255600060045534801561001a57600080fd5b506105818061002a6000396000f3fe60806040526004361061003f5760003560e01c80632c55f98a146100445780636da1339c1461006f578063c10eb14d1461009f578063ca9e1993146100b6575b600080fd5b34801561005057600080fd5b506100596100cd565b6040516100669190610341565b60405180910390f35b610089600480360381019061008491906103eb565b6100d6565b6040516100969190610341565b60405180910390f35b3480156100ab57600080fd5b506100b46101a6565b005b3480156100c257600080fd5b506100cb6101d4565b005b60006001905090565b60008060008473ffffffffffffffffffffffffffffffffffffffff1673ffffffffffffffffffffffffffffffffffffffff16815260200190815260200160002060009054906101000a900460ff161561013b576101343384846101d6565b90506101a0565b60016000808573ffffffffffffffffffffffffffffffffffffffff1673ffffffffffffffffffffffffffffffffffffffff16815260200190815260200160002060006101000a81548160ff02191690831515021790555061019d33848461027f565b90505b92915050565b7fd5542f730a37533c5de3502ac66ec84a5cfbd6b09019c2a4d949ceb39fa081df60405160405180910390a1565b565b60007f80a525842e1d01e57f9a343b2f0038923c31f54c61c6bf032d8bcbc8674a4f9c84848460405161020b9392919061043a565b60405180910390a17f9ec86dbb3c0f5948851da575b6d3a31fa3ac2a968bd6f9640ee26d0720f38d57848484604051602001610249939291906104da565b6040516020818303038152906040528051906020012060405161026c9190610530565b60405180910390a1600190509392505050565b60007f8d724741b8f05c839dbfcd51d541b3fe27cfdca2e6db569d86498bb303f0db6a8484846040516102b49392919061043a565b60405180910390a17f219fcaba2c8b762fe7ba0da8deaf3e8b65f497a5756ab1c60d9489ec83f9c2068484846040516020016102f2939291906104da565b604051602081830303815290604052805190602001206040516103159190610530565b60405180910390a1600090509392505050565b6000819050919050565b61033b81610328565b82525050565b60006020820190506103566000830184610332565b92915050565b600080fd5b600073ffffffffffffffffffffffffffffffffffffffff82169050919050565b600061038c82610361565b9050919050565b61039c81610381565b81146103a757600080fd5b50565b6000813590506103b981610393565b92915050565b6103c881610328565b81146103d357600080fd5b50565b6000813590506103e5816103bf565b92915050565b600080604083850312156104025761040161035c565b5b6000610410858286016103aa565b9250506020610421858286016103d6565b9150509250929050565b61043481610381565b82525050565b600060608201905061044f600083018661042b565b61045c602083018561042b565b6104696040830184610332565b949350505050565b60008160601b9050919050565b600061048982610471565b9050919050565b600061049b8261047e565b9050919050565b6104b36104ae82610381565b610490565b82525050565b6000819050919050565b6104d46104cf82610328565b6104b9565b82525050565b60006104e682866104a2565b6014820191506104f682856104a2565b60148201915061050682846104c3565b602082019150819050949350505050565b6000819050919050565b61052a81610517565b82525050565b60006020820190506105456000830184610521565b9291505056fea264697066735822122037633b6ae93ba9a574b2d03f36c9c54680c67ecde75698a0c7513e82b293425e64736f6c63430008130033",
  "immutableReferences": {},
  "source": "pragma solidity >=0.7.0 <0.9.0;\r\n\r\ncontract Middleware {\r\n    mapping(address => bool) exists;\r\n    bytes32[] deposit_register_root;\r\n    uint deposit_register_count = 0;\r\n    bytes32[] deposit_existence_root;\r\n    uint deposit_existence_count = 0;\r\n\r\n    event _e_deposit_register(address _from, address _to, uint amount);\r\n    event _e_deposit_existence(address _from, address _to, uint amount);\r\n    event _e_transfer(address _from, address _to, uint amount);\r\n    event _e_withdraw();\r\n    event _e_deposit_register_root_change(bytes32 new_root);\r\n    event _e_deposit_existence_root_change(bytes32 new_root);\r\n\r\n    function _demo() pure public returns(uint) {\r\n        return 1;\r\n    }\r\n\r\n\r\n    function _deposit(address layer2_address, uint amount) payable public  returns(uint){\r\n        \r\n        if (exists[layer2_address]) {\r\n            return _deposit_existence(msg.sender, layer2_address, amount);\r\n            // return 1;\r\n        }\r\n        else {\r\n            exists[layer2_address] = true;\r\n            return _deposit_register(msg.sender, layer2_address, amount);\r\n            // return 0;\r\n        }\r\n    }\r\n\r\n\r\n    function _deposit_register(address l1_addr, address l2_addr, uint amount) private returns(uint) {\r\n        emit _e_deposit_register(l1_addr, l2_addr, amount);\r\n        emit _e_deposit_register_root_change(keccak256(abi.encodePacked(l1_addr, l2_addr, amount)));\r\n        // ++deposit_register_count;\r\n\r\n        // uint cnt = deposit_register_count;\r\n        // bytes32 tmp = keccak256(abi.encodePacked(l1_addr, l2_addr, amount));\r\n        // bytes32 tmp2;\r\n\r\n        // while (cnt % 2 == 0) {\r\n        //     cnt /= 2;\r\n        //     tmp2 = deposit_register_root[deposit_register_root.length-1];\r\n        //     deposit_register_root.pop();\r\n        //     tmp = keccak256(abi.encodePacked(tmp, tmp2));\r\n        // }\r\n        // deposit_register_root.push(tmp);\r\n        return 0;\r\n    }\r\n\r\n\r\n    function _deposit_existence(address l1_addr, address l2_addr, uint amount) private returns(uint) {\r\n        emit _e_deposit_existence(l1_addr, l2_addr, amount);\r\n        emit _e_deposit_existence_root_change(keccak256(abi.encodePacked(l1_addr, l2_addr, amount)));\r\n        // ++deposit_existence_count;\r\n\r\n        // uint cnt = deposit_existence_count;\r\n        // bytes32 tmp = keccak256(abi.encodePacked(l1_addr, l2_addr, amount));\r\n        // bytes32 tmp2;\r\n\r\n        // while (cnt % 2 == 0) {\r\n        //     cnt /= 2;\r\n        //     tmp2 = deposit_existence_root[deposit_existence_root.length-1];\r\n        //     deposit_existence_root.pop();\r\n        //     tmp = keccak256(abi.encodePacked(tmp, tmp2));\r\n        // }\r\n        // deposit_existence_root.push(tmp);\r\n        return 1;\r\n    }\r\n\r\n\r\n    function _transfer() public {\r\n        // emit _e_transfer();\r\n    }\r\n\r\n\r\n    function _withdraw() public {\r\n        emit _e_withdraw();\r\n    }\r\n}",
  "sourcePath": "C:\\Users\\Public\\code-area\\Solidity\\src\\truffle_project\\contracts\\Middleware.sol",
  "compiler": {
    "name": "solc",
    "version": "0.8.19+commit.7dd6d404.Emscripten.clang"
  },
  "schemaVersion": "3.4.13",
  "updatedAt": "2023-04-25T19:24:54.537Z",
  "networkType": "ethereum",
  "devdoc": {
    "kind": "dev",
    "methods": {},
    "version": 1
  },
  "userdoc": {
    "kind": "user",
    "methods": {},
    "version": 1
  }
}