{
  "contractName": "DepositRegisterVerifier",
  "abi": [
    {
      "inputs": [
        {
          "internalType": "uint256[2]",
          "name": "_pA",
          "type": "uint256[2]"
        },
        {
          "internalType": "uint256[2][2]",
          "name": "_pB",
          "type": "uint256[2][2]"
        },
        {
          "internalType": "uint256[2]",
          "name": "_pC",
          "type": "uint256[2]"
        },
        {
          "internalType": "uint256[4]",
          "name": "_pubSignals",
          "type": "uint256[4]"
        }
      ],
      "name": "verifyProof",
      "outputs": [
        {
          "internalType": "bool",
          "name": "",
          "type": "bool"
        }
      ],
      "stateMutability": "view",
      "type": "function"
    }
  ],
  "bytecode": "0x608060405234801561001057600080fd5b50610724806100206000396000f3fe608060405234801561001057600080fd5b506004361061002b5760003560e01c80635fe8c13b14610030575b600080fd5b61004a6004803603810190610045919061064f565b610060565b60405161005791906106d3565b60405180910390f35b600061057c565b7f30644e72e131a029b85045b68181585d97816a916871ca8d3c208c16d87cfd478110610098576000805260206000f35b50565b600060405183815284602082015285604082015260408160608360076107d05a03fa9150816100ce576000805260206000f35b825160408201526020830151606082015260408360808360066107d05a03fa9150816100fe576000805260206000f35b505050505050565b600060808601600087017f2d7aef4dacbf074b67b0435003beab901c46d7148623c9743d96f771905676d181527e38ce559c0e261a91fa95a5b9529b346f5a9c58f5a68f5fd288b45576223dff60208201526101a860008801357f06eda17b868255463022b53906d5ab86ffd45bc4863e06c2749f1215f6feab527f06b70ceb3d4920d983c59e4ed60465546e203ec9ef2fd0908d28837a33f94a7a8461009b565b6101f860208801357f16bea1b4cb21a097bcc8d2bc72dfc5bb883b45e9ed04579c6264df705203a9b57f04d8e0d74a9b1442b8ad8f429fd4ca36f160d4fb8c2ebc59bacc09ee66b09e378461009b565b61024860408801357f0204f4ace627c47608466c9c583f56f9a5584b1228e933a3e905bad0801c94957f1d0d008e53a0927c1cf3d548f9e3dcb63901389de34b0c00528bd4ca1b74bc108461009b565b61029860608801357f212d13a2a62a7388c373fe480f95fd982a8900931adeb713f5cd463f6d0ddc917f20ef3224f03062c7a1068be0c12e523457bc1be72ea2775e0532c0d640417f208461009b565b833582527f30644e72e131a029b85045b68181585d97816a916871ca8d3c208c16d87cfd4760208501357f30644e72e131a029b85045b68181585d97816a916871ca8d3c208c16d87cfd4703066020830152843560408301526020850135606083015260408501356080830152606085013560a08301527f05ba24cecf2444285b0dff3e66bf64cae51ad7cc7e88cac30eb7d0684d4d4f8860c08301527f0ff2df766d5153e77d185c2733928d16e23944c9b2dfaf312ee95c06babc76e060e08301527f0c0a54352f1468dbb9dedc826075265ff2e3e00805965d8b7daf0a794757b7036101008301527f2ac605bb9c1eb01a8b6b34e5f77b8e126869d5313e7a8c64f7a74231dfe00c8f6101208301527f2f68e3b4505a2774d4661a51c4a180d8c5fd226d98ae824692ee64d3104188076101408301527f1d253c753f5ef0678a6c8664868f8ab0e98340bd8f5292d88570036ec197b702610160830152600088015161018083015260206000018801516101a08301527f198e9393920d483a7260bfb731fb5d25f1aa493335a9e71297e485b7aef312c26101c08301527f1800deef121f1e76426a00665e5c4479674322d4f75edadd46debd5cd992f6ed6101e08301527f090689d0585ff075ec9e99ad690c3395bc4b313370b38ef355acdadcd122975b6102008301527f12c85ea5db8c6deb4aab71808dcb408fe3d1e7690c43d37b4ce6cc0166fa7daa610220830152853561024083015260208601356102608301527f056dd6dff00cc7e0eef27b7d4295df9ca4d8d59a623690f150ba41ed9fc629a26102808301527f2dceedf7b148f2b00bab09301b399f6036ff77990cee962a413268d6487f708f6102a08301527f197a282db166d94c67c81ba6cadb8c416c2816a7638d8035ecbc3ff5030b9c026102c08301527f0da6c6b2c981f5493e96373af515ae54411aa9047a25964de97f322e58d0eccc6102e08301526020826103008460086107d05a03fa82518116935050505095945050505050565b60405161038081016040526105946000840135610067565b6105a16020840135610067565b6105ae6040840135610067565b6105bb6060840135610067565b6105c86080840135610067565b6105d5818486888a610106565b8060005260206000f35b600080fd5b600080fd5b600081905082602060020282011115610605576106046105e4565b5b92915050565b600081905082604060020282011115610627576106266105e4565b5b92915050565b600081905082602060040282011115610649576106486105e4565b5b92915050565b600080600080610180858703121561066a576106696105df565b5b6000610678878288016105e9565b94505060406106898782880161060b565b93505060c061069a878288016105e9565b9250506101006106ac8782880161062d565b91505092959194509250565b60008115159050919050565b6106cd816106b8565b82525050565b60006020820190506106e860008301846106c4565b9291505056fea26469706673582212203796b22b976518a4a72d48901122d843d76142a5ac5f1a221c4b849f3bff43fd64736f6c63430008130033",
  "immutableReferences": {},
  "source": "// SPDX-License-Identifier: GPL-3.0\n/*\n    Copyright 2021 0KIMS association.\n\n    This file is generated with [snarkJS](https://github.com/iden3/snarkjs).\n\n    snarkJS is a free software: you can redistribute it and/or modify it\n    under the terms of the GNU General Public License as published by\n    the Free Software Foundation, either version 3 of the License, or\n    (at your option) any later version.\n\n    snarkJS is distributed in the hope that it will be useful, but WITHOUT\n    ANY WARRANTY; without even the implied warranty of MERCHANTABILITY\n    or FITNESS FOR A PARTICULAR PURPOSE. See the GNU General Public\n    License for more details.\n\n    You should have received a copy of the GNU General Public License\n    along with snarkJS. If not, see <https://www.gnu.org/licenses/>.\n*/\n\npragma solidity >=0.7.0 <0.9.0;\n\ncontract DepositRegisterVerifier {\n    // Scalar field size\n    uint256 constant r    = 21888242871839275222246405745257275088548364400416034343698204186575808495617;\n    // Base field size\n    uint256 constant q   = 21888242871839275222246405745257275088696311157297823662689037894645226208583;\n\n    // Verification Key data\n    uint256 constant alphax  = 2590451835397172762008221174513921772732715729797799580222632333856146804616;\n    uint256 constant alphay  = 7213812000646901940953100565863120551053197439775140004777659333263201433312;\n    uint256 constant betax1  = 5446003834175358002125986002729219741323546376245608355256822634481259624195;\n    uint256 constant betax2  = 19347014926006410891119489720601484877436723915704397479877970910825590819983;\n    uint256 constant betay1  = 21444027535823664358877643056866365001679627876696011208101578156609282082823;\n    uint256 constant betay2  = 13182863216079823020755481502292407048245078800353818915224357404317238933250;\n    uint256 constant gammax1 = 11559732032986387107991004021392285783925812861821192530917403151452391805634;\n    uint256 constant gammax2 = 10857046999023057135944570762232829481370756359578518086990519993285655852781;\n    uint256 constant gammay1 = 4082367875863433681332203403145435568316851327593401208105741076214120093531;\n    uint256 constant gammay2 = 8495653923123431417604973247489272438418190587263600148770280649306958101930;\n    uint256 constant deltax1 = 2455633584043703495760638385843218973307716793814904752359762523053963487650;\n    uint256 constant deltax2 = 20719691073252635489948518870489004006105739937262292802437799692479691190415;\n    uint256 constant deltay1 = 11523653858218679418578922531253967522909174633659052477857079490256824933378;\n    uint256 constant deltay2 = 6174735010204078438945333943315312776668623231252408771693127559609622523084;\n\n    \n    uint256 constant IC0x = 20571285139635025411848509554062193053610464102239030282998409880689706432209;\n    uint256 constant IC0y = 100367503405033083076521961511561714198538273335235539243864169037403667967;\n    \n    uint256 constant IC1x = 3037299267351803967052121368075831504932282163777885821859274259225818778234;\n    uint256 constant IC1y = 3133734357252811768660424845579825871515930433821256438575500780090546891602;\n    \n    uint256 constant IC2x = 2192442155752316535006548985116804681110209201287712823089463872635844730423;\n    uint256 constant IC2y = 10287699666484215618592332043371397295668572948181480399915267254168802535861;\n    \n    uint256 constant IC3x = 13140045457876246777309918671634103626832324968759688450920152430488212257808;\n    uint256 constant IC3y = 913381772883276415498779244012280287157849823215038854582868455112350405781;\n    \n    uint256 constant IC4x = 14896633686316832616490683111223716547291143989874720923869528659558356057888;\n    uint256 constant IC4y = 15005967639354071081452341159195835565289305997851880212357806088003630521489;\n    \n \n    // Memory data\n    uint16 constant pVk = 0;\n    uint16 constant pPairing = 128;\n\n    uint16 constant pLastMem = 896;\n\n    function verifyProof(uint[2] calldata _pA, uint[2][2] calldata _pB, uint[2] calldata _pC, uint[4] calldata _pubSignals) public view returns (bool) {\n        assembly {\n            function checkField(v) {\n                if iszero(lt(v, q)) {\n                    mstore(0, 0)\n                    return(0, 0x20)\n                }\n            }\n            \n            // G1 function to multiply a G1 value(x,y) to value in an address\n            function g1_mulAccC(pR, x, y, s) {\n                let success\n                let mIn := mload(0x40)\n                mstore(mIn, x)\n                mstore(add(mIn, 32), y)\n                mstore(add(mIn, 64), s)\n\n                success := staticcall(sub(gas(), 2000), 7, mIn, 96, mIn, 64)\n\n                if iszero(success) {\n                    mstore(0, 0)\n                    return(0, 0x20)\n                }\n\n                mstore(add(mIn, 64), mload(pR))\n                mstore(add(mIn, 96), mload(add(pR, 32)))\n\n                success := staticcall(sub(gas(), 2000), 6, mIn, 128, pR, 64)\n\n                if iszero(success) {\n                    mstore(0, 0)\n                    return(0, 0x20)\n                }\n            }\n\n            function checkPairing(pA, pB, pC, pubSignals, pMem) -> isOk {\n                let _pPairing := add(pMem, pPairing)\n                let _pVk := add(pMem, pVk)\n\n                mstore(_pVk, IC0x)\n                mstore(add(_pVk, 32), IC0y)\n\n                // Compute the linear combination vk_x\n                \n                g1_mulAccC(_pVk, IC1x, IC1y, calldataload(add(pubSignals, 0)))\n                \n                g1_mulAccC(_pVk, IC2x, IC2y, calldataload(add(pubSignals, 32)))\n                \n                g1_mulAccC(_pVk, IC3x, IC3y, calldataload(add(pubSignals, 64)))\n                \n                g1_mulAccC(_pVk, IC4x, IC4y, calldataload(add(pubSignals, 96)))\n                \n\n                // -A\n                mstore(_pPairing, calldataload(pA))\n                mstore(add(_pPairing, 32), mod(sub(q, calldataload(add(pA, 32))), q))\n\n                // B\n                mstore(add(_pPairing, 64), calldataload(pB))\n                mstore(add(_pPairing, 96), calldataload(add(pB, 32)))\n                mstore(add(_pPairing, 128), calldataload(add(pB, 64)))\n                mstore(add(_pPairing, 160), calldataload(add(pB, 96)))\n\n                // alpha1\n                mstore(add(_pPairing, 192), alphax)\n                mstore(add(_pPairing, 224), alphay)\n\n                // beta2\n                mstore(add(_pPairing, 256), betax1)\n                mstore(add(_pPairing, 288), betax2)\n                mstore(add(_pPairing, 320), betay1)\n                mstore(add(_pPairing, 352), betay2)\n\n                // vk_x\n                mstore(add(_pPairing, 384), mload(add(pMem, pVk)))\n                mstore(add(_pPairing, 416), mload(add(pMem, add(pVk, 32))))\n\n\n                // gamma2\n                mstore(add(_pPairing, 448), gammax1)\n                mstore(add(_pPairing, 480), gammax2)\n                mstore(add(_pPairing, 512), gammay1)\n                mstore(add(_pPairing, 544), gammay2)\n\n                // C\n                mstore(add(_pPairing, 576), calldataload(pC))\n                mstore(add(_pPairing, 608), calldataload(add(pC, 32)))\n\n                // delta2\n                mstore(add(_pPairing, 640), deltax1)\n                mstore(add(_pPairing, 672), deltax2)\n                mstore(add(_pPairing, 704), deltay1)\n                mstore(add(_pPairing, 736), deltay2)\n\n\n                let success := staticcall(sub(gas(), 2000), 8, _pPairing, 768, _pPairing, 0x20)\n\n                isOk := and(success, mload(_pPairing))\n            }\n\n            let pMem := mload(0x40)\n            mstore(0x40, add(pMem, pLastMem))\n\n            // Validate that all evaluations  F\n            \n            checkField(calldataload(add(_pubSignals, 0)))\n            \n            checkField(calldataload(add(_pubSignals, 32)))\n            \n            checkField(calldataload(add(_pubSignals, 64)))\n            \n            checkField(calldataload(add(_pubSignals, 96)))\n            \n            checkField(calldataload(add(_pubSignals, 128)))\n            \n\n            // Validate all evaluations\n            let isValid := checkPairing(_pA, _pB, _pC, _pubSignals, pMem)\n\n            mstore(0, isValid)\n             return(0, 0x20)\n         }\n     }\n }\n",
  "sourcePath": "/home/ngyeenxhiu/Code/zkSNARK_implementation/contracts/DepositRegisterVerifier.sol",
  "compiler": {
    "name": "solc",
    "version": "0.8.19+commit.7dd6d404.Emscripten.clang"
  },
  "schemaVersion": "3.4.14",
  "updatedAt": "2023-09-09T16:13:03.724Z",
  "devdoc": {
    "kind": "dev",
    "methods": {},
    "version": 1
  },
  "userdoc": {
    "kind": "user",
    "methods": {},
    "version": 1
  }
}