{
  "contractName": "IMiMC",
  "abi": [
    {
      "inputs": [
        {
          "internalType": "uint256",
          "name": "",
          "type": "uint256"
        },
        {
          "internalType": "uint256",
          "name": "",
          "type": "uint256"
        }
      ],
      "name": "MiMCpe7",
      "outputs": [
        {
          "internalType": "uint256",
          "name": "",
          "type": "uint256"
        }
      ],
      "stateMutability": "pure",
      "type": "function"
    }
  ],
  "bytecode": "0x608060405234801561001057600080fd5b5061012a806100206000396000f3fe6080604052348015600f57600080fd5b506004361060285760003560e01c8063d15ca10914602d575b600080fd5b60436004803603810190603f91906095565b6057565b604051604e919060db565b60405180910390f35b600092915050565b600080fd5b6000819050919050565b6075816064565b8114607f57600080fd5b50565b600081359050608f81606e565b92915050565b6000806040838503121560a95760a8605f565b5b600060b5858286016082565b925050602060c4858286016082565b9150509250929050565b60d5816064565b82525050565b600060208201905060ee600083018460ce565b9291505056fea2646970667358221220b7ea59c057005796252557e5e9d86cf88f228e294f193f5a4a14bf842e451e3b64736f6c63430008130033",
  "immutableReferences": {},
  "source": "pragma solidity ^0.8.0;\n\ncontract IMiMC {\n    function MiMCpe7(uint256,uint256) external pure returns(uint256) {}\n}\n\ncontract Middleware {\n    IMiMC public mimc;\n    // mapping(address => bool) existedPubkeys;\n    // bytes32[] depositRegisterRoots;\n    // uint[10] zeroCache = [\n    //     94722680099764756159715344114821272032571426768046774804987035158066048135449,\n    //     8424832841562211226544002910946085349648918813225913513442684203240096077078,\n    //     44197704158317907713192630833793885820470319960428659112617039771932448693504,\n    //     15930477789293542321832788520371595718736154179618338318569942051590503903493,\n    //     24456052748532017163542039193045207500912698699374716792226646706106269129995,\n    //     15710966271306649051349373776887832255201990728308403695502827246325884977190,\n    //     46061825755796793325488921878807366107061633217621406189820463087175544013836,\n    //     110405580006559763743081492937565134120730116456298553411541600514280272146715,\n    //     47214162484447726990215848897549943863707582778233274500640334702748702329092,\n    //     91600247919164313938162093148836160205870475304194670412711077245187285470998\n    // ];\n\n    constructor(string memory str) {\n        mimc = IMiMC(address(bytes20(bytes(str))));\n    }\n\n\n    // function deposit(address to, uint amount) public payable {\n    //     require(amount*1e18 == msg.value, \"amount*1e18 != msg.value\");\n    //     if (existedPubkeys[to] == false) {\n    //         _depositRegister(to, amount);\n    //     }\n    // }\n\n    // function _depositRegister(address to, uint amount) view returns(uint) {\n    //     return 1;\n    // } \n\n    function mimcMultiHash() public view returns(uint) {\n        // uint r = 0;\n        // for (uint i = 0; i < arr.length; i++) {\n        //     r += arr[i] + mimc.MiMCpe7(r, arr[i]);\n        // }\n        // return r;\n        return mimc.MiMCpe7(1, 2);\n    }\n\n}\n",
  "sourcePath": "/home/ngyeenxhiu/Code/solidity-back-up/contracts/Middleware.sol",
  "compiler": {
    "name": "solc",
    "version": "0.8.19+commit.7dd6d404.Emscripten.clang"
  },
  "schemaVersion": "3.4.14",
  "updatedAt": "2023-08-26T18:08:54.013Z",
  "devdoc": {
    "kind": "dev",
    "methods": {},
    "version": 1
  },
  "userdoc": {
    "kind": "user",
    "methods": {},
    "version": 1
  }
}