{
  "contractName": "Middleware",
  "abi": [
    {
      "inputs": [
        {
          "internalType": "address",
          "name": "_mimcContractAddress",
          "type": "address"
        },
        {
          "internalType": "bytes32",
          "name": "initializationAccountRoot",
          "type": "bytes32"
        }
      ],
      "stateMutability": "nonpayable",
      "type": "constructor"
    },
    {
      "anonymous": false,
      "inputs": [
        {
          "indexed": false,
          "internalType": "bool",
          "name": "state",
          "type": "bool"
        }
      ],
      "name": "dDebug",
      "type": "event"
    },
    {
      "anonymous": false,
      "inputs": [
        {
          "indexed": false,
          "internalType": "address",
          "name": "addr",
          "type": "address"
        }
      ],
      "name": "dGetAddress",
      "type": "event"
    },
    {
      "anonymous": false,
      "inputs": [
        {
          "indexed": false,
          "internalType": "bool",
          "name": "b",
          "type": "bool"
        }
      ],
      "name": "dGetBool",
      "type": "event"
    },
    {
      "anonymous": false,
      "inputs": [
        {
          "indexed": false,
          "internalType": "bytes20",
          "name": "addr",
          "type": "bytes20"
        }
      ],
      "name": "dGetBytes20",
      "type": "event"
    },
    {
      "anonymous": false,
      "inputs": [
        {
          "indexed": false,
          "internalType": "bytes32",
          "name": "value",
          "type": "bytes32"
        }
      ],
      "name": "dGetBytes32",
      "type": "event"
    },
    {
      "anonymous": false,
      "inputs": [
        {
          "indexed": false,
          "internalType": "bytes32[]",
          "name": "arr",
          "type": "bytes32[]"
        }
      ],
      "name": "dGetBytes32Array",
      "type": "event"
    },
    {
      "anonymous": false,
      "inputs": [
        {
          "indexed": false,
          "internalType": "string",
          "name": "str",
          "type": "string"
        }
      ],
      "name": "dGetString",
      "type": "event"
    },
    {
      "anonymous": false,
      "inputs": [
        {
          "indexed": false,
          "internalType": "uint256",
          "name": "u",
          "type": "uint256"
        }
      ],
      "name": "dGetUint",
      "type": "event"
    },
    {
      "anonymous": false,
      "inputs": [
        {
          "indexed": false,
          "internalType": "bytes32",
          "name": "fromX",
          "type": "bytes32"
        },
        {
          "indexed": false,
          "internalType": "bytes32",
          "name": "fromY",
          "type": "bytes32"
        },
        {
          "indexed": false,
          "internalType": "bytes32",
          "name": "toX",
          "type": "bytes32"
        },
        {
          "indexed": false,
          "internalType": "bytes32",
          "name": "toY",
          "type": "bytes32"
        },
        {
          "indexed": false,
          "internalType": "uint256",
          "name": "amount",
          "type": "uint256"
        },
        {
          "indexed": false,
          "internalType": "bytes32",
          "name": "r8x",
          "type": "bytes32"
        },
        {
          "indexed": false,
          "internalType": "bytes32",
          "name": "r8y",
          "type": "bytes32"
        },
        {
          "indexed": false,
          "internalType": "bytes32",
          "name": "s",
          "type": "bytes32"
        }
      ],
      "name": "eDepositExistence",
      "type": "event"
    },
    {
      "anonymous": false,
      "inputs": [
        {
          "indexed": false,
          "internalType": "bytes32",
          "name": "fromX",
          "type": "bytes32"
        },
        {
          "indexed": false,
          "internalType": "bytes32",
          "name": "fromY",
          "type": "bytes32"
        },
        {
          "indexed": false,
          "internalType": "bytes32",
          "name": "toX",
          "type": "bytes32"
        },
        {
          "indexed": false,
          "internalType": "bytes32",
          "name": "toY",
          "type": "bytes32"
        },
        {
          "indexed": false,
          "internalType": "uint256",
          "name": "amount",
          "type": "uint256"
        },
        {
          "indexed": false,
          "internalType": "bytes32",
          "name": "r8x",
          "type": "bytes32"
        },
        {
          "indexed": false,
          "internalType": "bytes32",
          "name": "r8y",
          "type": "bytes32"
        },
        {
          "indexed": false,
          "internalType": "bytes32",
          "name": "s",
          "type": "bytes32"
        }
      ],
      "name": "eDepositRegister",
      "type": "event"
    },
    {
      "anonymous": false,
      "inputs": [
        {
          "indexed": false,
          "internalType": "bool",
          "name": "b",
          "type": "bool"
        }
      ],
      "name": "sDepositRegister",
      "type": "event"
    },
    {
      "inputs": [],
      "name": "mimc",
      "outputs": [
        {
          "internalType": "contract IMiMC",
          "name": "",
          "type": "address"
        }
      ],
      "stateMutability": "view",
      "type": "function"
    },
    {
      "inputs": [
        {
          "internalType": "uint256[2]",
          "name": "_pA",
          "type": "uint256[2]"
        },
        {
          "internalType": "uint256[2][2]",
          "name": "_pB",
          "type": "uint256[2][2]"
        },
        {
          "internalType": "uint256[2]",
          "name": "_pC",
          "type": "uint256[2]"
        },
        {
          "internalType": "uint256[4]",
          "name": "_pubSignals",
          "type": "uint256[4]"
        }
      ],
      "name": "verifyProof",
      "outputs": [
        {
          "internalType": "bool",
          "name": "",
          "type": "bool"
        }
      ],
      "stateMutability": "view",
      "type": "function"
    },
    {
      "inputs": [
        {
          "internalType": "bytes32",
          "name": "fromX",
          "type": "bytes32"
        },
        {
          "internalType": "bytes32",
          "name": "fromY",
          "type": "bytes32"
        },
        {
          "internalType": "bytes32",
          "name": "toX",
          "type": "bytes32"
        },
        {
          "internalType": "bytes32",
          "name": "toY",
          "type": "bytes32"
        },
        {
          "internalType": "uint256",
          "name": "amount",
          "type": "uint256"
        },
        {
          "internalType": "bytes32",
          "name": "r8x",
          "type": "bytes32"
        },
        {
          "internalType": "bytes32",
          "name": "r8y",
          "type": "bytes32"
        },
        {
          "internalType": "bytes32",
          "name": "s",
          "type": "bytes32"
        }
      ],
      "name": "deposit",
      "outputs": [],
      "stateMutability": "payable",
      "type": "function"
    },
    {
      "inputs": [
        {
          "internalType": "bytes32",
          "name": "fromX",
          "type": "bytes32"
        },
        {
          "internalType": "bytes32",
          "name": "fromY",
          "type": "bytes32"
        },
        {
          "internalType": "bytes32",
          "name": "toX",
          "type": "bytes32"
        },
        {
          "internalType": "bytes32",
          "name": "toY",
          "type": "bytes32"
        },
        {
          "internalType": "uint256",
          "name": "amount",
          "type": "uint256"
        },
        {
          "internalType": "bytes32",
          "name": "r8x",
          "type": "bytes32"
        },
        {
          "internalType": "bytes32",
          "name": "r8y",
          "type": "bytes32"
        },
        {
          "internalType": "bytes32",
          "name": "s",
          "type": "bytes32"
        }
      ],
      "name": "_depositRegister",
      "outputs": [],
      "stateMutability": "nonpayable",
      "type": "function"
    },
    {
      "inputs": [
        {
          "internalType": "bytes32",
          "name": "fromX",
          "type": "bytes32"
        },
        {
          "internalType": "bytes32",
          "name": "fromY",
          "type": "bytes32"
        },
        {
          "internalType": "bytes32",
          "name": "toX",
          "type": "bytes32"
        },
        {
          "internalType": "bytes32",
          "name": "toY",
          "type": "bytes32"
        },
        {
          "internalType": "uint256",
          "name": "amount",
          "type": "uint256"
        },
        {
          "internalType": "bytes32",
          "name": "r8x",
          "type": "bytes32"
        },
        {
          "internalType": "bytes32",
          "name": "r8y",
          "type": "bytes32"
        },
        {
          "internalType": "bytes32",
          "name": "s",
          "type": "bytes32"
        }
      ],
      "name": "_depositExistence",
      "outputs": [],
      "stateMutability": "nonpayable",
      "type": "function"
    },
    {
      "inputs": [],
      "name": "getDepositRegisterRoot",
      "outputs": [],
      "stateMutability": "nonpayable",
      "type": "function"
    },
    {
      "inputs": [
        {
          "internalType": "uint256[2]",
          "name": "_pA",
          "type": "uint256[2]"
        },
        {
          "internalType": "uint256[2][2]",
          "name": "_pB",
          "type": "uint256[2][2]"
        },
        {
          "internalType": "uint256[2]",
          "name": "_pC",
          "type": "uint256[2]"
        },
        {
          "internalType": "uint256[4]",
          "name": "_pubSignals",
          "type": "uint256[4]"
        }
      ],
      "name": "verifyProof_DepositRegister",
      "outputs": [],
      "stateMutability": "nonpayable",
      "type": "function"
    },
    {
      "inputs": [
        {
          "internalType": "uint256[]",
          "name": "arr",
          "type": "uint256[]"
        }
      ],
      "name": "mimcMultiHash",
      "outputs": [
        {
          "internalType": "uint256",
          "name": "",
          "type": "uint256"
        }
      ],
      "stateMutability": "view",
      "type": "function"
    }
  ],
  "bytecode": "0x60806040527f30644e72e131a029b85045b68181585d2833e84879b9709143e1f593f00000016000556040518061014001604052807fd16b23145b3ff136a467325badad0cc2c5d8ea604ed0dc9b77dae7a328d5f11981526020017f12a04951f1c189982c5f02331adbcd700c682a946a143d2bf4d88bb74261151681526020017f61b703991a5b7545f478fc1925412aaea4f03b059abb167f522124bbcaa69d0081526020017f233854b5fe8f01f97ad392c3c1b52a1cc34239fade343b9b04e6c09d2617b10581526020017f3611a2a4c38f96ea24b255159d6589655deb10f9a34f63dbac36e7037b875d0b81526020017f22bc177f448a1d361e2ecb94850cc8f1f16e14f4873784e06b0ff3ddb997002681526020017f65d611ca0d8d4f8b342c47c2e210b64df0916487cb7d886086b3fc150cc7040c81526020017ff41758044e3119f692dfd8cd2d38f69e46dc1e332f8f85bb78fa2084685fb11b81526020017f686244dade625871f3dcdaf448fe6b1833653b79bf1de9d3a7b93111ae3fc90481526020017fca83e72ddcd15a0ece2dc9c3ae354ef75b13999e405e1b243d5f502c0afe4f16815250600190600a620001c0929190620002b7565b50348015620001ce57600080fd5b506040516200252e3803806200252e8339818101604052810190620001f49190620003c0565b81600e60006101000a81548173ffffffffffffffffffffffffffffffffffffffff021916908373ffffffffffffffffffffffffffffffffffffffff1602179055506000601281905550600060138190555033600d60006101000a81548173ffffffffffffffffffffffffffffffffffffffff021916908373ffffffffffffffffffffffffffffffffffffffff160217905550600c819080600181540180825580915050600190039060005260206000200160009091909190915055505062000407565b82600a8101928215620002e9579160200282015b82811115620002e8578251825591602001919060010190620002cb565b5b509050620002f89190620002fc565b5090565b5b8082111562000317576000816000905550600101620002fd565b5090565b600080fd5b600073ffffffffffffffffffffffffffffffffffffffff82169050919050565b60006200034d8262000320565b9050919050565b6200035f8162000340565b81146200036b57600080fd5b50565b6000815190506200037f8162000354565b92915050565b6000819050919050565b6200039a8162000385565b8114620003a657600080fd5b50565b600081519050620003ba816200038f565b92915050565b60008060408385031215620003da57620003d96200031b565b5b6000620003ea858286016200036e565b9250506020620003fd85828601620003a9565b9150509250929050565b61211780620004176000396000f3fe60806040526004361061007b5760003560e01c8063be722daf1161004e578063be722daf14610128578063ce04cbb314610165578063d5d3167614610181578063ea5ef999146101aa5761007b565b80635998ee74146100805780635caba884146100975780635fe8c13b146100c057806376385cc3146100fd575b600080fd5b34801561008c57600080fd5b506100956101d3565b005b3480156100a357600080fd5b506100be60048036038101906100b99190611624565b61022b565b005b3480156100cc57600080fd5b506100e760048036038101906100e29190611745565b6106de565b6040516100f491906117c9565b60405180910390f35b34801561010957600080fd5b50610112610c5d565b60405161011f9190611863565b60405180910390f35b34801561013457600080fd5b5061014f600480360381019061014a91906119d2565b610c83565b60405161015c9190611a2a565b60405180910390f35b61017f600480360381019061017a9190611624565b610dd1565b005b34801561018d57600080fd5b506101a860048036038101906101a39190611745565b610ee0565b005b3480156101b657600080fd5b506101d160048036038101906101cc9190611624565b6112b2565b005b7f6d6933b127aa9e6b219cadc33b8f72b9d6528ae4397fc9da80cbd210eb970d49600f60008154811061020957610208611a45565b5b90600052602060002001546040516102219190611a83565b60405180910390a1565b60016012600082825461023e9190611acd565b925050819055506000600467ffffffffffffffff81111561026257610261611894565b5b6040519080825280602002602001820160405280156102905781602001602082028036833780820191505090505b5090508660001c816000815181106102ab576102aa611a45565b5b6020026020010181815250508560001c816001815181106102cf576102ce611a45565b5b60200260200101818152505084816002815181106102f0576102ef611a45565b5b60200260200101818152505060008160038151811061031257610311611a45565b5b602002602001018181525050600061032982610c83565b90506000600667ffffffffffffffff81111561034857610347611894565b5b6040519080825280602002602001820160405280156103765781602001602082028036833780820191505090505b5090508a60001c8160008151811061039157610390611a45565b5b6020026020010181815250508960001c816001815181106103b5576103b4611a45565b5b6020026020010181815250508860001c816002815181106103d9576103d8611a45565b5b6020026020010181815250508760001c816003815181106103fd576103fc611a45565b5b60200260200101818152505060008160048151811061041f5761041e611a45565b5b60200260200101818152505086816005815181106104405761043f611a45565b5b602002602001018181525050600061045782610c83565b90507ff913a91cb7941f332eb9fb4a863f361fc6430a84a2523d30a925e0f0d834d31d8c8c8c8c8c8c8c8c604051610496989796959493929190611b01565b60405180910390a160008390506000829050600060125490505b60006002826104bf9190611bae565b03610675576002816104d19190611bdf565b90506000600267ffffffffffffffff8111156104f0576104ef611894565b5b60405190808252806020026020018201604052801561051e5781602001602082028036833780820191505090505b509050600f6001600f805490506105359190611c10565b8154811061054657610545611a45565b5b906000526020600020015460001c8160008151811061056857610567611a45565b5b602002602001018181525050838160018151811061058957610588611a45565b5b602002602001018181525050600f8054806105a7576105a6611c44565b5b600190038181906000526020600020016000905590556105c681610c83565b9350601060016010805490506105dc9190611c10565b815481106105ed576105ec611a45565b5b906000526020600020015460001c8160008151811061060f5761060e611a45565b5b60200260200101818152505082816001815181106106305761062f611a45565b5b602002602001018181525050601080548061064e5761064d611c44565b5b6001900381819060005260206000200160009055905561066d81610c83565b9250506104b0565b600f8360001b908060018154018082558091505060019003906000526020600020016000909190919091505560108260001b9080600181540180825580915050600190039060005260206000200160009091909190915055505050505050505050505050505050565b6000610bfa565b7f30644e72e131a029b85045b68181585d97816a916871ca8d3c208c16d87cfd478110610716576000805260206000f35b50565b600060405183815284602082015285604082015260408160608360076107d05a03fa91508161074c576000805260206000f35b825160408201526020830151606082015260408360808360066107d05a03fa91508161077c576000805260206000f35b505050505050565b600060808601600087017f2d7aef4dacbf074b67b0435003beab901c46d7148623c9743d96f771905676d181527e38ce559c0e261a91fa95a5b9529b346f5a9c58f5a68f5fd288b45576223dff602082015261082660008801357f06eda17b868255463022b53906d5ab86ffd45bc4863e06c2749f1215f6feab527f06b70ceb3d4920d983c59e4ed60465546e203ec9ef2fd0908d28837a33f94a7a84610719565b61087660208801357f16bea1b4cb21a097bcc8d2bc72dfc5bb883b45e9ed04579c6264df705203a9b57f04d8e0d74a9b1442b8ad8f429fd4ca36f160d4fb8c2ebc59bacc09ee66b09e3784610719565b6108c660408801357f0204f4ace627c47608466c9c583f56f9a5584b1228e933a3e905bad0801c94957f1d0d008e53a0927c1cf3d548f9e3dcb63901389de34b0c00528bd4ca1b74bc1084610719565b61091660608801357f212d13a2a62a7388c373fe480f95fd982a8900931adeb713f5cd463f6d0ddc917f20ef3224f03062c7a1068be0c12e523457bc1be72ea2775e0532c0d640417f2084610719565b833582527f30644e72e131a029b85045b68181585d97816a916871ca8d3c208c16d87cfd4760208501357f30644e72e131a029b85045b68181585d97816a916871ca8d3c208c16d87cfd4703066020830152843560408301526020850135606083015260408501356080830152606085013560a08301527f05ba24cecf2444285b0dff3e66bf64cae51ad7cc7e88cac30eb7d0684d4d4f8860c08301527f0ff2df766d5153e77d185c2733928d16e23944c9b2dfaf312ee95c06babc76e060e08301527f0c0a54352f1468dbb9dedc826075265ff2e3e00805965d8b7daf0a794757b7036101008301527f2ac605bb9c1eb01a8b6b34e5f77b8e126869d5313e7a8c64f7a74231dfe00c8f6101208301527f2f68e3b4505a2774d4661a51c4a180d8c5fd226d98ae824692ee64d3104188076101408301527f1d253c753f5ef0678a6c8664868f8ab0e98340bd8f5292d88570036ec197b702610160830152600088015161018083015260206000018801516101a08301527f198e9393920d483a7260bfb731fb5d25f1aa493335a9e71297e485b7aef312c26101c08301527f1800deef121f1e76426a00665e5c4479674322d4f75edadd46debd5cd992f6ed6101e08301527f090689d0585ff075ec9e99ad690c3395bc4b313370b38ef355acdadcd122975b6102008301527f12c85ea5db8c6deb4aab71808dcb408fe3d1e7690c43d37b4ce6cc0166fa7daa610220830152853561024083015260208601356102608301527f056dd6dff00cc7e0eef27b7d4295df9ca4d8d59a623690f150ba41ed9fc629a26102808301527f2dceedf7b148f2b00bab09301b399f6036ff77990cee962a413268d6487f708f6102a08301527f197a282db166d94c67c81ba6cadb8c416c2816a7638d8035ecbc3ff5030b9c026102c08301527f0da6c6b2c981f5493e96373af515ae54411aa9047a25964de97f322e58d0eccc6102e08301526020826103008460086107d05a03fa82518116935050505095945050505050565b6040516103808101604052610c1260008401356106e5565b610c1f60208401356106e5565b610c2c60408401356106e5565b610c3960608401356106e5565b610c4660808401356106e5565b610c53818486888a610784565b8060005260206000f35b600e60009054906101000a900473ffffffffffffffffffffffffffffffffffffffff1681565b6000806000905060005b8351811015610dc757600054600054858381518110610caf57610cae611a45565b5b6020026020010151610cc19190611bae565b600054600e60009054906101000a900473ffffffffffffffffffffffffffffffffffffffff1673ffffffffffffffffffffffffffffffffffffffff1663d15ca109600054898781518110610d1857610d17611a45565b5b6020026020010151610d2a9190611bae565b876040518363ffffffff1660e01b8152600401610d48929190611c73565b602060405180830381865afa158015610d65573d6000803e3d6000fd5b505050506040513d601f19601f82011682018060405250810190610d899190611cb1565b85610d949190611acd565b610d9e9190611bae565b610da89190611acd565b610db29190611bae565b91508080610dbf90611cde565b915050610c8d565b5080915050919050565b600060608787604051602001610de8929190611d47565b60405160208183030381529060405280519060200120901b60601c9050600b60008273ffffffffffffffffffffffffffffffffffffffff1673ffffffffffffffffffffffffffffffffffffffff16815260200190815260200160002060009054906101000a900460ff1615610e6c57610e6789898989898989896112b2565b610ed5565b6001600b60008373ffffffffffffffffffffffffffffffffffffffff1673ffffffffffffffffffffffffffffffffffffffff16815260200190815260200160002060006101000a81548160ff021916908315150217905550610ed4898989898989898961022b565b5b505050505050505050565b80600060048110610ef457610ef3611a45565b5b602002013560001b6010600081548110610f1157610f10611a45565b5b906000526020600020015414610f5c576040517f08c379a0000000000000000000000000000000000000000000000000000000008152600401610f5390611df6565b60405180910390fd5b80600160048110610f7057610f6f611a45565b5b602002013560001b600f600081548110610f8d57610f8c611a45565b5b906000526020600020015414610fd8576040517f08c379a0000000000000000000000000000000000000000000000000000000008152600401610fcf90611e62565b60405180910390fd5b80600260048110610fec57610feb611a45565b5b602002013560001b600c6001600c805490506110089190611c10565b8154811061101957611018611a45565b5b906000526020600020015414611064576040517f08c379a000000000000000000000000000000000000000000000000000000000815260040161105b90611ece565b60405180910390fd5b3073ffffffffffffffffffffffffffffffffffffffff16635fe8c13b858585856040518563ffffffff1660e01b81526004016110a39493929190611fd6565b602060405180830381865afa1580156110c0573d6000803e3d6000fd5b505050506040513d601f19601f820116820180604052508101906110e49190612049565b6110ed57600080fd5b600c8160036004811061110357611102611a45565b5b602002013560001b908060018154018082558091505060019003906000526020600020016000909190919091505560005b60016010805490506111469190611c10565b8160ff16101561120957601060018261115f9190612083565b60ff168154811061117357611172611a45565b5b906000526020600020015460108260ff168154811061119557611194611a45565b5b9060005260206000200181905550600f6001826111b29190612083565b60ff16815481106111c6576111c5611a45565b5b9060005260206000200154600f8260ff16815481106111e8576111e7611a45565b5b90600052602060002001819055508080611201906120b8565b915050611134565b50601080548061121c5761121b611c44565b5b60019003818190600052602060002001600090559055600f80548061124457611243611c44565b5b6001900381819060005260206000200160009055905560046012600082825461126d9190611c10565b925050819055507f306c072e846faecd9b6260ac4eb684d0b68ad26bd868bc2ff807e01e0550a5ee60016040516112a491906117c9565b60405180910390a150505050565b6001601360008282546112c59190611acd565b925050819055506000600667ffffffffffffffff8111156112e9576112e8611894565b5b6040519080825280602002602001820160405280156113175781602001602082028036833780820191505090505b5090508860001c8160008151811061133257611331611a45565b5b6020026020010181815250508760001c8160018151811061135657611355611a45565b5b6020026020010181815250508660001c8160028151811061137a57611379611a45565b5b6020026020010181815250508560001c8160038151811061139e5761139d611a45565b5b6020026020010181815250506000816004815181106113c0576113bf611a45565b5b60200260200101818152505084816005815181106113e1576113e0611a45565b5b60200260200101818152505060006113f882610c83565b90507f045362c160fc977f2e7bf470adfeb18f9cbd59563fa6d529708234815f4f20f88a8a8a8a8a8a8a8a604051611437989796959493929190611b01565b60405180910390a16000819050600060135490505b600060028261145b9190611bae565b0361156a5760028161146d9190611bdf565b90506000600267ffffffffffffffff81111561148c5761148b611894565b5b6040519080825280602002602001820160405280156114ba5781602001602082028036833780820191505090505b509050601160016011805490506114d19190611c10565b815481106114e2576114e1611a45565b5b906000526020600020015460001c8160008151811061150457611503611a45565b5b602002602001018181525050828160018151811061152557611524611a45565b5b602002602001018181525050601180548061154357611542611c44565b5b6001900381819060005260206000200160009055905561156281610c83565b92505061144c565b60118260001b9080600181540180825580915050600190039060005260206000200160009091909190915055505050505050505050505050565b6000604051905090565b600080fd5b600080fd5b6000819050919050565b6115cb816115b8565b81146115d657600080fd5b50565b6000813590506115e8816115c2565b92915050565b6000819050919050565b611601816115ee565b811461160c57600080fd5b50565b60008135905061161e816115f8565b92915050565b600080600080600080600080610100898b031215611645576116446115ae565b5b60006116538b828c016115d9565b98505060206116648b828c016115d9565b97505060406116758b828c016115d9565b96505060606116868b828c016115d9565b95505060806116978b828c0161160f565b94505060a06116a88b828c016115d9565b93505060c06116b98b828c016115d9565b92505060e06116ca8b828c016115d9565b9150509295985092959890939650565b600080fd5b6000819050826020600202820111156116fb576116fa6116da565b5b92915050565b60008190508260406002028201111561171d5761171c6116da565b5b92915050565b60008190508260206004028201111561173f5761173e6116da565b5b92915050565b60008060008061018085870312156117605761175f6115ae565b5b600061176e878288016116df565b945050604061177f87828801611701565b93505060c0611790878288016116df565b9250506101006117a287828801611723565b91505092959194509250565b60008115159050919050565b6117c3816117ae565b82525050565b60006020820190506117de60008301846117ba565b92915050565b600073ffffffffffffffffffffffffffffffffffffffff82169050919050565b6000819050919050565b600061182961182461181f846117e4565b611804565b6117e4565b9050919050565b600061183b8261180e565b9050919050565b600061184d82611830565b9050919050565b61185d81611842565b82525050565b60006020820190506118786000830184611854565b92915050565b600080fd5b6000601f19601f8301169050919050565b7f4e487b7100000000000000000000000000000000000000000000000000000000600052604160045260246000fd5b6118cc82611883565b810181811067ffffffffffffffff821117156118eb576118ea611894565b5b80604052505050565b60006118fe6115a4565b905061190a82826118c3565b919050565b600067ffffffffffffffff82111561192a57611929611894565b5b602082029050602081019050919050565b600061194e6119498461190f565b6118f4565b90508083825260208201905060208402830185811115611971576119706116da565b5b835b8181101561199a5780611986888261160f565b845260208401935050602081019050611973565b5050509392505050565b600082601f8301126119b9576119b861187e565b5b81356119c984826020860161193b565b91505092915050565b6000602082840312156119e8576119e76115ae565b5b600082013567ffffffffffffffff811115611a0657611a056115b3565b5b611a12848285016119a4565b91505092915050565b611a24816115ee565b82525050565b6000602082019050611a3f6000830184611a1b565b92915050565b7f4e487b7100000000000000000000000000000000000000000000000000000000600052603260045260246000fd5b611a7d816115b8565b82525050565b6000602082019050611a986000830184611a74565b92915050565b7f4e487b7100000000000000000000000000000000000000000000000000000000600052601160045260246000fd5b6000611ad8826115ee565b9150611ae3836115ee565b9250828201905080821115611afb57611afa611a9e565b5b92915050565b600061010082019050611b17600083018b611a74565b611b24602083018a611a74565b611b316040830189611a74565b611b3e6060830188611a74565b611b4b6080830187611a1b565b611b5860a0830186611a74565b611b6560c0830185611a74565b611b7260e0830184611a74565b9998505050505050505050565b7f4e487b7100000000000000000000000000000000000000000000000000000000600052601260045260246000fd5b6000611bb9826115ee565b9150611bc4836115ee565b925082611bd457611bd3611b7f565b5b828206905092915050565b6000611bea826115ee565b9150611bf5836115ee565b925082611c0557611c04611b7f565b5b828204905092915050565b6000611c1b826115ee565b9150611c26836115ee565b9250828203905081811115611c3e57611c3d611a9e565b5b92915050565b7f4e487b7100000000000000000000000000000000000000000000000000000000600052603160045260246000fd5b6000604082019050611c886000830185611a1b565b611c956020830184611a1b565b9392505050565b600081519050611cab816115f8565b92915050565b600060208284031215611cc757611cc66115ae565b5b6000611cd584828501611c9c565b91505092915050565b6000611ce9826115ee565b91507fffffffffffffffffffffffffffffffffffffffffffffffffffffffffffffffff8203611d1b57611d1a611a9e565b5b600182019050919050565b6000819050919050565b611d41611d3c826115b8565b611d26565b82525050565b6000611d538285611d30565b602082019150611d638284611d30565b6020820191508190509392505050565b600082825260208201905092915050565b7f4465706f736974205472616e73616374696f6e732061726520696e76616c696460008201527f2100000000000000000000000000000000000000000000000000000000000000602082015250565b6000611de0602183611d73565b9150611deb82611d84565b604082019050919050565b60006020820190508181036000830152611e0f81611dd3565b9050919050565b7f4e6577204163636f756e74732061726520696e76616c69640000000000000000600082015250565b6000611e4c601883611d73565b9150611e5782611e16565b602082019050919050565b60006020820190508181036000830152611e7b81611e3f565b9050919050565b7f5468652073746174657320646f206e6f74206d61746368000000000000000000600082015250565b6000611eb8601783611d73565b9150611ec382611e82565b602082019050919050565b60006020820190508181036000830152611ee781611eab565b9050919050565b82818337505050565b611f0360408383611eee565b5050565b600060029050919050565b600081905092915050565b6000819050919050565b611f3360408383611eee565b5050565b6000611f438383611f27565b60408301905092915050565b600082905092915050565b6000604082019050919050565b611f7081611f07565b611f7a8184611f12565b9250611f8582611f1d565b8060005b83811015611fbe57611f9b8284611f4f565b611fa58782611f37565b9650611fb083611f5a565b925050600181019050611f89565b505050505050565b611fd260808383611eee565b5050565b600061018082019050611fec6000830187611ef7565b611ff96040830186611f67565b61200660c0830185611ef7565b612014610100830184611fc6565b95945050505050565b612026816117ae565b811461203157600080fd5b50565b6000815190506120438161201d565b92915050565b60006020828403121561205f5761205e6115ae565b5b600061206d84828501612034565b91505092915050565b600060ff82169050919050565b600061208e82612076565b915061209983612076565b9250828201905060ff8111156120b2576120b1611a9e565b5b92915050565b60006120c382612076565b915060ff82036120d6576120d5611a9e565b5b60018201905091905056fea26469706673582212205709fc094944d69876d09c7274fb4b2877666cef78f330a09f94026bdc222b6364736f6c63430008130033",
  "immutableReferences": {},
  "source": "pragma solidity ^0.8.0;\n\nimport \"./DepositRegisterVerifier.sol\";\n\ninterface IMiMC {\n    function MiMCpe7(uint256, uint256) external pure returns (uint256);\n}\n\n// interface IDepositRegisterVerifier {\n//     function verifyProof(\n//         uint[2] calldata,\n//         uint[2][2] calldata,\n//         uint[2] calldata,\n//         uint[4] calldata\n//     ) external returns (bool);\n// }\n\ncontract Middleware is DepositRegisterVerifier {\n    // constants\n    uint prime =\n        21888242871839275222246405745257275088548364400416034343698204186575808495617;\n    uint[10] zeroCache = [\n        94722680099764756159715344114821272032571426768046774804987035158066048135449,\n        8424832841562211226544002910946085349648918813225913513442684203240096077078,\n        44197704158317907713192630833793885820470319960428659112617039771932448693504,\n        15930477789293542321832788520371595718736154179618338318569942051590503903493,\n        24456052748532017163542039193045207500912698699374716792226646706106269129995,\n        15710966271306649051349373776887832255201990728308403695502827246325884977190,\n        46061825755796793325488921878807366107061633217621406189820463087175544013836,\n        110405580006559763743081492937565134120730116456298553411541600514280272146715,\n        47214162484447726990215848897549943863707582778233274500640334702748702329092,\n        91600247919164313938162093148836160205870475304194670412711077245187285470998\n    ];\n\n    // variables\n    mapping(address => bool) existedPubkeys;\n    bytes32[] accountRoots;\n    address coordinator;\n    IMiMC public mimc;\n    // IDepositRegisterVerifier public dpVerifier; // dp - deposit register\n\n    // deposit register variables\n    bytes32[] depositAccountRoots;\n    bytes32[] depositRegisterTxRoots;\n    bytes32[] depositExistenceTxRoots;\n    uint noDepositRegisterTx;\n    uint noDepositExistenceTx;\n\n    // Debug events\n    event dDebug(bool state);\n    event dGetBytes32(bytes32 value);\n    event dGetString(string str);\n    event dGetAddress(address addr);\n    event dGetBytes20(bytes20 addr);\n    event dGetUint(uint u);\n    event dGetBytes32Array(bytes32[] arr);\n    event dGetBool(bool b);\n\n    // main events\n    event eDepositRegister(\n        bytes32 fromX,\n        bytes32 fromY,\n        bytes32 toX,\n        bytes32 toY,\n        uint amount,\n        bytes32 r8x,\n        bytes32 r8y,\n        bytes32 s\n    );\n    event eDepositExistence(\n        bytes32 fromX,\n        bytes32 fromY,\n        bytes32 toX,\n        bytes32 toY,\n        uint amount,\n        bytes32 r8x,\n        bytes32 r8y,\n        bytes32 s\n    );\n    event sDepositRegister(bool b);\n\n    constructor(\n        address _mimcContractAddress,\n        bytes32 initializationAccountRoot\n    ) {\n        mimc = IMiMC(_mimcContractAddress);\n        noDepositRegisterTx = 0;\n        noDepositExistenceTx = 0;\n        coordinator = msg.sender;\n        accountRoots.push(initializationAccountRoot);\n    }\n\n    function deposit(\n        bytes32 fromX,\n        bytes32 fromY,\n        bytes32 toX,\n        bytes32 toY,\n        uint amount,\n        bytes32 r8x,\n        bytes32 r8y,\n        bytes32 s\n    ) public payable {\n        // emit dDebug(true);\n        // require(uint(amount) * 1e18 == msg.value, \"amount*1e18 != msg.value\");\n        address receiverAddress = address(\n            bytes20((keccak256(abi.encodePacked(toX, toY))) << 96)\n        );\n\n        if (existedPubkeys[receiverAddress]) {\n            _depositExistence(fromX, fromY, toX, toY, amount, r8x, r8y, s);\n        } else {\n            existedPubkeys[receiverAddress] = true;\n            _depositRegister(fromX, fromY, toX, toY, amount, r8x, r8y, s);\n        }\n    }\n\n    function _depositRegister(\n        bytes32 fromX,\n        bytes32 fromY,\n        bytes32 toX,\n        bytes32 toY,\n        uint amount,\n        bytes32 r8x,\n        bytes32 r8y,\n        bytes32 s\n    ) public {\n        noDepositRegisterTx += 1;\n\n        // create a new account\n        uint[] memory accountProperties = new uint[](4);\n        accountProperties[0] = uint(toX);\n        accountProperties[1] = uint(toY);\n        accountProperties[2] = amount;\n        accountProperties[3] = 0;\n        uint newAccountHash = uint(mimcMultiHash(accountProperties));\n\n        // create a new tx\n        uint[] memory txPropertes = new uint[](6);\n        txPropertes[0] = uint(fromX);\n        txPropertes[1] = uint(fromY);\n        txPropertes[2] = uint(toX);\n        txPropertes[3] = uint(toY);\n        txPropertes[4] = 0;\n        txPropertes[5] = amount;\n        uint newTxHash = uint(mimcMultiHash(txPropertes));\n\n        emit eDepositRegister(fromX, fromY, toX, toY, amount, r8x, r8y, s);\n\n        // re-hash root\n        uint tmp1 = newAccountHash;\n        uint tmp2 = newTxHash;\n        uint _noTx = noDepositRegisterTx;\n        while (_noTx % 2 == 0) {\n            _noTx /= 2;\n            uint[] memory inputArray = new uint[](2);\n            inputArray[0] = uint(\n                depositAccountRoots[depositAccountRoots.length - 1]\n            );\n            inputArray[1] = tmp1;\n            depositAccountRoots.pop();\n            tmp1 = mimcMultiHash(inputArray);\n\n            inputArray[0] = uint(depositRegisterTxRoots[depositRegisterTxRoots.length - 1]);\n            inputArray[1] = tmp2;\n            depositRegisterTxRoots.pop();\n            tmp2 = mimcMultiHash(inputArray);\n        }\n        depositAccountRoots.push(bytes32(tmp1));\n        depositRegisterTxRoots.push(bytes32(tmp2));\n    }\n\n    function _depositExistence(\n        bytes32 fromX,\n        bytes32 fromY,\n        bytes32 toX,\n        bytes32 toY,\n        uint amount,\n        bytes32 r8x,\n        bytes32 r8y,\n        bytes32 s\n    ) public {\n        noDepositExistenceTx += 1;\n\n        // create a new tx\n        uint[] memory txPropertes = new uint[](6);\n        txPropertes[0] = uint(fromX);\n        txPropertes[1] = uint(fromY);\n        txPropertes[2] = uint(toX);\n        txPropertes[3] = uint(toY);\n        txPropertes[4] = 0;\n        txPropertes[5] = amount;\n        uint newTxHash = uint(mimcMultiHash(txPropertes));\n\n        emit eDepositExistence(fromX, fromY, toX, toY, amount, r8x, r8y, s);\n\n        // re-hash root\n        uint tmp = newTxHash;\n        uint _noTx = noDepositExistenceTx;\n        while (_noTx % 2 == 0) {\n            _noTx /= 2;\n            uint[] memory inputArray = new uint[](2);\n            inputArray[0] = uint(depositExistenceTxRoots[depositExistenceTxRoots.length - 1]);\n            inputArray[1] = tmp;\n            depositExistenceTxRoots.pop();\n            tmp = mimcMultiHash(inputArray);\n        }\n        depositExistenceTxRoots.push(bytes32(tmp));\n    }\n\n    function getDepositRegisterRoot() public {\n        emit dGetBytes32(depositAccountRoots[0]);\n    }\n\n    function verifyProof_DepositRegister(\n        uint[2] calldata _pA,\n        uint[2][2] calldata _pB,\n        uint[2] calldata _pC,\n        uint[4] calldata _pubSignals\n    ) public { \n        require(\n            depositRegisterTxRoots[0] == bytes32(_pubSignals[0]),\n            \"Deposit Transactions are invalid!\"\n        );\n        require(\n            depositAccountRoots[0] == bytes32(_pubSignals[1]),\n            \"New Accounts are invalid\"\n        );\n        require(\n            accountRoots[accountRoots.length - 1] == bytes32(_pubSignals[2]),\n            \"The states do not match\"\n        );\n\n        require(this.verifyProof(_pA, _pB, _pC, _pubSignals));\n        accountRoots.push(bytes32(_pubSignals[3]));\n        for (uint8 i = 0; i < depositRegisterTxRoots.length - 1; i++) {\n            depositRegisterTxRoots[i] = depositRegisterTxRoots[i + 1];\n            depositAccountRoots[i] = depositAccountRoots[i + 1];\n        }\n        depositRegisterTxRoots.pop();\n        depositAccountRoots.pop();\n        noDepositRegisterTx -= 4;\n        emit sDepositRegister(true);\n    }\n\n    function update() private {}\n\n    function mimcMultiHash(uint[] memory arr) public view returns (uint) {\n        uint r = 0;\n        for (uint i = 0; i < arr.length; i++) {\n            r =\n                (((r + mimc.MiMCpe7(arr[i] % prime, r)) % prime) +\n                    (arr[i] % prime)) %\n                prime;\n        }\n        return r;\n    }\n}\n",
  "sourcePath": "/home/ngyeenxhiu/Code/zkSNARK_implementation/contracts/Middleware.sol",
  "compiler": {
    "name": "solc",
    "version": "0.8.19+commit.7dd6d404.Emscripten.clang"
  },
  "schemaVersion": "3.4.14",
  "updatedAt": "2023-09-16T06:51:44.805Z",
  "devdoc": {
    "kind": "dev",
    "methods": {},
    "version": 1
  },
  "userdoc": {
    "kind": "user",
    "methods": {},
    "version": 1
  }
}