{
  "contractName": "Middleware",
  "abi": [
    {
      "inputs": [
        {
          "internalType": "address",
          "name": "_mimcContractAddress",
          "type": "address"
        }
      ],
      "stateMutability": "nonpayable",
      "type": "constructor"
    },
    {
      "anonymous": false,
      "inputs": [
        {
          "indexed": false,
          "internalType": "bool",
          "name": "state",
          "type": "bool"
        }
      ],
      "name": "dDebug",
      "type": "event"
    },
    {
      "anonymous": false,
      "inputs": [
        {
          "indexed": false,
          "internalType": "address",
          "name": "addr",
          "type": "address"
        }
      ],
      "name": "dGetAddress",
      "type": "event"
    },
    {
      "anonymous": false,
      "inputs": [
        {
          "indexed": false,
          "internalType": "bytes20",
          "name": "addr",
          "type": "bytes20"
        }
      ],
      "name": "dGetBytes20",
      "type": "event"
    },
    {
      "anonymous": false,
      "inputs": [
        {
          "indexed": false,
          "internalType": "bytes32",
          "name": "value",
          "type": "bytes32"
        }
      ],
      "name": "dGetBytes32",
      "type": "event"
    },
    {
      "anonymous": false,
      "inputs": [
        {
          "indexed": false,
          "internalType": "bytes32[]",
          "name": "arr",
          "type": "bytes32[]"
        }
      ],
      "name": "dGetBytes32Array",
      "type": "event"
    },
    {
      "anonymous": false,
      "inputs": [
        {
          "indexed": false,
          "internalType": "string",
          "name": "str",
          "type": "string"
        }
      ],
      "name": "dGetString",
      "type": "event"
    },
    {
      "anonymous": false,
      "inputs": [
        {
          "indexed": false,
          "internalType": "uint256",
          "name": "u",
          "type": "uint256"
        }
      ],
      "name": "dGetUint",
      "type": "event"
    },
    {
      "anonymous": false,
      "inputs": [
        {
          "indexed": false,
          "internalType": "bytes32",
          "name": "toX",
          "type": "bytes32"
        },
        {
          "indexed": false,
          "internalType": "bytes32",
          "name": "toY",
          "type": "bytes32"
        },
        {
          "indexed": false,
          "internalType": "uint256",
          "name": "amount",
          "type": "uint256"
        },
        {
          "indexed": false,
          "internalType": "bytes32",
          "name": "r",
          "type": "bytes32"
        },
        {
          "indexed": false,
          "internalType": "bytes32",
          "name": "s",
          "type": "bytes32"
        }
      ],
      "name": "eDepositRegister",
      "type": "event"
    },
    {
      "inputs": [],
      "name": "mimc",
      "outputs": [
        {
          "internalType": "contract MiMC",
          "name": "",
          "type": "address"
        }
      ],
      "stateMutability": "view",
      "type": "function"
    },
    {
      "inputs": [
        {
          "internalType": "bytes32",
          "name": "fromX",
          "type": "bytes32"
        },
        {
          "internalType": "bytes32",
          "name": "fromY",
          "type": "bytes32"
        },
        {
          "internalType": "bytes32",
          "name": "toX",
          "type": "bytes32"
        },
        {
          "internalType": "bytes32",
          "name": "toY",
          "type": "bytes32"
        },
        {
          "internalType": "uint256",
          "name": "amount",
          "type": "uint256"
        },
        {
          "internalType": "bytes32",
          "name": "r",
          "type": "bytes32"
        },
        {
          "internalType": "bytes32",
          "name": "s",
          "type": "bytes32"
        },
        {
          "internalType": "uint8",
          "name": "v",
          "type": "uint8"
        }
      ],
      "name": "deposit",
      "outputs": [],
      "stateMutability": "payable",
      "type": "function"
    },
    {
      "inputs": [
        {
          "internalType": "bytes32",
          "name": "fromX",
          "type": "bytes32"
        },
        {
          "internalType": "bytes32",
          "name": "fromY",
          "type": "bytes32"
        },
        {
          "internalType": "bytes32",
          "name": "toX",
          "type": "bytes32"
        },
        {
          "internalType": "bytes32",
          "name": "toY",
          "type": "bytes32"
        },
        {
          "internalType": "uint256",
          "name": "amount",
          "type": "uint256"
        },
        {
          "internalType": "bytes32",
          "name": "r",
          "type": "bytes32"
        },
        {
          "internalType": "bytes32",
          "name": "s",
          "type": "bytes32"
        },
        {
          "internalType": "uint8",
          "name": "v",
          "type": "uint8"
        }
      ],
      "name": "_depositRegister",
      "outputs": [],
      "stateMutability": "nonpayable",
      "type": "function"
    },
    {
      "inputs": [],
      "name": "getDepositRegisterRoot",
      "outputs": [],
      "stateMutability": "nonpayable",
      "type": "function"
    },
    {
      "inputs": [
        {
          "internalType": "bytes32",
          "name": "x",
          "type": "bytes32"
        },
        {
          "internalType": "uint256",
          "name": "X",
          "type": "uint256"
        }
      ],
      "name": "test",
      "outputs": [],
      "stateMutability": "nonpayable",
      "type": "function"
    },
    {
      "inputs": [
        {
          "internalType": "bytes32",
          "name": "r",
          "type": "bytes32"
        },
        {
          "internalType": "bytes32",
          "name": "s",
          "type": "bytes32"
        },
        {
          "internalType": "uint8",
          "name": "v",
          "type": "uint8"
        },
        {
          "internalType": "bytes32",
          "name": "hashv",
          "type": "bytes32"
        }
      ],
      "name": "testVerify",
      "outputs": [],
      "stateMutability": "nonpayable",
      "type": "function"
    },
    {
      "inputs": [
        {
          "internalType": "uint256[]",
          "name": "arr",
          "type": "uint256[]"
        }
      ],
      "name": "mimcMultiHash",
      "outputs": [
        {
          "internalType": "uint256",
          "name": "",
          "type": "uint256"
        }
      ],
      "stateMutability": "view",
      "type": "function"
    }
  ],
  "bytecode": "0x60806040527f30644e72e131a029b85045b68181585d2833e84879b9709143e1f593f00000016000556040518061014001604052807fd16b23145b3ff136a467325badad0cc2c5d8ea604ed0dc9b77dae7a328d5f11981526020017f12a04951f1c189982c5f02331adbcd700c682a946a143d2bf4d88bb74261151681526020017f61b703991a5b7545f478fc1925412aaea4f03b059abb167f522124bbcaa69d0081526020017f233854b5fe8f01f97ad392c3c1b52a1cc34239fade343b9b04e6c09d2617b10581526020017f3611a2a4c38f96ea24b255159d6589655deb10f9a34f63dbac36e7037b875d0b81526020017f22bc177f448a1d361e2ecb94850cc8f1f16e14f4873784e06b0ff3ddb997002681526020017f65d611ca0d8d4f8b342c47c2e210b64df0916487cb7d886086b3fc150cc7040c81526020017ff41758044e3119f692dfd8cd2d38f69e46dc1e332f8f85bb78fa2084685fb11b81526020017f686244dade625871f3dcdaf448fe6b1833653b79bf1de9d3a7b93111ae3fc90481526020017fca83e72ddcd15a0ece2dc9c3ae354ef75b13999e405e1b243d5f502c0afe4f16815250600190600a620001c092919062000244565b50348015620001ce57600080fd5b5060405162001258380380620012588339818101604052810190620001f4919062000312565b80600e60006101000a81548173ffffffffffffffffffffffffffffffffffffffff021916908373ffffffffffffffffffffffffffffffffffffffff1602179055506000600d819055505062000344565b82600a810192821562000276579160200282015b828111156200027557825182559160200191906001019062000258565b5b50905062000285919062000289565b5090565b5b80821115620002a45760008160009055506001016200028a565b5090565b600080fd5b600073ffffffffffffffffffffffffffffffffffffffff82169050919050565b6000620002da82620002ad565b9050919050565b620002ec81620002cd565b8114620002f857600080fd5b50565b6000815190506200030c81620002e1565b92915050565b6000602082840312156200032b576200032a620002a8565b5b60006200033b84828501620002fb565b91505092915050565b610f0480620003546000396000f3fe6080604052600436106100705760003560e01c8063857e382f1161004e578063857e382f146100d3578063a4ab2f43146100fc578063a8e7165b14610125578063be722daf1461014e57610070565b80634efb79dc146100755780635998ee741461009157806376385cc3146100a8575b600080fd5b61008f600480360381019061008a919061074e565b61018b565b005b34801561009d57600080fd5b506100a66101fa565b005b3480156100b457600080fd5b506100bd610252565b6040516100ca9190610883565b60405180910390f35b3480156100df57600080fd5b506100fa60048036038101906100f5919061089e565b610278565b005b34801561010857600080fd5b50610123600480360381019061011e919061074e565b610308565b005b34801561013157600080fd5b5061014c600480360381019061014791906108de565b6104d6565b005b34801561015a57600080fd5b5061017560048036038101906101709190610a9e565b610561565b6040516101829190610af6565b60405180910390f35b34670de0b6b3a7640000856101a09190610b40565b146101e0576040517f08c379a00000000000000000000000000000000000000000000000000000000081526004016101d790610bdf565b60405180910390fd5b6101f08888888888888888610308565b5050505050505050565b7f6d6933b127aa9e6b219cadc33b8f72b9d6528ae4397fc9da80cbd210eb970d49600c6000815481106102305761022f610bff565b5b90600052602060002001546040516102489190610c3d565b60405180910390a1565b600e60009054906101000a900473ffffffffffffffffffffffffffffffffffffffff1681565b6000818360001c6102899190610c58565b036102cb577fbc8b13c8203b2da79c17c01eb010027414606877eff0e4c6347642d60879d51a60016040516102be9190610ca7565b60405180910390a1610304565b7fbc8b13c8203b2da79c17c01eb010027414606877eff0e4c6347642d60879d51a60006040516102fb9190610ca7565b60405180910390a15b5050565b6000600667ffffffffffffffff8111156103255761032461095b565b5b6040519080825280602002602001820160405280156103535781602001602082028036833780820191505090505b5090508860001c8160008151811061036e5761036d610bff565b5b6020026020010181815250508760001c8160018151811061039257610391610bff565b5b6020026020010181815250508660001c816002815181106103b6576103b5610bff565b5b6020026020010181815250508560001c816003815181106103da576103d9610bff565b5b6020026020010181815250506000816004815181106103fc576103fb610bff565b5b602002602001018181525050848160058151811061041d5761041c610bff565b5b602002602001018181525050600061043482610561565b90507f6193985f3794c846490c5cbf0d9e638dc18edd55333fbf5717bc4147ccf5894860018260001b601b8661046a9190610cc2565b8888604051600081526020016040526040516104899493929190610d06565b6020604051602081039080840390855afa1580156104ab573d6000803e3d6000fd5b505050602060405103516040516104c29190610d6c565b60405180910390a150505050505050505050565b7f6193985f3794c846490c5cbf0d9e638dc18edd55333fbf5717bc4147ccf589486001828487876040516000815260200160405260405161051a9493929190610d06565b6020604051602081039080840390855afa15801561053c573d6000803e3d6000fd5b505050602060405103516040516105539190610d6c565b60405180910390a150505050565b6000806000905060005b835181101561068b5760005484828151811061058a57610589610bff565b5b6020026020010151600054600e60009054906101000a900473ffffffffffffffffffffffffffffffffffffffff1673ffffffffffffffffffffffffffffffffffffffff1663d15ca1098886815181106105e6576105e5610bff565b5b6020026020010151876040518363ffffffff1660e01b815260040161060c929190610d87565b602060405180830381865afa158015610629573d6000803e3d6000fd5b505050506040513d601f19601f8201168201806040525081019061064d9190610dc5565b856106589190610df2565b6106629190610e55565b61066c9190610df2565b6106769190610e55565b9150808061068390610e86565b91505061056b565b5080915050919050565b6000604051905090565b600080fd5b600080fd5b6000819050919050565b6106bc816106a9565b81146106c757600080fd5b50565b6000813590506106d9816106b3565b92915050565b6000819050919050565b6106f2816106df565b81146106fd57600080fd5b50565b60008135905061070f816106e9565b92915050565b600060ff82169050919050565b61072b81610715565b811461073657600080fd5b50565b60008135905061074881610722565b92915050565b600080600080600080600080610100898b03121561076f5761076e61069f565b5b600061077d8b828c016106ca565b985050602061078e8b828c016106ca565b975050604061079f8b828c016106ca565b96505060606107b08b828c016106ca565b95505060806107c18b828c01610700565b94505060a06107d28b828c016106ca565b93505060c06107e38b828c016106ca565b92505060e06107f48b828c01610739565b9150509295985092959890939650565b600073ffffffffffffffffffffffffffffffffffffffff82169050919050565b6000819050919050565b600061084961084461083f84610804565b610824565b610804565b9050919050565b600061085b8261082e565b9050919050565b600061086d82610850565b9050919050565b61087d81610862565b82525050565b60006020820190506108986000830184610874565b92915050565b600080604083850312156108b5576108b461069f565b5b60006108c3858286016106ca565b92505060206108d485828601610700565b9150509250929050565b600080600080608085870312156108f8576108f761069f565b5b6000610906878288016106ca565b9450506020610917878288016106ca565b935050604061092887828801610739565b9250506060610939878288016106ca565b91505092959194509250565b600080fd5b6000601f19601f8301169050919050565b7f4e487b7100000000000000000000000000000000000000000000000000000000600052604160045260246000fd5b6109938261094a565b810181811067ffffffffffffffff821117156109b2576109b161095b565b5b80604052505050565b60006109c5610695565b90506109d1828261098a565b919050565b600067ffffffffffffffff8211156109f1576109f061095b565b5b602082029050602081019050919050565b600080fd5b6000610a1a610a15846109d6565b6109bb565b90508083825260208201905060208402830185811115610a3d57610a3c610a02565b5b835b81811015610a665780610a528882610700565b845260208401935050602081019050610a3f565b5050509392505050565b600082601f830112610a8557610a84610945565b5b8135610a95848260208601610a07565b91505092915050565b600060208284031215610ab457610ab361069f565b5b600082013567ffffffffffffffff811115610ad257610ad16106a4565b5b610ade84828501610a70565b91505092915050565b610af0816106df565b82525050565b6000602082019050610b0b6000830184610ae7565b92915050565b7f4e487b7100000000000000000000000000000000000000000000000000000000600052601160045260246000fd5b6000610b4b826106df565b9150610b56836106df565b9250828202610b64816106df565b91508282048414831517610b7b57610b7a610b11565b5b5092915050565b600082825260208201905092915050565b7f616d6f756e742a3165313820213d206d73672e76616c75650000000000000000600082015250565b6000610bc9601883610b82565b9150610bd482610b93565b602082019050919050565b60006020820190508181036000830152610bf881610bbc565b9050919050565b7f4e487b7100000000000000000000000000000000000000000000000000000000600052603260045260246000fd5b610c37816106a9565b82525050565b6000602082019050610c526000830184610c2e565b92915050565b6000610c63826106df565b9150610c6e836106df565b9250828203905081811115610c8657610c85610b11565b5b92915050565b60008115159050919050565b610ca181610c8c565b82525050565b6000602082019050610cbc6000830184610c98565b92915050565b6000610ccd82610715565b9150610cd883610715565b9250828201905060ff811115610cf157610cf0610b11565b5b92915050565b610d0081610715565b82525050565b6000608082019050610d1b6000830187610c2e565b610d286020830186610cf7565b610d356040830185610c2e565b610d426060830184610c2e565b95945050505050565b6000610d5682610804565b9050919050565b610d6681610d4b565b82525050565b6000602082019050610d816000830184610d5d565b92915050565b6000604082019050610d9c6000830185610ae7565b610da96020830184610ae7565b9392505050565b600081519050610dbf816106e9565b92915050565b600060208284031215610ddb57610dda61069f565b5b6000610de984828501610db0565b91505092915050565b6000610dfd826106df565b9150610e08836106df565b9250828201905080821115610e2057610e1f610b11565b5b92915050565b7f4e487b7100000000000000000000000000000000000000000000000000000000600052601260045260246000fd5b6000610e60826106df565b9150610e6b836106df565b925082610e7b57610e7a610e26565b5b828206905092915050565b6000610e91826106df565b91507fffffffffffffffffffffffffffffffffffffffffffffffffffffffffffffffff8203610ec357610ec2610b11565b5b60018201905091905056fea2646970667358221220a449aae018e9aaaeeef59db5631390abc88feee2bc5064e555b91a345658ee3464736f6c63430008130033",
  "immutableReferences": {},
  "source": "pragma solidity ^0.8.0;\n\ninterface MiMC {\n    function MiMCpe7(uint256, uint256) external pure returns (uint256);\n}\n\ncontract Middleware {\n    // constants\n    uint prime =\n        21888242871839275222246405745257275088548364400416034343698204186575808495617;\n    uint[10] zeroCache = [\n        94722680099764756159715344114821272032571426768046774804987035158066048135449,\n        8424832841562211226544002910946085349648918813225913513442684203240096077078,\n        44197704158317907713192630833793885820470319960428659112617039771932448693504,\n        15930477789293542321832788520371595718736154179618338318569942051590503903493,\n        24456052748532017163542039193045207500912698699374716792226646706106269129995,\n        15710966271306649051349373776887832255201990728308403695502827246325884977190,\n        46061825755796793325488921878807366107061633217621406189820463087175544013836,\n        110405580006559763743081492937565134120730116456298553411541600514280272146715,\n        47214162484447726990215848897549943863707582778233274500640334702748702329092,\n        91600247919164313938162093148836160205870475304194670412711077245187285470998\n    ];\n\n    // variables\n    mapping(address => bool) existedPubkeys;\n    bytes32[] depositRegisterRoots;\n    uint noDepositRegisterTx;\n    MiMC public mimc;\n\n    // Debug events\n    event dDebug(bool state);\n    event dGetBytes32(bytes32 value);\n    event dGetString(string str);\n    event dGetAddress(address addr);\n    event dGetBytes20(bytes20 addr);\n    event dGetUint(uint u);\n    event dGetBytes32Array(bytes32[] arr);\n\n    // main events\n    event eDepositRegister(\n        bytes32 toX,\n        bytes32 toY,\n        uint amount,\n        bytes32 r,\n        bytes32 s\n    );\n\n    constructor(address _mimcContractAddress) {\n        mimc = MiMC(_mimcContractAddress);\n        noDepositRegisterTx = 0;\n    }\n\n    function deposit(\n        bytes32 fromX,\n        bytes32 fromY,\n        bytes32 toX,\n        bytes32 toY,\n        uint amount,\n        bytes32 r,\n        bytes32 s,\n        uint8 v\n    ) public payable {\n        // emit dDebug(true);\n        require(amount * 1e18 == msg.value, \"amount*1e18 != msg.value\");\n        // address receiverAddress = address(\n        //     bytes20((keccak256(abi.encodePacked(toX, toY))) << 96)\n        // );\n        _depositRegister(fromX, fromY, toX, toY, amount, r, s, v);\n\n        // if (existedPubkeys[receiverAddress]) {\n        //     emit dDebug(false);\n        // } else {\n        //     existedPubkeys[receiverAddress] = true;\n        //     _depositRegister(toX, toY, amount, r, s);\n        // }\n    }\n\n    function _depositRegister(\n        bytes32 fromX,\n        bytes32 fromY,\n        bytes32 toX,\n        bytes32 toY,\n        uint amount,\n        bytes32 r,\n        bytes32 s,\n        uint8 v\n    ) public {\n        \n        // Verify transaction signature (r, s) before processing\n        // hash, pubX, pubY, r, s --> use verifier.sol (by circuit)\n\n        // \n        // emit eDepositRegister(toX, toY, amount, r, s);\n\n        uint[] memory txProperties = new uint[](6);\n        txProperties[0] = uint(fromX);\n        txProperties[1] = uint(fromY);\n        txProperties[2] = uint(toX);\n        txProperties[3] = uint(toY);\n        txProperties[4] = 0;\n        txProperties[5] = amount;\n        uint tmp = uint(mimcMultiHash(txProperties));\n\n        // bytes32[] memory dInput = new bytes32[](4);\n        // dInput[0] = bytes32(tmp);\n        // dInput[1] = r;\n        // dInput[2] = s;\n        // dInput[3] = bytes32(uint(v));\n        // emit dGetBytes32Array(dInput);\n        emit dGetAddress(ecrecover(bytes32(tmp), v+27, r, s));\n        // emit dGetAddress(ecrecover(bytes32(tmp), 28, r, s));\n\n        // emit dGetUint(tmp);\n        // emit dGetBytes32(bytes32(tmp));\n\n        // noDepositRegisterTx += 1;\n        // uint _noTx = noDepositRegisterTx;\n        // while (_noTx % 2 == 0) {\n        //     _noTx /= 2;\n        //     uint[] memory inputArray = new uint[](2);\n        //     inputArray[0] = tmp;\n        //     inputArray[1] = uint(\n        //         depositRegisterRoots[depositRegisterRoots.length - 1]\n        //     );\n        //     depositRegisterRoots.pop();\n        //     tmp = mimcMultiHash(inputArray);\n        // }\n        // depositRegisterRoots.push(bytes32(tmp));\n    }\n\n    function getDepositRegisterRoot() public {\n        emit dGetBytes32(depositRegisterRoots[0]);\n    }\n\n    function test(bytes32 x, uint X) public {\n        if (uint(x) - X == 0)\n            emit dDebug(true);\n        else \n            emit dDebug(false);\n    }\n\n    function testVerify(bytes32 r, bytes32 s, uint8 v, bytes32 hashv) public {\n        emit dGetAddress(ecrecover(hashv, v, r, s));\n    }\n\n    function mimcMultiHash(uint[] memory arr) public view returns (uint) {\n        uint r = 0;\n        for (uint i = 0; i < arr.length; i++) {\n            // emit dGetBytes32(bytes32(r));\n            r = (((r + mimc.MiMCpe7(arr[i], r)) % prime) + arr[i]) % prime;\n        }\n        return r;\n    }\n}\n",
  "sourcePath": "/home/ngyeenxhiu/Code/solidity-back-up/contracts/Middleware.sol",
  "compiler": {
    "name": "solc",
    "version": "0.8.19+commit.7dd6d404.Emscripten.clang"
  },
  "schemaVersion": "3.4.14",
  "updatedAt": "2023-08-29T18:31:20.117Z",
  "devdoc": {
    "kind": "dev",
    "methods": {},
    "version": 1
  },
  "userdoc": {
    "kind": "user",
    "methods": {},
    "version": 1
  }
}