{
  "contractName": "Middleware",
  "abi": [
    {
      "inputs": [
        {
          "internalType": "address",
          "name": "_mimcContractAddress",
          "type": "address"
        },
        {
          "internalType": "bytes32",
          "name": "initializationAccountRoot",
          "type": "bytes32"
        }
      ],
      "stateMutability": "nonpayable",
      "type": "constructor"
    },
    {
      "anonymous": false,
      "inputs": [
        {
          "indexed": false,
          "internalType": "bool",
          "name": "state",
          "type": "bool"
        }
      ],
      "name": "dDebug",
      "type": "event"
    },
    {
      "anonymous": false,
      "inputs": [
        {
          "indexed": false,
          "internalType": "address",
          "name": "addr",
          "type": "address"
        }
      ],
      "name": "dGetAddress",
      "type": "event"
    },
    {
      "anonymous": false,
      "inputs": [
        {
          "indexed": false,
          "internalType": "bool",
          "name": "b",
          "type": "bool"
        }
      ],
      "name": "dGetBool",
      "type": "event"
    },
    {
      "anonymous": false,
      "inputs": [
        {
          "indexed": false,
          "internalType": "bytes20",
          "name": "addr",
          "type": "bytes20"
        }
      ],
      "name": "dGetBytes20",
      "type": "event"
    },
    {
      "anonymous": false,
      "inputs": [
        {
          "indexed": false,
          "internalType": "bytes32",
          "name": "value",
          "type": "bytes32"
        }
      ],
      "name": "dGetBytes32",
      "type": "event"
    },
    {
      "anonymous": false,
      "inputs": [
        {
          "indexed": false,
          "internalType": "bytes32[]",
          "name": "arr",
          "type": "bytes32[]"
        }
      ],
      "name": "dGetBytes32Array",
      "type": "event"
    },
    {
      "anonymous": false,
      "inputs": [
        {
          "indexed": false,
          "internalType": "string",
          "name": "str",
          "type": "string"
        }
      ],
      "name": "dGetString",
      "type": "event"
    },
    {
      "anonymous": false,
      "inputs": [
        {
          "indexed": false,
          "internalType": "uint256",
          "name": "u",
          "type": "uint256"
        }
      ],
      "name": "dGetUint",
      "type": "event"
    },
    {
      "anonymous": false,
      "inputs": [
        {
          "indexed": false,
          "internalType": "bytes32",
          "name": "fromX",
          "type": "bytes32"
        },
        {
          "indexed": false,
          "internalType": "bytes32",
          "name": "fromY",
          "type": "bytes32"
        },
        {
          "indexed": false,
          "internalType": "bytes32",
          "name": "toX",
          "type": "bytes32"
        },
        {
          "indexed": false,
          "internalType": "bytes32",
          "name": "toY",
          "type": "bytes32"
        },
        {
          "indexed": false,
          "internalType": "uint256",
          "name": "amount",
          "type": "uint256"
        },
        {
          "indexed": false,
          "internalType": "bytes32",
          "name": "r8x",
          "type": "bytes32"
        },
        {
          "indexed": false,
          "internalType": "bytes32",
          "name": "r8y",
          "type": "bytes32"
        },
        {
          "indexed": false,
          "internalType": "bytes32",
          "name": "s",
          "type": "bytes32"
        }
      ],
      "name": "eDepositRegister",
      "type": "event"
    },
    {
      "anonymous": false,
      "inputs": [
        {
          "indexed": false,
          "internalType": "bool",
          "name": "b",
          "type": "bool"
        }
      ],
      "name": "sDepositRegister",
      "type": "event"
    },
    {
      "inputs": [],
      "name": "mimc",
      "outputs": [
        {
          "internalType": "contract IMiMC",
          "name": "",
          "type": "address"
        }
      ],
      "stateMutability": "view",
      "type": "function"
    },
    {
      "inputs": [
        {
          "internalType": "uint256[2]",
          "name": "_pA",
          "type": "uint256[2]"
        },
        {
          "internalType": "uint256[2][2]",
          "name": "_pB",
          "type": "uint256[2][2]"
        },
        {
          "internalType": "uint256[2]",
          "name": "_pC",
          "type": "uint256[2]"
        },
        {
          "internalType": "uint256[4]",
          "name": "_pubSignals",
          "type": "uint256[4]"
        }
      ],
      "name": "verifyProof",
      "outputs": [
        {
          "internalType": "bool",
          "name": "",
          "type": "bool"
        }
      ],
      "stateMutability": "view",
      "type": "function"
    },
    {
      "inputs": [
        {
          "internalType": "bytes32",
          "name": "fromX",
          "type": "bytes32"
        },
        {
          "internalType": "bytes32",
          "name": "fromY",
          "type": "bytes32"
        },
        {
          "internalType": "bytes32",
          "name": "toX",
          "type": "bytes32"
        },
        {
          "internalType": "bytes32",
          "name": "toY",
          "type": "bytes32"
        },
        {
          "internalType": "uint256",
          "name": "amount",
          "type": "uint256"
        },
        {
          "internalType": "bytes32",
          "name": "r8x",
          "type": "bytes32"
        },
        {
          "internalType": "bytes32",
          "name": "r8y",
          "type": "bytes32"
        },
        {
          "internalType": "bytes32",
          "name": "s",
          "type": "bytes32"
        }
      ],
      "name": "deposit",
      "outputs": [],
      "stateMutability": "payable",
      "type": "function"
    },
    {
      "inputs": [
        {
          "internalType": "bytes32",
          "name": "fromX",
          "type": "bytes32"
        },
        {
          "internalType": "bytes32",
          "name": "fromY",
          "type": "bytes32"
        },
        {
          "internalType": "bytes32",
          "name": "toX",
          "type": "bytes32"
        },
        {
          "internalType": "bytes32",
          "name": "toY",
          "type": "bytes32"
        },
        {
          "internalType": "uint256",
          "name": "amount",
          "type": "uint256"
        },
        {
          "internalType": "bytes32",
          "name": "r8x",
          "type": "bytes32"
        },
        {
          "internalType": "bytes32",
          "name": "r8y",
          "type": "bytes32"
        },
        {
          "internalType": "bytes32",
          "name": "s",
          "type": "bytes32"
        }
      ],
      "name": "_depositRegister",
      "outputs": [],
      "stateMutability": "nonpayable",
      "type": "function"
    },
    {
      "inputs": [],
      "name": "getDepositRegisterRoot",
      "outputs": [],
      "stateMutability": "nonpayable",
      "type": "function"
    },
    {
      "inputs": [
        {
          "internalType": "uint256[2]",
          "name": "_pA",
          "type": "uint256[2]"
        },
        {
          "internalType": "uint256[2][2]",
          "name": "_pB",
          "type": "uint256[2][2]"
        },
        {
          "internalType": "uint256[2]",
          "name": "_pC",
          "type": "uint256[2]"
        },
        {
          "internalType": "uint256[4]",
          "name": "_pubSignals",
          "type": "uint256[4]"
        }
      ],
      "name": "verifyProof_DepositRegister",
      "outputs": [],
      "stateMutability": "nonpayable",
      "type": "function"
    },
    {
      "inputs": [
        {
          "internalType": "uint256[]",
          "name": "arr",
          "type": "uint256[]"
        }
      ],
      "name": "mimcMultiHash",
      "outputs": [
        {
          "internalType": "uint256",
          "name": "",
          "type": "uint256"
        }
      ],
      "stateMutability": "view",
      "type": "function"
    }
  ],
  "bytecode": "0x60806040527f30644e72e131a029b85045b68181585d2833e84879b9709143e1f593f00000016000556040518061014001604052807fd16b23145b3ff136a467325badad0cc2c5d8ea604ed0dc9b77dae7a328d5f11981526020017f12a04951f1c189982c5f02331adbcd700c682a946a143d2bf4d88bb74261151681526020017f61b703991a5b7545f478fc1925412aaea4f03b059abb167f522124bbcaa69d0081526020017f233854b5fe8f01f97ad392c3c1b52a1cc34239fade343b9b04e6c09d2617b10581526020017f3611a2a4c38f96ea24b255159d6589655deb10f9a34f63dbac36e7037b875d0b81526020017f22bc177f448a1d361e2ecb94850cc8f1f16e14f4873784e06b0ff3ddb997002681526020017f65d611ca0d8d4f8b342c47c2e210b64df0916487cb7d886086b3fc150cc7040c81526020017ff41758044e3119f692dfd8cd2d38f69e46dc1e332f8f85bb78fa2084685fb11b81526020017f686244dade625871f3dcdaf448fe6b1833653b79bf1de9d3a7b93111ae3fc90481526020017fca83e72ddcd15a0ece2dc9c3ae354ef75b13999e405e1b243d5f502c0afe4f16815250600190600a620001c0929190620002af565b50348015620001ce57600080fd5b5060405162002228380380620022288339818101604052810190620001f49190620003b8565b81600e60006101000a81548173ffffffffffffffffffffffffffffffffffffffff021916908373ffffffffffffffffffffffffffffffffffffffff160217905550600060118190555033600d60006101000a81548173ffffffffffffffffffffffffffffffffffffffff021916908373ffffffffffffffffffffffffffffffffffffffff160217905550600c8190806001815401808255809150506001900390600052602060002001600090919091909150555050620003ff565b82600a8101928215620002e1579160200282015b82811115620002e0578251825591602001919060010190620002c3565b5b509050620002f09190620002f4565b5090565b5b808211156200030f576000816000905550600101620002f5565b5090565b600080fd5b600073ffffffffffffffffffffffffffffffffffffffff82169050919050565b6000620003458262000318565b9050919050565b620003578162000338565b81146200036357600080fd5b50565b60008151905062000377816200034c565b92915050565b6000819050919050565b62000392816200037d565b81146200039e57600080fd5b50565b600081519050620003b28162000387565b92915050565b60008060408385031215620003d257620003d162000313565b5b6000620003e28582860162000366565b9250506020620003f585828601620003a1565b9150509250929050565b611e19806200040f6000396000f3fe6080604052600436106100705760003560e01c806376385cc31161004e57806376385cc3146100f2578063be722daf1461011d578063ce04cbb31461015a578063d5d316761461017657610070565b80635998ee74146100755780635caba8841461008c5780635fe8c13b146100b5575b600080fd5b34801561008157600080fd5b5061008a61019f565b005b34801561009857600080fd5b506100b360048036038101906100ae9190611326565b6101f7565b005b3480156100c157600080fd5b506100dc60048036038101906100d79190611447565b6106aa565b6040516100e991906114cb565b60405180910390f35b3480156100fe57600080fd5b50610107610c29565b6040516101149190611565565b60405180910390f35b34801561012957600080fd5b50610144600480360381019061013f91906116d4565b610c4f565b604051610151919061172c565b60405180910390f35b610174600480360381019061016f9190611326565b610d9d565b005b34801561018257600080fd5b5061019d60048036038101906101989190611447565b610ed4565b005b7f6d6933b127aa9e6b219cadc33b8f72b9d6528ae4397fc9da80cbd210eb970d49600f6000815481106101d5576101d4611747565b5b90600052602060002001546040516101ed9190611785565b60405180910390a1565b60016011600082825461020a91906117cf565b925050819055506000600467ffffffffffffffff81111561022e5761022d611596565b5b60405190808252806020026020018201604052801561025c5781602001602082028036833780820191505090505b5090508660001c8160008151811061027757610276611747565b5b6020026020010181815250508560001c8160018151811061029b5761029a611747565b5b60200260200101818152505084816002815181106102bc576102bb611747565b5b6020026020010181815250506000816003815181106102de576102dd611747565b5b60200260200101818152505060006102f582610c4f565b90506000600667ffffffffffffffff81111561031457610313611596565b5b6040519080825280602002602001820160405280156103425781602001602082028036833780820191505090505b5090508a60001c8160008151811061035d5761035c611747565b5b6020026020010181815250508960001c8160018151811061038157610380611747565b5b6020026020010181815250508860001c816002815181106103a5576103a4611747565b5b6020026020010181815250508760001c816003815181106103c9576103c8611747565b5b6020026020010181815250506000816004815181106103eb576103ea611747565b5b602002602001018181525050868160058151811061040c5761040b611747565b5b602002602001018181525050600061042382610c4f565b90507ff913a91cb7941f332eb9fb4a863f361fc6430a84a2523d30a925e0f0d834d31d8c8c8c8c8c8c8c8c604051610462989796959493929190611803565b60405180910390a160008390506000829050600060115490505b600060028261048b91906118b0565b036106415760028161049d91906118e1565b90506000600267ffffffffffffffff8111156104bc576104bb611596565b5b6040519080825280602002602001820160405280156104ea5781602001602082028036833780820191505090505b509050600f6001600f805490506105019190611912565b8154811061051257610511611747565b5b906000526020600020015460001c8160008151811061053457610533611747565b5b602002602001018181525050838160018151811061055557610554611747565b5b602002602001018181525050600f80548061057357610572611946565b5b6001900381819060005260206000200160009055905561059281610c4f565b9350601060016010805490506105a89190611912565b815481106105b9576105b8611747565b5b906000526020600020015460001c816000815181106105db576105da611747565b5b60200260200101818152505082816001815181106105fc576105fb611747565b5b602002602001018181525050601080548061061a57610619611946565b5b6001900381819060005260206000200160009055905561063981610c4f565b92505061047c565b600f8360001b908060018154018082558091505060019003906000526020600020016000909190919091505560108260001b9080600181540180825580915050600190039060005260206000200160009091909190915055505050505050505050505050505050565b6000610bc6565b7f30644e72e131a029b85045b68181585d97816a916871ca8d3c208c16d87cfd4781106106e2576000805260206000f35b50565b600060405183815284602082015285604082015260408160608360076107d05a03fa915081610718576000805260206000f35b825160408201526020830151606082015260408360808360066107d05a03fa915081610748576000805260206000f35b505050505050565b600060808601600087017f2d7aef4dacbf074b67b0435003beab901c46d7148623c9743d96f771905676d181527e38ce559c0e261a91fa95a5b9529b346f5a9c58f5a68f5fd288b45576223dff60208201526107f260008801357f06eda17b868255463022b53906d5ab86ffd45bc4863e06c2749f1215f6feab527f06b70ceb3d4920d983c59e4ed60465546e203ec9ef2fd0908d28837a33f94a7a846106e5565b61084260208801357f16bea1b4cb21a097bcc8d2bc72dfc5bb883b45e9ed04579c6264df705203a9b57f04d8e0d74a9b1442b8ad8f429fd4ca36f160d4fb8c2ebc59bacc09ee66b09e37846106e5565b61089260408801357f0204f4ace627c47608466c9c583f56f9a5584b1228e933a3e905bad0801c94957f1d0d008e53a0927c1cf3d548f9e3dcb63901389de34b0c00528bd4ca1b74bc10846106e5565b6108e260608801357f212d13a2a62a7388c373fe480f95fd982a8900931adeb713f5cd463f6d0ddc917f20ef3224f03062c7a1068be0c12e523457bc1be72ea2775e0532c0d640417f20846106e5565b833582527f30644e72e131a029b85045b68181585d97816a916871ca8d3c208c16d87cfd4760208501357f30644e72e131a029b85045b68181585d97816a916871ca8d3c208c16d87cfd4703066020830152843560408301526020850135606083015260408501356080830152606085013560a08301527f05ba24cecf2444285b0dff3e66bf64cae51ad7cc7e88cac30eb7d0684d4d4f8860c08301527f0ff2df766d5153e77d185c2733928d16e23944c9b2dfaf312ee95c06babc76e060e08301527f0c0a54352f1468dbb9dedc826075265ff2e3e00805965d8b7daf0a794757b7036101008301527f2ac605bb9c1eb01a8b6b34e5f77b8e126869d5313e7a8c64f7a74231dfe00c8f6101208301527f2f68e3b4505a2774d4661a51c4a180d8c5fd226d98ae824692ee64d3104188076101408301527f1d253c753f5ef0678a6c8664868f8ab0e98340bd8f5292d88570036ec197b702610160830152600088015161018083015260206000018801516101a08301527f198e9393920d483a7260bfb731fb5d25f1aa493335a9e71297e485b7aef312c26101c08301527f1800deef121f1e76426a00665e5c4479674322d4f75edadd46debd5cd992f6ed6101e08301527f090689d0585ff075ec9e99ad690c3395bc4b313370b38ef355acdadcd122975b6102008301527f12c85ea5db8c6deb4aab71808dcb408fe3d1e7690c43d37b4ce6cc0166fa7daa610220830152853561024083015260208601356102608301527f056dd6dff00cc7e0eef27b7d4295df9ca4d8d59a623690f150ba41ed9fc629a26102808301527f2dceedf7b148f2b00bab09301b399f6036ff77990cee962a413268d6487f708f6102a08301527f197a282db166d94c67c81ba6cadb8c416c2816a7638d8035ecbc3ff5030b9c026102c08301527f0da6c6b2c981f5493e96373af515ae54411aa9047a25964de97f322e58d0eccc6102e08301526020826103008460086107d05a03fa82518116935050505095945050505050565b6040516103808101604052610bde60008401356106b1565b610beb60208401356106b1565b610bf860408401356106b1565b610c0560608401356106b1565b610c1260808401356106b1565b610c1f818486888a610750565b8060005260206000f35b600e60009054906101000a900473ffffffffffffffffffffffffffffffffffffffff1681565b6000806000905060005b8351811015610d9357600054600054858381518110610c7b57610c7a611747565b5b6020026020010151610c8d91906118b0565b600054600e60009054906101000a900473ffffffffffffffffffffffffffffffffffffffff1673ffffffffffffffffffffffffffffffffffffffff1663d15ca109600054898781518110610ce457610ce3611747565b5b6020026020010151610cf691906118b0565b876040518363ffffffff1660e01b8152600401610d14929190611975565b602060405180830381865afa158015610d31573d6000803e3d6000fd5b505050506040513d601f19601f82011682018060405250810190610d5591906119b3565b85610d6091906117cf565b610d6a91906118b0565b610d7491906117cf565b610d7e91906118b0565b91508080610d8b906119e0565b915050610c59565b5080915050919050565b600060608787604051602001610db4929190611a49565b60405160208183030381529060405280519060200120901b60601c9050600b60008273ffffffffffffffffffffffffffffffffffffffff1673ffffffffffffffffffffffffffffffffffffffff16815260200190815260200160002060009054906101000a900460ff1615610e60577fbc8b13c8203b2da79c17c01eb010027414606877eff0e4c6347642d60879d51a6000604051610e5391906114cb565b60405180910390a1610ec9565b6001600b60008373ffffffffffffffffffffffffffffffffffffffff1673ffffffffffffffffffffffffffffffffffffffff16815260200190815260200160002060006101000a81548160ff021916908315150217905550610ec889898989898989896101f7565b5b505050505050505050565b80600060048110610ee857610ee7611747565b5b602002013560001b6010600081548110610f0557610f04611747565b5b906000526020600020015414610f50576040517f08c379a0000000000000000000000000000000000000000000000000000000008152600401610f4790611af8565b60405180910390fd5b80600160048110610f6457610f63611747565b5b602002013560001b600f600081548110610f8157610f80611747565b5b906000526020600020015414610fcc576040517f08c379a0000000000000000000000000000000000000000000000000000000008152600401610fc390611b64565b60405180910390fd5b80600260048110610fe057610fdf611747565b5b602002013560001b600c6001600c80549050610ffc9190611912565b8154811061100d5761100c611747565b5b906000526020600020015414611058576040517f08c379a000000000000000000000000000000000000000000000000000000000815260040161104f90611bd0565b60405180910390fd5b3073ffffffffffffffffffffffffffffffffffffffff16635fe8c13b858585856040518563ffffffff1660e01b81526004016110979493929190611cd8565b602060405180830381865afa1580156110b4573d6000803e3d6000fd5b505050506040513d601f19601f820116820180604052508101906110d89190611d4b565b6110e157600080fd5b600c816003600481106110f7576110f6611747565b5b602002013560001b908060018154018082558091505060019003906000526020600020016000909190919091505560005b600160108054905061113a9190611912565b8160ff1610156111fd5760106001826111539190611d85565b60ff168154811061116757611166611747565b5b906000526020600020015460108260ff168154811061118957611188611747565b5b9060005260206000200181905550600f6001826111a69190611d85565b60ff16815481106111ba576111b9611747565b5b9060005260206000200154600f8260ff16815481106111dc576111db611747565b5b906000526020600020018190555080806111f590611dba565b915050611128565b5060108054806112105761120f611946565b5b60019003818190600052602060002001600090559055600f80548061123857611237611946565b5b600190038181906000526020600020016000905590556004601160008282546112619190611912565b925050819055507f306c072e846faecd9b6260ac4eb684d0b68ad26bd868bc2ff807e01e0550a5ee600160405161129891906114cb565b60405180910390a150505050565b6000604051905090565b600080fd5b600080fd5b6000819050919050565b6112cd816112ba565b81146112d857600080fd5b50565b6000813590506112ea816112c4565b92915050565b6000819050919050565b611303816112f0565b811461130e57600080fd5b50565b600081359050611320816112fa565b92915050565b600080600080600080600080610100898b031215611347576113466112b0565b5b60006113558b828c016112db565b98505060206113668b828c016112db565b97505060406113778b828c016112db565b96505060606113888b828c016112db565b95505060806113998b828c01611311565b94505060a06113aa8b828c016112db565b93505060c06113bb8b828c016112db565b92505060e06113cc8b828c016112db565b9150509295985092959890939650565b600080fd5b6000819050826020600202820111156113fd576113fc6113dc565b5b92915050565b60008190508260406002028201111561141f5761141e6113dc565b5b92915050565b600081905082602060040282011115611441576114406113dc565b5b92915050565b6000806000806101808587031215611462576114616112b0565b5b6000611470878288016113e1565b945050604061148187828801611403565b93505060c0611492878288016113e1565b9250506101006114a487828801611425565b91505092959194509250565b60008115159050919050565b6114c5816114b0565b82525050565b60006020820190506114e060008301846114bc565b92915050565b600073ffffffffffffffffffffffffffffffffffffffff82169050919050565b6000819050919050565b600061152b611526611521846114e6565b611506565b6114e6565b9050919050565b600061153d82611510565b9050919050565b600061154f82611532565b9050919050565b61155f81611544565b82525050565b600060208201905061157a6000830184611556565b92915050565b600080fd5b6000601f19601f8301169050919050565b7f4e487b7100000000000000000000000000000000000000000000000000000000600052604160045260246000fd5b6115ce82611585565b810181811067ffffffffffffffff821117156115ed576115ec611596565b5b80604052505050565b60006116006112a6565b905061160c82826115c5565b919050565b600067ffffffffffffffff82111561162c5761162b611596565b5b602082029050602081019050919050565b600061165061164b84611611565b6115f6565b90508083825260208201905060208402830185811115611673576116726113dc565b5b835b8181101561169c57806116888882611311565b845260208401935050602081019050611675565b5050509392505050565b600082601f8301126116bb576116ba611580565b5b81356116cb84826020860161163d565b91505092915050565b6000602082840312156116ea576116e96112b0565b5b600082013567ffffffffffffffff811115611708576117076112b5565b5b611714848285016116a6565b91505092915050565b611726816112f0565b82525050565b6000602082019050611741600083018461171d565b92915050565b7f4e487b7100000000000000000000000000000000000000000000000000000000600052603260045260246000fd5b61177f816112ba565b82525050565b600060208201905061179a6000830184611776565b92915050565b7f4e487b7100000000000000000000000000000000000000000000000000000000600052601160045260246000fd5b60006117da826112f0565b91506117e5836112f0565b92508282019050808211156117fd576117fc6117a0565b5b92915050565b600061010082019050611819600083018b611776565b611826602083018a611776565b6118336040830189611776565b6118406060830188611776565b61184d608083018761171d565b61185a60a0830186611776565b61186760c0830185611776565b61187460e0830184611776565b9998505050505050505050565b7f4e487b7100000000000000000000000000000000000000000000000000000000600052601260045260246000fd5b60006118bb826112f0565b91506118c6836112f0565b9250826118d6576118d5611881565b5b828206905092915050565b60006118ec826112f0565b91506118f7836112f0565b92508261190757611906611881565b5b828204905092915050565b600061191d826112f0565b9150611928836112f0565b92508282039050818111156119405761193f6117a0565b5b92915050565b7f4e487b7100000000000000000000000000000000000000000000000000000000600052603160045260246000fd5b600060408201905061198a600083018561171d565b611997602083018461171d565b9392505050565b6000815190506119ad816112fa565b92915050565b6000602082840312156119c9576119c86112b0565b5b60006119d78482850161199e565b91505092915050565b60006119eb826112f0565b91507fffffffffffffffffffffffffffffffffffffffffffffffffffffffffffffffff8203611a1d57611a1c6117a0565b5b600182019050919050565b6000819050919050565b611a43611a3e826112ba565b611a28565b82525050565b6000611a558285611a32565b602082019150611a658284611a32565b6020820191508190509392505050565b600082825260208201905092915050565b7f4465706f736974205472616e73616374696f6e732061726520696e76616c696460008201527f2100000000000000000000000000000000000000000000000000000000000000602082015250565b6000611ae2602183611a75565b9150611aed82611a86565b604082019050919050565b60006020820190508181036000830152611b1181611ad5565b9050919050565b7f4e6577204163636f756e74732061726520696e76616c69640000000000000000600082015250565b6000611b4e601883611a75565b9150611b5982611b18565b602082019050919050565b60006020820190508181036000830152611b7d81611b41565b9050919050565b7f5468652073746174657320646f206e6f74206d61746368000000000000000000600082015250565b6000611bba601783611a75565b9150611bc582611b84565b602082019050919050565b60006020820190508181036000830152611be981611bad565b9050919050565b82818337505050565b611c0560408383611bf0565b5050565b600060029050919050565b600081905092915050565b6000819050919050565b611c3560408383611bf0565b5050565b6000611c458383611c29565b60408301905092915050565b600082905092915050565b6000604082019050919050565b611c7281611c09565b611c7c8184611c14565b9250611c8782611c1f565b8060005b83811015611cc057611c9d8284611c51565b611ca78782611c39565b9650611cb283611c5c565b925050600181019050611c8b565b505050505050565b611cd460808383611bf0565b5050565b600061018082019050611cee6000830187611bf9565b611cfb6040830186611c69565b611d0860c0830185611bf9565b611d16610100830184611cc8565b95945050505050565b611d28816114b0565b8114611d3357600080fd5b50565b600081519050611d4581611d1f565b92915050565b600060208284031215611d6157611d606112b0565b5b6000611d6f84828501611d36565b91505092915050565b600060ff82169050919050565b6000611d9082611d78565b9150611d9b83611d78565b9250828201905060ff811115611db457611db36117a0565b5b92915050565b6000611dc582611d78565b915060ff8203611dd857611dd76117a0565b5b60018201905091905056fea2646970667358221220d154a81e77c763308bbbe463d4e4160b139e3d671fa4bfef5d6ee8b593ea8c2764736f6c63430008130033",
  "immutableReferences": {},
  "source": "pragma solidity ^0.8.0;\n\nimport \"./DepositRegisterVerifier.sol\";\n\ninterface IMiMC {\n    function MiMCpe7(uint256, uint256) external pure returns (uint256);\n}\n\n// interface IDepositRegisterVerifier {\n//     function verifyProof(\n//         uint[2] calldata,\n//         uint[2][2] calldata,\n//         uint[2] calldata,\n//         uint[4] calldata\n//     ) external returns (bool);\n// }\n\ncontract Middleware is DepositRegisterVerifier {\n    // constants\n    uint prime =\n        21888242871839275222246405745257275088548364400416034343698204186575808495617;\n    uint[10] zeroCache = [\n        94722680099764756159715344114821272032571426768046774804987035158066048135449,\n        8424832841562211226544002910946085349648918813225913513442684203240096077078,\n        44197704158317907713192630833793885820470319960428659112617039771932448693504,\n        15930477789293542321832788520371595718736154179618338318569942051590503903493,\n        24456052748532017163542039193045207500912698699374716792226646706106269129995,\n        15710966271306649051349373776887832255201990728308403695502827246325884977190,\n        46061825755796793325488921878807366107061633217621406189820463087175544013836,\n        110405580006559763743081492937565134120730116456298553411541600514280272146715,\n        47214162484447726990215848897549943863707582778233274500640334702748702329092,\n        91600247919164313938162093148836160205870475304194670412711077245187285470998\n    ];\n\n    // variables\n    mapping(address => bool) existedPubkeys;\n    bytes32[] accountRoots;\n    address coordinator;\n    IMiMC public mimc;\n    // IDepositRegisterVerifier public dpVerifier; // dp - deposit register\n\n    // deposit register variables\n    bytes32[] depositAccountRoots;\n    bytes32[] depositTxRoots;\n    uint noDepositRegisterTx;\n\n    // Debug events\n    event dDebug(bool state);\n    event dGetBytes32(bytes32 value);\n    event dGetString(string str);\n    event dGetAddress(address addr);\n    event dGetBytes20(bytes20 addr);\n    event dGetUint(uint u);\n    event dGetBytes32Array(bytes32[] arr);\n    event dGetBool(bool b);\n\n    // main events\n    event eDepositRegister(\n        bytes32 fromX,\n        bytes32 fromY,\n        bytes32 toX,\n        bytes32 toY,\n        uint amount,\n        bytes32 r8x,\n        bytes32 r8y,\n        bytes32 s\n    );\n    event sDepositRegister(bool b);\n\n    constructor(\n        address _mimcContractAddress,\n        bytes32 initializationAccountRoot\n    ) {\n        mimc = IMiMC(_mimcContractAddress);\n        noDepositRegisterTx = 0;\n        coordinator = msg.sender;\n        accountRoots.push(initializationAccountRoot);\n    }\n\n    function deposit(\n        bytes32 fromX,\n        bytes32 fromY,\n        bytes32 toX,\n        bytes32 toY,\n        uint amount,\n        bytes32 r8x,\n        bytes32 r8y,\n        bytes32 s\n    ) public payable {\n        // emit dDebug(true);\n        // require(uint(amount) * 1e18 == msg.value, \"amount*1e18 != msg.value\");\n        address receiverAddress = address(\n            bytes20((keccak256(abi.encodePacked(toX, toY))) << 96)\n        );\n\n        if (existedPubkeys[receiverAddress]) {\n            emit dDebug(false);\n        } else {\n            existedPubkeys[receiverAddress] = true;\n            _depositRegister(fromX, fromY, toX, toY, amount, r8x, r8y, s);\n        }\n    }\n\n    function _depositRegister(\n        bytes32 fromX,\n        bytes32 fromY,\n        bytes32 toX,\n        bytes32 toY,\n        uint amount,\n        bytes32 r8x,\n        bytes32 r8y,\n        bytes32 s\n    ) public {\n        noDepositRegisterTx += 1;\n\n        // create a new account\n        uint[] memory accountProperties = new uint[](4);\n        accountProperties[0] = uint(toX);\n        accountProperties[1] = uint(toY);\n        accountProperties[2] = amount;\n        accountProperties[3] = 0;\n        uint newAccountHash = uint(mimcMultiHash(accountProperties));\n\n        // create a new tx\n        uint[] memory txPropertes = new uint[](6);\n        txPropertes[0] = uint(fromX);\n        txPropertes[1] = uint(fromY);\n        txPropertes[2] = uint(toX);\n        txPropertes[3] = uint(toY);\n        txPropertes[4] = 0;\n        txPropertes[5] = amount;\n        uint newTxHash = uint(mimcMultiHash(txPropertes));\n\n        emit eDepositRegister(fromX, fromY, toX, toY, amount, r8x, r8y, s);\n\n        // re-hash root\n        uint tmp1 = newAccountHash;\n        uint tmp2 = newTxHash;\n        uint _noTx = noDepositRegisterTx;\n        while (_noTx % 2 == 0) {\n            _noTx /= 2;\n            uint[] memory inputArray = new uint[](2);\n            inputArray[0] = uint(\n                depositAccountRoots[depositAccountRoots.length - 1]\n            );\n            inputArray[1] = tmp1;\n            depositAccountRoots.pop();\n            tmp1 = mimcMultiHash(inputArray);\n\n            inputArray[0] = uint(depositTxRoots[depositTxRoots.length - 1]);\n            inputArray[1] = tmp2;\n            depositTxRoots.pop();\n            tmp2 = mimcMultiHash(inputArray);\n        }\n        depositAccountRoots.push(bytes32(tmp1));\n        depositTxRoots.push(bytes32(tmp2));\n    }\n\n    function getDepositRegisterRoot() public {\n        emit dGetBytes32(depositAccountRoots[0]);\n    }\n\n    function verifyProof_DepositRegister(\n        uint[2] calldata _pA,\n        uint[2][2] calldata _pB,\n        uint[2] calldata _pC,\n        uint[4] calldata _pubSignals\n    ) public { \n        require(\n            depositTxRoots[0] == bytes32(_pubSignals[0]),\n            \"Deposit Transactions are invalid!\"\n        );\n        require(\n            depositAccountRoots[0] == bytes32(_pubSignals[1]),\n            \"New Accounts are invalid\"\n        );\n        require(\n            accountRoots[accountRoots.length - 1] == bytes32(_pubSignals[2]),\n            \"The states do not match\"\n        );\n\n        require(this.verifyProof(_pA, _pB, _pC, _pubSignals));\n        accountRoots.push(bytes32(_pubSignals[3]));\n        for (uint8 i = 0; i < depositTxRoots.length - 1; i++) {\n            depositTxRoots[i] = depositTxRoots[i + 1];\n            depositAccountRoots[i] = depositAccountRoots[i + 1];\n        }\n        depositTxRoots.pop();\n        depositAccountRoots.pop();\n        noDepositRegisterTx -= 4;\n        emit sDepositRegister(true);\n    }\n\n    function update() private {}\n\n    function mimcMultiHash(uint[] memory arr) public view returns (uint) {\n        uint r = 0;\n        for (uint i = 0; i < arr.length; i++) {\n            r =\n                (((r + mimc.MiMCpe7(arr[i] % prime, r)) % prime) +\n                    (arr[i] % prime)) %\n                prime;\n        }\n        return r;\n    }\n}\n",
  "sourcePath": "/home/ngyeenxhiu/Code/zkSNARK_implementation/contracts/Middleware.sol",
  "compiler": {
    "name": "solc",
    "version": "0.8.19+commit.7dd6d404.Emscripten.clang"
  },
  "schemaVersion": "3.4.14",
  "updatedAt": "2023-09-09T21:27:05.811Z",
  "devdoc": {
    "kind": "dev",
    "methods": {},
    "version": 1
  },
  "userdoc": {
    "kind": "user",
    "methods": {},
    "version": 1
  }
}