{
  "contractName": "Middleware",
  "abi": [
    {
      "inputs": [
        {
          "internalType": "address",
          "name": "_mimcContractAddress",
          "type": "address"
        },
        {
          "internalType": "bytes32",
          "name": "initializationAccountRoot",
          "type": "bytes32"
        }
      ],
      "stateMutability": "nonpayable",
      "type": "constructor"
    },
    {
      "anonymous": false,
      "inputs": [
        {
          "indexed": false,
          "internalType": "bool",
          "name": "state",
          "type": "bool"
        }
      ],
      "name": "dDebug",
      "type": "event"
    },
    {
      "anonymous": false,
      "inputs": [
        {
          "indexed": false,
          "internalType": "address",
          "name": "addr",
          "type": "address"
        }
      ],
      "name": "dGetAddress",
      "type": "event"
    },
    {
      "anonymous": false,
      "inputs": [
        {
          "indexed": false,
          "internalType": "bytes20",
          "name": "addr",
          "type": "bytes20"
        }
      ],
      "name": "dGetBytes20",
      "type": "event"
    },
    {
      "anonymous": false,
      "inputs": [
        {
          "indexed": false,
          "internalType": "bytes32",
          "name": "value",
          "type": "bytes32"
        }
      ],
      "name": "dGetBytes32",
      "type": "event"
    },
    {
      "anonymous": false,
      "inputs": [
        {
          "indexed": false,
          "internalType": "bytes32[]",
          "name": "arr",
          "type": "bytes32[]"
        }
      ],
      "name": "dGetBytes32Array",
      "type": "event"
    },
    {
      "anonymous": false,
      "inputs": [
        {
          "indexed": false,
          "internalType": "string",
          "name": "str",
          "type": "string"
        }
      ],
      "name": "dGetString",
      "type": "event"
    },
    {
      "anonymous": false,
      "inputs": [
        {
          "indexed": false,
          "internalType": "uint256",
          "name": "u",
          "type": "uint256"
        }
      ],
      "name": "dGetUint",
      "type": "event"
    },
    {
      "anonymous": false,
      "inputs": [
        {
          "indexed": false,
          "internalType": "bytes32",
          "name": "fromX",
          "type": "bytes32"
        },
        {
          "indexed": false,
          "internalType": "bytes32",
          "name": "fromY",
          "type": "bytes32"
        },
        {
          "indexed": false,
          "internalType": "bytes32",
          "name": "toX",
          "type": "bytes32"
        },
        {
          "indexed": false,
          "internalType": "bytes32",
          "name": "toY",
          "type": "bytes32"
        },
        {
          "indexed": false,
          "internalType": "uint256",
          "name": "amount",
          "type": "uint256"
        },
        {
          "indexed": false,
          "internalType": "bytes32",
          "name": "r",
          "type": "bytes32"
        },
        {
          "indexed": false,
          "internalType": "bytes32",
          "name": "s",
          "type": "bytes32"
        },
        {
          "indexed": false,
          "internalType": "uint8",
          "name": "v",
          "type": "uint8"
        }
      ],
      "name": "eDepositRegister",
      "type": "event"
    },
    {
      "inputs": [],
      "name": "dpVerifier",
      "outputs": [
        {
          "internalType": "contract IDepositRegisterVerifier",
          "name": "",
          "type": "address"
        }
      ],
      "stateMutability": "view",
      "type": "function"
    },
    {
      "inputs": [],
      "name": "mimc",
      "outputs": [
        {
          "internalType": "contract IMiMC",
          "name": "",
          "type": "address"
        }
      ],
      "stateMutability": "view",
      "type": "function"
    },
    {
      "inputs": [
        {
          "internalType": "bytes32",
          "name": "fromX",
          "type": "bytes32"
        },
        {
          "internalType": "bytes32",
          "name": "fromY",
          "type": "bytes32"
        },
        {
          "internalType": "bytes32",
          "name": "toX",
          "type": "bytes32"
        },
        {
          "internalType": "bytes32",
          "name": "toY",
          "type": "bytes32"
        },
        {
          "internalType": "uint256",
          "name": "amount",
          "type": "uint256"
        },
        {
          "internalType": "bytes32",
          "name": "r",
          "type": "bytes32"
        },
        {
          "internalType": "bytes32",
          "name": "s",
          "type": "bytes32"
        },
        {
          "internalType": "uint8",
          "name": "v",
          "type": "uint8"
        }
      ],
      "name": "deposit",
      "outputs": [],
      "stateMutability": "payable",
      "type": "function"
    },
    {
      "inputs": [
        {
          "internalType": "bytes32",
          "name": "fromX",
          "type": "bytes32"
        },
        {
          "internalType": "bytes32",
          "name": "fromY",
          "type": "bytes32"
        },
        {
          "internalType": "bytes32",
          "name": "toX",
          "type": "bytes32"
        },
        {
          "internalType": "bytes32",
          "name": "toY",
          "type": "bytes32"
        },
        {
          "internalType": "uint256",
          "name": "amount",
          "type": "uint256"
        },
        {
          "internalType": "bytes32",
          "name": "r",
          "type": "bytes32"
        },
        {
          "internalType": "bytes32",
          "name": "s",
          "type": "bytes32"
        },
        {
          "internalType": "uint8",
          "name": "v",
          "type": "uint8"
        }
      ],
      "name": "_depositRegister",
      "outputs": [],
      "stateMutability": "nonpayable",
      "type": "function"
    },
    {
      "inputs": [],
      "name": "getDepositRegisterRoot",
      "outputs": [],
      "stateMutability": "nonpayable",
      "type": "function"
    },
    {
      "inputs": [
        {
          "internalType": "uint256[2]",
          "name": "pi_a",
          "type": "uint256[2]"
        },
        {
          "internalType": "uint256[2][2]",
          "name": "pi_b",
          "type": "uint256[2][2]"
        },
        {
          "internalType": "uint256[2]",
          "name": "pi_c",
          "type": "uint256[2]"
        },
        {
          "internalType": "uint256[3]",
          "name": "publicSignals",
          "type": "uint256[3]"
        }
      ],
      "name": "verifyProof_DepositRegister",
      "outputs": [
        {
          "internalType": "bool",
          "name": "",
          "type": "bool"
        }
      ],
      "stateMutability": "nonpayable",
      "type": "function"
    },
    {
      "inputs": [
        {
          "internalType": "uint256[]",
          "name": "arr",
          "type": "uint256[]"
        }
      ],
      "name": "mimcMultiHash",
      "outputs": [
        {
          "internalType": "uint256",
          "name": "",
          "type": "uint256"
        }
      ],
      "stateMutability": "nonpayable",
      "type": "function"
    }
  ],
  "bytecode": "0x60806040527f30644e72e131a029b85045b68181585d2833e84879b9709143e1f593f00000016000556040518061014001604052807fd16b23145b3ff136a467325badad0cc2c5d8ea604ed0dc9b77dae7a328d5f11981526020017f12a04951f1c189982c5f02331adbcd700c682a946a143d2bf4d88bb74261151681526020017f61b703991a5b7545f478fc1925412aaea4f03b059abb167f522124bbcaa69d0081526020017f233854b5fe8f01f97ad392c3c1b52a1cc34239fade343b9b04e6c09d2617b10581526020017f3611a2a4c38f96ea24b255159d6589655deb10f9a34f63dbac36e7037b875d0b81526020017f22bc177f448a1d361e2ecb94850cc8f1f16e14f4873784e06b0ff3ddb997002681526020017f65d611ca0d8d4f8b342c47c2e210b64df0916487cb7d886086b3fc150cc7040c81526020017ff41758044e3119f692dfd8cd2d38f69e46dc1e332f8f85bb78fa2084685fb11b81526020017f686244dade625871f3dcdaf448fe6b1833653b79bf1de9d3a7b93111ae3fc90481526020017fca83e72ddcd15a0ece2dc9c3ae354ef75b13999e405e1b243d5f502c0afe4f16815250600190600a620001c0929190620002af565b50348015620001ce57600080fd5b5060405162001431380380620014318339818101604052810190620001f49190620003b8565b81600e60006101000a81548173ffffffffffffffffffffffffffffffffffffffff021916908373ffffffffffffffffffffffffffffffffffffffff160217905550600060128190555033600d60006101000a81548173ffffffffffffffffffffffffffffffffffffffff021916908373ffffffffffffffffffffffffffffffffffffffff160217905550600c8190806001815401808255809150506001900390600052602060002001600090919091909150555050620003ff565b82600a8101928215620002e1579160200282015b82811115620002e0578251825591602001919060010190620002c3565b5b509050620002f09190620002f4565b5090565b5b808211156200030f576000816000905550600101620002f5565b5090565b600080fd5b600073ffffffffffffffffffffffffffffffffffffffff82169050919050565b6000620003458262000318565b9050919050565b620003578162000338565b81146200036357600080fd5b50565b60008151905062000377816200034c565b92915050565b6000819050919050565b62000392816200037d565b81146200039e57600080fd5b50565b600081519050620003b28162000387565b92915050565b60008060408385031215620003d257620003d162000313565b5b6000620003e28582860162000366565b9250506020620003f585828601620003a1565b9150509250929050565b611022806200040f6000396000f3fe6080604052600436106100705760003560e01c8063a4ab2f431161004e578063a4ab2f43146100d3578063be722daf146100fc578063e3c5e1c614610139578063e479c7ee1461017657610070565b80634efb79dc146100755780635998ee741461009157806376385cc3146100a8575b600080fd5b61008f600480360381019061008a9190610827565b6101a1565b005b34801561009d57600080fd5b506100a661032d565b005b3480156100b457600080fd5b506100bd610385565b6040516100ca919061095c565b60405180910390f35b3480156100df57600080fd5b506100fa60048036038101906100f59190610827565b6103ab565b005b34801561010857600080fd5b50610123600480360381019061011e9190610ad0565b610544565b6040516101309190610b28565b60405180910390f35b34801561014557600080fd5b50610160600480360381019061015b9190610ba9565b610692565b60405161016d9190610c2d565b60405180910390f35b34801561018257600080fd5b5061018b610748565b6040516101989190610c69565b60405180910390f35b34670de0b6b3a7640000856101b69190610cb3565b146101f6576040517f08c379a00000000000000000000000000000000000000000000000000000000081526004016101ed90610d52565b60405180910390fd5b60006060878760405160200161020d929190610d93565b60405160208183030381529060405280519060200120901b60601c9050600b60008273ffffffffffffffffffffffffffffffffffffffff1673ffffffffffffffffffffffffffffffffffffffff16815260200190815260200160002060009054906101000a900460ff16156102b9577fbc8b13c8203b2da79c17c01eb010027414606877eff0e4c6347642d60879d51a60006040516102ac9190610c2d565b60405180910390a1610322565b6001600b60008373ffffffffffffffffffffffffffffffffffffffff1673ffffffffffffffffffffffffffffffffffffffff16815260200190815260200160002060006101000a81548160ff02191690831515021790555061032189898989898989896103ab565b5b505050505050505050565b7f6d6933b127aa9e6b219cadc33b8f72b9d6528ae4397fc9da80cbd210eb970d49601060008154811061036357610362610dbf565b5b906000526020600020015460405161037b9190610dfd565b60405180910390a1565b600e60009054906101000a900473ffffffffffffffffffffffffffffffffffffffff1681565b6001601260008282546103be9190610e18565b925050819055506000600667ffffffffffffffff8111156103e2576103e161098d565b5b6040519080825280602002602001820160405280156104105781602001602082028036833780820191505090505b5090508860001c8160008151811061042b5761042a610dbf565b5b6020026020010181815250508760001c8160018151811061044f5761044e610dbf565b5b6020026020010181815250508660001c8160028151811061047357610472610dbf565b5b6020026020010181815250508560001c8160038151811061049757610496610dbf565b5b6020026020010181815250506000816004815181106104b9576104b8610dbf565b5b60200260200101818152505084816005815181106104da576104d9610dbf565b5b60200260200101818152505060006104f182610544565b90507faab4d6a9097ad2a495d5adf5e52759eb94d5f03deb3c8909046a85cdb78fa4c88a8a8a8a8a8a8a8a604051610530989796959493929190610e5b565b60405180910390a150505050505050505050565b6000806000905060005b8351811015610688576000546000548583815181106105705761056f610dbf565b5b60200260200101516105829190610f08565b600054600e60009054906101000a900473ffffffffffffffffffffffffffffffffffffffff1673ffffffffffffffffffffffffffffffffffffffff1663d15ca1096000548987815181106105d9576105d8610dbf565b5b60200260200101516105eb9190610f08565b876040518363ffffffff1660e01b8152600401610609929190610f39565b602060405180830381865afa158015610626573d6000803e3d6000fd5b505050506040513d601f19601f8201168201806040525081019061064a9190610f77565b856106559190610e18565b61065f9190610f08565b6106699190610e18565b6106739190610f08565b9150808061068090610fa4565b91505061054e565b5080915050919050565b60007f6d6933b127aa9e6b219cadc33b8f72b9d6528ae4397fc9da80cbd210eb970d4960106000815481106106ca576106c9610dbf565b5b90600052602060002001546040516106e29190610dfd565b60405180910390a17f6d6933b127aa9e6b219cadc33b8f72b9d6528ae4397fc9da80cbd210eb970d49600c6000815481106107205761071f610dbf565b5b90600052602060002001546040516107389190610dfd565b60405180910390a1949350505050565b600f60009054906101000a900473ffffffffffffffffffffffffffffffffffffffff1681565b6000604051905090565b600080fd5b600080fd5b6000819050919050565b61079581610782565b81146107a057600080fd5b50565b6000813590506107b28161078c565b92915050565b6000819050919050565b6107cb816107b8565b81146107d657600080fd5b50565b6000813590506107e8816107c2565b92915050565b600060ff82169050919050565b610804816107ee565b811461080f57600080fd5b50565b600081359050610821816107fb565b92915050565b600080600080600080600080610100898b03121561084857610847610778565b5b60006108568b828c016107a3565b98505060206108678b828c016107a3565b97505060406108788b828c016107a3565b96505060606108898b828c016107a3565b955050608061089a8b828c016107d9565b94505060a06108ab8b828c016107a3565b93505060c06108bc8b828c016107a3565b92505060e06108cd8b828c01610812565b9150509295985092959890939650565b600073ffffffffffffffffffffffffffffffffffffffff82169050919050565b6000819050919050565b600061092261091d610918846108dd565b6108fd565b6108dd565b9050919050565b600061093482610907565b9050919050565b600061094682610929565b9050919050565b6109568161093b565b82525050565b6000602082019050610971600083018461094d565b92915050565b600080fd5b6000601f19601f8301169050919050565b7f4e487b7100000000000000000000000000000000000000000000000000000000600052604160045260246000fd5b6109c58261097c565b810181811067ffffffffffffffff821117156109e4576109e361098d565b5b80604052505050565b60006109f761076e565b9050610a0382826109bc565b919050565b600067ffffffffffffffff821115610a2357610a2261098d565b5b602082029050602081019050919050565b600080fd5b6000610a4c610a4784610a08565b6109ed565b90508083825260208201905060208402830185811115610a6f57610a6e610a34565b5b835b81811015610a985780610a8488826107d9565b845260208401935050602081019050610a71565b5050509392505050565b600082601f830112610ab757610ab6610977565b5b8135610ac7848260208601610a39565b91505092915050565b600060208284031215610ae657610ae5610778565b5b600082013567ffffffffffffffff811115610b0457610b0361077d565b5b610b1084828501610aa2565b91505092915050565b610b22816107b8565b82525050565b6000602082019050610b3d6000830184610b19565b92915050565b600081905082602060020282011115610b5f57610b5e610a34565b5b92915050565b600081905082604060020282011115610b8157610b80610a34565b5b92915050565b600081905082602060030282011115610ba357610ba2610a34565b5b92915050565b6000806000806101608587031215610bc457610bc3610778565b5b6000610bd287828801610b43565b9450506040610be387828801610b65565b93505060c0610bf487828801610b43565b925050610100610c0687828801610b87565b91505092959194509250565b60008115159050919050565b610c2781610c12565b82525050565b6000602082019050610c426000830184610c1e565b92915050565b6000610c5382610929565b9050919050565b610c6381610c48565b82525050565b6000602082019050610c7e6000830184610c5a565b92915050565b7f4e487b7100000000000000000000000000000000000000000000000000000000600052601160045260246000fd5b6000610cbe826107b8565b9150610cc9836107b8565b9250828202610cd7816107b8565b91508282048414831517610cee57610ced610c84565b5b5092915050565b600082825260208201905092915050565b7f616d6f756e742a3165313820213d206d73672e76616c75650000000000000000600082015250565b6000610d3c601883610cf5565b9150610d4782610d06565b602082019050919050565b60006020820190508181036000830152610d6b81610d2f565b9050919050565b6000819050919050565b610d8d610d8882610782565b610d72565b82525050565b6000610d9f8285610d7c565b602082019150610daf8284610d7c565b6020820191508190509392505050565b7f4e487b7100000000000000000000000000000000000000000000000000000000600052603260045260246000fd5b610df781610782565b82525050565b6000602082019050610e126000830184610dee565b92915050565b6000610e23826107b8565b9150610e2e836107b8565b9250828201905080821115610e4657610e45610c84565b5b92915050565b610e55816107ee565b82525050565b600061010082019050610e71600083018b610dee565b610e7e602083018a610dee565b610e8b6040830189610dee565b610e986060830188610dee565b610ea56080830187610b19565b610eb260a0830186610dee565b610ebf60c0830185610dee565b610ecc60e0830184610e4c565b9998505050505050505050565b7f4e487b7100000000000000000000000000000000000000000000000000000000600052601260045260246000fd5b6000610f13826107b8565b9150610f1e836107b8565b925082610f2e57610f2d610ed9565b5b828206905092915050565b6000604082019050610f4e6000830185610b19565b610f5b6020830184610b19565b9392505050565b600081519050610f71816107c2565b92915050565b600060208284031215610f8d57610f8c610778565b5b6000610f9b84828501610f62565b91505092915050565b6000610faf826107b8565b91507fffffffffffffffffffffffffffffffffffffffffffffffffffffffffffffffff8203610fe157610fe0610c84565b5b60018201905091905056fea2646970667358221220b8d8b79333b4b1c8263ec50b0990e844350266bc15750204e9404e757affaba864736f6c63430008130033",
  "immutableReferences": {},
  "source": "pragma solidity ^0.8.0;\n\ninterface IMiMC {\n    function MiMCpe7(uint256, uint256) external pure returns (uint256);\n}\n\ninterface IDepositRegisterVerifier {\n    function verifyProof(\n        uint[2] calldata,\n        uint[2][2] calldata,\n        uint[2] calldata,\n        uint[3] calldata\n    ) external returns (bool);\n}\n\ncontract Middleware {\n    // constants\n    uint prime =\n        21888242871839275222246405745257275088548364400416034343698204186575808495617;\n    uint[10] zeroCache = [\n        94722680099764756159715344114821272032571426768046774804987035158066048135449,\n        8424832841562211226544002910946085349648918813225913513442684203240096077078,\n        44197704158317907713192630833793885820470319960428659112617039771932448693504,\n        15930477789293542321832788520371595718736154179618338318569942051590503903493,\n        24456052748532017163542039193045207500912698699374716792226646706106269129995,\n        15710966271306649051349373776887832255201990728308403695502827246325884977190,\n        46061825755796793325488921878807366107061633217621406189820463087175544013836,\n        110405580006559763743081492937565134120730116456298553411541600514280272146715,\n        47214162484447726990215848897549943863707582778233274500640334702748702329092,\n        91600247919164313938162093148836160205870475304194670412711077245187285470998\n    ];\n\n    // variables\n    mapping(address => bool) existedPubkeys;\n    bytes32[] accountRoots;\n    address coordinator;\n    IMiMC public mimc;\n    IDepositRegisterVerifier public dpVerifier; // dp - deposit register\n\n    // deposit register variables\n    bytes32[] depositAccountRoots;\n    bytes32[] depositTxRoots;\n    uint noDepositRegisterTx;\n\n    // Debug events\n    event dDebug(bool state);\n    event dGetBytes32(bytes32 value);\n    event dGetString(string str);\n    event dGetAddress(address addr);\n    event dGetBytes20(bytes20 addr);\n    event dGetUint(uint u);\n    event dGetBytes32Array(bytes32[] arr);\n\n    // main events\n    event eDepositRegister(\n        bytes32 fromX,\n        bytes32 fromY,\n        bytes32 toX,\n        bytes32 toY,\n        uint amount,\n        bytes32 r,\n        bytes32 s,\n        uint8 v\n    );\n\n    constructor(\n        address _mimcContractAddress,\n        // ,\n        // address _depositRegisterVerifierContractAddress\n        bytes32 initializationAccountRoot\n    ) {\n        mimc = IMiMC(_mimcContractAddress);\n        // dpVerifier = IDepositRegisterVerifier(\n        //     _depositRegisterVerifierContractAddress\n        // );\n        noDepositRegisterTx = 0;\n        coordinator = msg.sender;\n        accountRoots.push(initializationAccountRoot);\n    }\n\n    function deposit(\n        bytes32 fromX,\n        bytes32 fromY,\n        bytes32 toX,\n        bytes32 toY,\n        uint amount,\n        bytes32 r,\n        bytes32 s,\n        uint8 v\n    ) public payable {\n        // emit dDebug(true);\n        require(amount * 1e18 == msg.value, \"amount*1e18 != msg.value\");\n        address receiverAddress = address(\n            bytes20((keccak256(abi.encodePacked(toX, toY))) << 96)\n        );\n\n        if (existedPubkeys[receiverAddress]) {\n            emit dDebug(false);\n        } else {\n            existedPubkeys[receiverAddress] = true;\n            _depositRegister(fromX, fromY, toX, toY, amount, r, s, v);\n        }\n    }\n\n    function _depositRegister(\n        bytes32 fromX,\n        bytes32 fromY,\n        bytes32 toX,\n        bytes32 toY,\n        uint amount,\n        bytes32 r,\n        bytes32 s,\n        uint8 v\n    ) public {\n        noDepositRegisterTx += 1;\n\n        // create a new account\n        // uint[] memory accountProperties = new uint[](4);\n        // accountProperties[0] = uint(toX);\n        // accountProperties[1] = uint(toY);\n        // accountProperties[2] = amount;\n        // accountProperties[3] = 0;\n        // uint newAccountHash = uint(mimcMultiHash(accountProperties));\n\n        // create a new tx\n        uint[] memory txPropertes = new uint[](6);\n        txPropertes[0] = uint(fromX);\n        txPropertes[1] = uint(fromY);\n        txPropertes[2] = uint(toX);\n        txPropertes[3] = uint(toY);\n        txPropertes[4] = 0;\n        txPropertes[5] = amount;\n        uint newTxHash = uint(mimcMultiHash(txPropertes));\n\n        // emit dGetBytes32(bytes32(newTxHash));\n\n        emit eDepositRegister(fromX, fromY, toX, toY, amount, r, s, v);\n\n        // // re-hash root\n        // uint tmp1 = newAccountHash;\n        // uint tmp2 = newTxHash;\n        // uint _noTx = noDepositRegisterTx;\n        // while (_noTx % 2 == 0) {\n        //     _noTx /= 2;\n        //     uint[] memory inputArray = new uint[](2);\n        //     inputArray[0] = uint(\n        //         depositAccountRoots[depositAccountRoots.length - 1]\n        //     );\n        //     inputArray[1] = tmp1;\n        //     depositAccountRoots.pop();\n        //     tmp1 = mimcMultiHash(inputArray);\n\n        //     inputArray[0] = uint(\n        //         depositTxRoots[depositTxRoots.length - 1]\n        //     );\n        //     inputArray[1] = tmp2;\n        //     depositTxRoots.pop();\n        //     tmp2 = mimcMultiHash(inputArray);\n        // }\n        // depositAccountRoots.push(bytes32(tmp1));\n        // depositTxRoots.push(bytes32(tmp2));\n    }\n\n    function getDepositRegisterRoot() public {\n        emit dGetBytes32(depositAccountRoots[0]);\n    }\n\n    function verifyProof_DepositRegister(\n        uint[2] calldata pi_a,\n        uint[2][2] calldata pi_b,\n        uint[2] calldata pi_c,\n        uint[3] calldata publicSignals\n    ) public returns (bool) {\n        emit dGetBytes32(depositAccountRoots[0]);\n        // require(depositRegisterRoots[0] == bytes32(publicSignals[1]), \"Deposit Register Root is invalid!\");\n        emit dGetBytes32(accountRoots[0]);\n        // require(accountRoots[0] == bytes32(publicSignals[2]), \"Account Root is invalid!\");\n    }\n\n    function mimcMultiHash(uint[] memory arr) public returns (uint) {\n        uint r = 0;\n        for (uint i = 0; i < arr.length; i++) {\n            // emit dGetBytes32(bytes32(r));\n            r =\n                (((r + mimc.MiMCpe7(arr[i] % prime, r)) % prime) +\n                    (arr[i] % prime)) %\n                prime;\n        }\n        return r;\n    }\n}\n",
  "sourcePath": "/home/ngyeenxhiu/Code/solidity-back-up/contracts/Middleware.sol",
  "compiler": {
    "name": "solc",
    "version": "0.8.19+commit.7dd6d404.Emscripten.clang"
  },
  "schemaVersion": "3.4.14",
  "updatedAt": "2023-09-02T19:32:42.926Z",
  "devdoc": {
    "kind": "dev",
    "methods": {},
    "version": 1
  },
  "userdoc": {
    "kind": "user",
    "methods": {},
    "version": 1
  }
}